{
  "contractName": "Payment",
  "abi": [
    {
      "inputs": [],
      "stateMutability": "nonpayable",
      "type": "constructor"
    },
    {
      "anonymous": false,
      "inputs": [
        {
          "indexed": false,
          "internalType": "address payable",
          "name": "_destinoTransferencia",
          "type": "address"
        },
        {
          "indexed": false,
          "internalType": "address",
          "name": "_origenTransferencia",
          "type": "address"
        },
        {
          "indexed": false,
          "internalType": "uint256",
          "name": "montoTransferencia",
          "type": "uint256"
        }
      ],
      "name": "TransferirMonto",
      "type": "event"
    },
    {
      "inputs": [
        {
          "internalType": "address payable",
          "name": "_destinoTransferencia",
          "type": "address"
        }
      ],
      "name": "nuevaTransaccion",
      "outputs": [
        {
          "internalType": "bool",
          "name": "",
          "type": "bool"
        }
      ],
      "stateMutability": "payable",
      "type": "function"
    },
    {
      "inputs": [],
      "name": "verBalanceCuenta",
      "outputs": [
        {
          "internalType": "uint256",
          "name": "",
          "type": "uint256"
        }
      ],
      "stateMutability": "pure",
      "type": "function"
    },
    {
      "inputs": [],
      "name": "getAll",
      "outputs": [
        {
          "internalType": "uint256",
          "name": "",
          "type": "uint256"
        }
      ],
      "stateMutability": "pure",
      "type": "function"
    }
  ],
  "bytecode": "0x608060405234801561001057600080fd5b50336000806101000a81548173ffffffffffffffffffffffffffffffffffffffff021916908373ffffffffffffffffffffffffffffffffffffffff16021790555061039c806100606000396000f3fe6080604052600436106100345760003560e01c806353ed51431461003957806372e713ac14610064578063e005f9201461008f575b600080fd5b34801561004557600080fd5b5061004e6100bf565b60405161005b91906102d5565b60405180910390f35b34801561007057600080fd5b506100796100c9565b60405161008691906102d5565b60405180910390f35b6100a960048036038101906100a4919061021a565b6100d3565b6040516100b691906102ba565b60405180910390f35b60006103e8905090565b60006103e8905090565b600081600160006101000a81548173ffffffffffffffffffffffffffffffffffffffff021916908373ffffffffffffffffffffffffffffffffffffffff160217905550600160009054906101000a900473ffffffffffffffffffffffffffffffffffffffff1673ffffffffffffffffffffffffffffffffffffffff166108fc349081150290604051600060405180830381858888f1935050505015801561017e573d6000803e3d6000fd5b507ffc1ff50638c53d8cb428005e102107cffd2da1840abf5289da2981b8e99c6420600160009054906101000a900473ffffffffffffffffffffffffffffffffffffffff1660008054906101000a900473ffffffffffffffffffffffffffffffffffffffff16346040516101f493929190610283565b60405180910390a160019050919050565b6000813590506102148161034f565b92915050565b6000602082840312156102305761022f61034a565b5b600061023e84828501610205565b91505092915050565b61025081610302565b82525050565b61025f816102f0565b82525050565b61026e81610314565b82525050565b61027d81610340565b82525050565b60006060820190506102986000830186610247565b6102a56020830185610256565b6102b26040830184610274565b949350505050565b60006020820190506102cf6000830184610265565b92915050565b60006020820190506102ea6000830184610274565b92915050565b60006102fb82610320565b9050919050565b600061030d82610320565b9050919050565b60008115159050919050565b600073ffffffffffffffffffffffffffffffffffffffff82169050919050565b6000819050919050565b600080fd5b61035881610302565b811461036357600080fd5b5056fea26469706673582212205455adb79e1b49b8815f11f7536730c80f9b72a071ca7e89f4ceb3404c4b1a6c64736f6c63430008070033",
  "immutableReferences": {},
  "source": "//SPDX-License-Identifier: Unlicense\r\npragma solidity ^0.8.4;\r\n\r\ncontract Payment {\r\n    address origenTransferencia;\r\n    address payable destinoTransferencia;\r\n    uint montoTransferencia;\r\n    \r\n    constructor() {\r\n        origenTransferencia = msg.sender;\r\n    }\r\n\r\n    event TransferirMonto(address payable _destinoTransferencia, address _origenTransferencia, uint montoTransferencia);\r\n    \r\n    function nuevaTransaccion(address payable _destinoTransferencia) public payable returns (bool){\r\n        destinoTransferencia = _destinoTransferencia;\r\n        destinoTransferencia.transfer(msg.value);\r\n        emit TransferirMonto(destinoTransferencia, origenTransferencia, msg.value);\r\n        return true;\r\n    }\r\n    function verBalanceCuenta() public pure returns (uint ) {\r\n        return 1000;\r\n    }\r\n\r\n    function getAll() public pure returns (uint) {\r\n        return 1000;\r\n    }\r\n\r\n    \r\n}",
  "sourcePath": "C:\\Users\\manda\\Desktop\\526 project\\test 2\\AngularTruffle\\Blockchain\\contracts\\Payment.sol",
  "compiler": {
    "name": "solc",
    "version": "0.8.7+commit.e28d00a7.Emscripten.clang"
  },
  "schemaVersion": "3.4.13",
  "updatedAt": "2023-04-28T20:08:22.009Z",
  "devdoc": {
    "kind": "dev",
    "methods": {},
    "version": 1
  },
  "userdoc": {
    "kind": "user",
    "methods": {},
    "version": 1
  }
}