{
  "contractName": "Payment",
  "abi": [
    {
      "inputs": [],
      "stateMutability": "nonpayable",
      "type": "constructor"
    },
    {
      "anonymous": false,
      "inputs": [
        {
          "indexed": true,
          "internalType": "address",
          "name": "owner",
          "type": "address"
        },
        {
          "indexed": true,
          "internalType": "address",
          "name": "approved",
          "type": "address"
        },
        {
          "indexed": true,
          "internalType": "uint256",
          "name": "tokenId",
          "type": "uint256"
        }
      ],
      "name": "Approval",
      "type": "event"
    },
    {
      "anonymous": false,
      "inputs": [
        {
          "indexed": true,
          "internalType": "address",
          "name": "owner",
          "type": "address"
        },
        {
          "indexed": true,
          "internalType": "address",
          "name": "operator",
          "type": "address"
        },
        {
          "indexed": false,
          "internalType": "bool",
          "name": "approved",
          "type": "bool"
        }
      ],
      "name": "ApprovalForAll",
      "type": "event"
    },
    {
      "anonymous": false,
      "inputs": [
        {
          "indexed": false,
          "internalType": "string",
          "name": "message",
          "type": "string"
        }
      ],
      "name": "LogMessage",
      "type": "event"
    },
    {
      "anonymous": false,
      "inputs": [
        {
          "indexed": true,
          "internalType": "address",
          "name": "previousOwner",
          "type": "address"
        },
        {
          "indexed": true,
          "internalType": "address",
          "name": "newOwner",
          "type": "address"
        }
      ],
      "name": "OwnershipTransferred",
      "type": "event"
    },
    {
      "anonymous": false,
      "inputs": [
        {
          "indexed": true,
          "internalType": "address",
          "name": "from",
          "type": "address"
        },
        {
          "indexed": true,
          "internalType": "address",
          "name": "to",
          "type": "address"
        },
        {
          "indexed": true,
          "internalType": "uint256",
          "name": "tokenId",
          "type": "uint256"
        }
      ],
      "name": "Transfer",
      "type": "event"
    },
    {
      "anonymous": false,
      "inputs": [
        {
          "indexed": false,
          "internalType": "address payable",
          "name": "_destinoTransferencia",
          "type": "address"
        },
        {
          "indexed": false,
          "internalType": "address payable",
          "name": "_origenTransferencia",
          "type": "address"
        },
        {
          "indexed": false,
          "internalType": "uint256",
          "name": "montoTransferencia",
          "type": "uint256"
        }
      ],
      "name": "TransferirMonto",
      "type": "event"
    },
    {
      "inputs": [
        {
          "internalType": "address",
          "name": "to",
          "type": "address"
        },
        {
          "internalType": "uint256",
          "name": "tokenId",
          "type": "uint256"
        }
      ],
      "name": "approve",
      "outputs": [],
      "stateMutability": "nonpayable",
      "type": "function"
    },
    {
      "inputs": [
        {
          "internalType": "address",
          "name": "owner",
          "type": "address"
        }
      ],
      "name": "balanceOf",
      "outputs": [
        {
          "internalType": "uint256",
          "name": "",
          "type": "uint256"
        }
      ],
      "stateMutability": "view",
      "type": "function",
      "constant": true
    },
    {
      "inputs": [
        {
          "internalType": "uint256",
          "name": "tokenId",
          "type": "uint256"
        }
      ],
      "name": "getApproved",
      "outputs": [
        {
          "internalType": "address",
          "name": "",
          "type": "address"
        }
      ],
      "stateMutability": "view",
      "type": "function",
      "constant": true
    },
    {
      "inputs": [
        {
          "internalType": "address",
          "name": "owner",
          "type": "address"
        },
        {
          "internalType": "address",
          "name": "operator",
          "type": "address"
        }
      ],
      "name": "isApprovedForAll",
      "outputs": [
        {
          "internalType": "bool",
          "name": "",
          "type": "bool"
        }
      ],
      "stateMutability": "view",
      "type": "function",
      "constant": true
    },
    {
      "inputs": [],
      "name": "name",
      "outputs": [
        {
          "internalType": "string",
          "name": "",
          "type": "string"
        }
      ],
      "stateMutability": "view",
      "type": "function",
      "constant": true
    },
    {
      "inputs": [],
      "name": "owner",
      "outputs": [
        {
          "internalType": "address",
          "name": "",
          "type": "address"
        }
      ],
      "stateMutability": "view",
      "type": "function",
      "constant": true
    },
    {
      "inputs": [
        {
          "internalType": "uint256",
          "name": "tokenId",
          "type": "uint256"
        }
      ],
      "name": "ownerOf",
      "outputs": [
        {
          "internalType": "address",
          "name": "",
          "type": "address"
        }
      ],
      "stateMutability": "view",
      "type": "function",
      "constant": true
    },
    {
      "inputs": [],
      "name": "renounceOwnership",
      "outputs": [],
      "stateMutability": "nonpayable",
      "type": "function"
    },
    {
      "inputs": [
        {
          "internalType": "address",
          "name": "from",
          "type": "address"
        },
        {
          "internalType": "address",
          "name": "to",
          "type": "address"
        },
        {
          "internalType": "uint256",
          "name": "tokenId",
          "type": "uint256"
        }
      ],
      "name": "safeTransferFrom",
      "outputs": [],
      "stateMutability": "nonpayable",
      "type": "function"
    },
    {
      "inputs": [
        {
          "internalType": "address",
          "name": "from",
          "type": "address"
        },
        {
          "internalType": "address",
          "name": "to",
          "type": "address"
        },
        {
          "internalType": "uint256",
          "name": "tokenId",
          "type": "uint256"
        },
        {
          "internalType": "bytes",
          "name": "data",
          "type": "bytes"
        }
      ],
      "name": "safeTransferFrom",
      "outputs": [],
      "stateMutability": "nonpayable",
      "type": "function"
    },
    {
      "inputs": [
        {
          "internalType": "address",
          "name": "operator",
          "type": "address"
        },
        {
          "internalType": "bool",
          "name": "approved",
          "type": "bool"
        }
      ],
      "name": "setApprovalForAll",
      "outputs": [],
      "stateMutability": "nonpayable",
      "type": "function"
    },
    {
      "inputs": [],
      "name": "symbol",
      "outputs": [
        {
          "internalType": "string",
          "name": "",
          "type": "string"
        }
      ],
      "stateMutability": "view",
      "type": "function",
      "constant": true
    },
    {
      "inputs": [
        {
          "internalType": "uint256",
          "name": "index",
          "type": "uint256"
        }
      ],
      "name": "tokenByIndex",
      "outputs": [
        {
          "internalType": "uint256",
          "name": "",
          "type": "uint256"
        }
      ],
      "stateMutability": "view",
      "type": "function",
      "constant": true
    },
    {
      "inputs": [
        {
          "internalType": "address",
          "name": "owner",
          "type": "address"
        },
        {
          "internalType": "uint256",
          "name": "index",
          "type": "uint256"
        }
      ],
      "name": "tokenOfOwnerByIndex",
      "outputs": [
        {
          "internalType": "uint256",
          "name": "",
          "type": "uint256"
        }
      ],
      "stateMutability": "view",
      "type": "function",
      "constant": true
    },
    {
      "inputs": [
        {
          "internalType": "uint256",
          "name": "tokenId",
          "type": "uint256"
        }
      ],
      "name": "tokenURI",
      "outputs": [
        {
          "internalType": "string",
          "name": "",
          "type": "string"
        }
      ],
      "stateMutability": "view",
      "type": "function",
      "constant": true
    },
    {
      "inputs": [],
      "name": "totalSupply",
      "outputs": [
        {
          "internalType": "uint256",
          "name": "",
          "type": "uint256"
        }
      ],
      "stateMutability": "view",
      "type": "function",
      "constant": true
    },
    {
      "inputs": [
        {
          "internalType": "address",
          "name": "from",
          "type": "address"
        },
        {
          "internalType": "address",
          "name": "to",
          "type": "address"
        },
        {
          "internalType": "uint256",
          "name": "tokenId",
          "type": "uint256"
        }
      ],
      "name": "transferFrom",
      "outputs": [],
      "stateMutability": "nonpayable",
      "type": "function"
    },
    {
      "inputs": [
        {
          "internalType": "address",
          "name": "newOwner",
          "type": "address"
        }
      ],
      "name": "transferOwnership",
      "outputs": [],
      "stateMutability": "nonpayable",
      "type": "function"
    },
    {
      "inputs": [
        {
          "internalType": "address",
          "name": "_destinoTransferencia",
          "type": "address"
        }
      ],
      "name": "nuevaTransaccion",
      "outputs": [
        {
          "internalType": "bool",
          "name": "",
          "type": "bool"
        }
      ],
      "stateMutability": "payable",
      "type": "function",
      "payable": true
    },
    {
      "inputs": [],
      "name": "verBalanceCuenta",
      "outputs": [
        {
          "internalType": "uint256",
          "name": "",
          "type": "uint256"
        }
      ],
      "stateMutability": "pure",
      "type": "function",
      "constant": true
    },
    {
      "inputs": [
        {
          "internalType": "string",
          "name": "message",
          "type": "string"
        }
      ],
      "name": "print",
      "outputs": [],
      "stateMutability": "nonpayable",
      "type": "function"
    },
    {
      "inputs": [
        {
          "internalType": "address",
          "name": "_userId",
          "type": "address"
        }
      ],
      "name": "getUserNfts",
      "outputs": [
        {
          "components": [
            {
              "internalType": "uint256",
              "name": "tokenId",
              "type": "uint256"
            },
            {
              "internalType": "string",
              "name": "image_link",
              "type": "string"
            }
          ],
          "internalType": "struct Payment.NftStruct[]",
          "name": "",
          "type": "tuple[]"
        }
      ],
      "stateMutability": "view",
      "type": "function",
      "constant": true
    },
    {
      "inputs": [
        {
          "internalType": "address",
          "name": "retId",
          "type": "address"
        },
        {
          "internalType": "uint256",
          "name": "orderId",
          "type": "uint256"
        },
        {
          "internalType": "uint256",
          "name": "orderAmount",
          "type": "uint256"
        }
      ],
      "name": "placeOrderNew",
      "outputs": [
        {
          "internalType": "bool",
          "name": "",
          "type": "bool"
        }
      ],
      "stateMutability": "nonpayable",
      "type": "function"
    },
    {
      "inputs": [
        {
          "internalType": "bytes4",
          "name": "interfaceId",
          "type": "bytes4"
        }
      ],
      "name": "supportsInterface",
      "outputs": [
        {
          "internalType": "bool",
          "name": "",
          "type": "bool"
        }
      ],
      "stateMutability": "view",
      "type": "function",
      "constant": true
    }
  ],
  "bytecode": "0x60806040526000600e553480156200001657600080fd5b506040518060400160405280600581526020017f54657374320000000000000000000000000000000000000000000000000000008152506040518060400160405280600281526020017f494300000000000000000000000000000000000000000000000000000000000081525081600090805190602001906200009b92919062000219565b508060019080519060200190620000b492919062000219565b505050620000d7620000cb6200013560201b60201c565b6200013d60201b60201c565b620000ee600d6200020360201b620012921760201c565b33600c60006101000a81548173ffffffffffffffffffffffffffffffffffffffff021916908373ffffffffffffffffffffffffffffffffffffffff1602179055506200032e565b600033905090565b6000600a60009054906101000a900473ffffffffffffffffffffffffffffffffffffffff16905081600a60006101000a81548173ffffffffffffffffffffffffffffffffffffffff021916908373ffffffffffffffffffffffffffffffffffffffff1602179055508173ffffffffffffffffffffffffffffffffffffffff168173ffffffffffffffffffffffffffffffffffffffff167f8be0079c531659141344cd1fd0a4f28419497f9722a3daafe3b4186f6b6457e060405160405180910390a35050565b6001816000016000828254019250508190555050565b8280546200022790620002c9565b90600052602060002090601f0160209004810192826200024b576000855562000297565b82601f106200026657805160ff191683800117855562000297565b8280016001018555821562000297579182015b828111156200029657825182559160200191906001019062000279565b5b509050620002a69190620002aa565b5090565b5b80821115620002c5576000816000905550600101620002ab565b5090565b60006002820490506001821680620002e257607f821691505b60208210811415620002f957620002f8620002ff565b5b50919050565b7f4e487b7100000000000000000000000000000000000000000000000000000000600052602260045260246000fd5b613ccc806200033e6000396000f3fe60806040526004361061014b5760003560e01c8063715018a6116100b6578063a22cb4651161006f578063a22cb465146104ca578063b88d4fde146104f3578063c87b56dd1461051c578063e005f92014610559578063e985e9c514610589578063f2fde38b146105c65761014b565b8063715018a6146103b857806372e713ac146103cf5780637908d009146103fa57806384d0eeae146104375780638da5cb5b1461047457806395d89b411461049f5761014b565b806323b872dd1161010857806323b872dd146102725780632f745c591461029b57806342842e0e146102d85780634f6ccce7146103015780636352211e1461033e57806370a082311461037b5761014b565b806301ffc9a71461015057806306fdde031461018d578063081812fc146101b8578063095ea7b3146101f557806311114af11461021e57806318160ddd14610247575b600080fd5b34801561015c57600080fd5b5061017760048036038101906101729190612be1565b6105ef565b60405161018491906131b2565b60405180910390f35b34801561019957600080fd5b506101a2610601565b6040516101af91906131cd565b60405180910390f35b3480156101c457600080fd5b506101df60048036038101906101da9190612c84565b610693565b6040516101ec91906130f2565b60405180910390f35b34801561020157600080fd5b5061021c60048036038101906102179190612b4e565b6106d9565b005b34801561022a57600080fd5b5061024560048036038101906102409190612c3b565b6107f1565b005b34801561025357600080fd5b5061025c61082b565b60405161026991906133ef565b60405180910390f35b34801561027e57600080fd5b5061029960048036038101906102949190612a38565b610838565b005b3480156102a757600080fd5b506102c260048036038101906102bd9190612b4e565b610898565b6040516102cf91906133ef565b60405180910390f35b3480156102e457600080fd5b506102ff60048036038101906102fa9190612a38565b61093d565b005b34801561030d57600080fd5b5061032860048036038101906103239190612c84565b61095d565b60405161033591906133ef565b60405180910390f35b34801561034a57600080fd5b5061036560048036038101906103609190612c84565b6109ce565b60405161037291906130f2565b60405180910390f35b34801561038757600080fd5b506103a2600480360381019061039d91906129cb565b610a55565b6040516103af91906133ef565b60405180910390f35b3480156103c457600080fd5b506103cd610b0d565b005b3480156103db57600080fd5b506103e4610b21565b6040516103f191906133ef565b60405180910390f35b34801561040657600080fd5b50610421600480360381019061041c91906129cb565b610b2b565b60405161042e9190613190565b60405180910390f35b34801561044357600080fd5b5061045e60048036038101906104599190612b8e565b610c65565b60405161046b91906131b2565b60405180910390f35b34801561048057600080fd5b50610489610eaa565b60405161049691906130f2565b60405180910390f35b3480156104ab57600080fd5b506104b4610ed4565b6040516104c191906131cd565b60405180910390f35b3480156104d657600080fd5b506104f160048036038101906104ec9190612b0e565b610f66565b005b3480156104ff57600080fd5b5061051a60048036038101906105159190612a8b565b610f7c565b005b34801561052857600080fd5b50610543600480360381019061053e9190612c84565b610fde565b60405161055091906131cd565b60405180910390f35b610573600480360381019061056e91906129cb565b611046565b60405161058091906131b2565b60405180910390f35b34801561059557600080fd5b506105b060048036038101906105ab91906129f8565b61117a565b6040516105bd91906131b2565b60405180910390f35b3480156105d257600080fd5b506105ed60048036038101906105e891906129cb565b61120e565b005b60006105fa826112a8565b9050919050565b6060600080546106109061361a565b80601f016020809104026020016040519081016040528092919081815260200182805461063c9061361a565b80156106895780601f1061065e57610100808354040283529160200191610689565b820191906000526020600020905b81548152906001019060200180831161066c57829003601f168201915b5050505050905090565b600061069e82611322565b6004600083815260200190815260200160002060009054906101000a900473ffffffffffffffffffffffffffffffffffffffff169050919050565b60006106e4826109ce565b90508073ffffffffffffffffffffffffffffffffffffffff168373ffffffffffffffffffffffffffffffffffffffff161415610755576040517f08c379a000000000000000000000000000000000000000000000000000000000815260040161074c9061336f565b60405180910390fd5b8073ffffffffffffffffffffffffffffffffffffffff1661077461136d565b73ffffffffffffffffffffffffffffffffffffffff1614806107a357506107a28161079d61136d565b61117a565b5b6107e2576040517f08c379a00000000000000000000000000000000000000000000000000000000081526004016107d99061338f565b60405180910390fd5b6107ec8383611375565b505050565b7f96561394bac381230de4649200e8831afcab1f451881bbade9ef209f6dd304808160405161082091906131cd565b60405180910390a150565b6000600880549050905090565b61084961084361136d565b8261142e565b610888576040517f08c379a000000000000000000000000000000000000000000000000000000000815260040161087f906131ef565b60405180910390fd5b6108938383836114c3565b505050565b60006108a383610a55565b82106108e4576040517f08c379a00000000000000000000000000000000000000000000000000000000081526004016108db9061320f565b60405180910390fd5b600660008473ffffffffffffffffffffffffffffffffffffffff1673ffffffffffffffffffffffffffffffffffffffff168152602001908152602001600020600083815260200190815260200160002054905092915050565b61095883838360405180602001604052806000815250610f7c565b505050565b600061096761082b565b82106109a8576040517f08c379a000000000000000000000000000000000000000000000000000000000815260040161099f906133af565b60405180910390fd5b600882815481106109bc576109bb613739565b5b90600052602060002001549050919050565b6000806109da836117bd565b9050600073ffffffffffffffffffffffffffffffffffffffff168173ffffffffffffffffffffffffffffffffffffffff161415610a4c576040517f08c379a0000000000000000000000000000000000000000000000000000000008152600401610a439061334f565b60405180910390fd5b80915050919050565b60008073ffffffffffffffffffffffffffffffffffffffff168273ffffffffffffffffffffffffffffffffffffffff161415610ac6576040517f08c379a0000000000000000000000000000000000000000000000000000000008152600401610abd906132ef565b60405180910390fd5b600360008373ffffffffffffffffffffffffffffffffffffffff1673ffffffffffffffffffffffffffffffffffffffff168152602001908152602001600020549050919050565b610b156117fa565b610b1f6000611878565b565b60006103e8905090565b6060601160008373ffffffffffffffffffffffffffffffffffffffff1673ffffffffffffffffffffffffffffffffffffffff168152602001908152602001600020805480602002602001604051908101604052809291908181526020016000905b82821015610c5a578382906000526020600020906002020160405180604001604052908160008201548152602001600182018054610bc99061361a565b80601f0160208091040260200160405190810160405280929190818152602001828054610bf59061361a565b8015610c425780601f10610c1757610100808354040283529160200191610c42565b820191906000526020600020905b815481529060010190602001808311610c2557829003601f168201915b50505050508152505081526020019060010190610b8c565b505050509050919050565b600082600f6000600c60009054906101000a900473ffffffffffffffffffffffffffffffffffffffff1673ffffffffffffffffffffffffffffffffffffffff1673ffffffffffffffffffffffffffffffffffffffff16815260200190815260200160002081905550600060405180604001604052808673ffffffffffffffffffffffffffffffffffffffff168152602001848152509050806010600086815260200190815260200160002060008201518160000160006101000a81548173ffffffffffffffffffffffffffffffffffffffff021916908373ffffffffffffffffffffffffffffffffffffffff16021790555060208201518160010155905050660aa87bee5380008310610e9e576000610d7e600d61193e565b9050610d8a600d611292565b610db6600c60009054906101000a900473ffffffffffffffffffffffffffffffffffffffff168261194c565b600060405180604001604052808381526020016040518060800160405280604c8152602001613c4b604c9139815250905060116000600c60009054906101000a900473ffffffffffffffffffffffffffffffffffffffff1673ffffffffffffffffffffffffffffffffffffffff1673ffffffffffffffffffffffffffffffffffffffff168152602001908152602001600020819080600181540180825580915050600190039060005260206000209060020201600090919091909150600082015181600001556020820151816001019080519060200190610e989291906127df565b50505050505b60019150509392505050565b6000600a60009054906101000a900473ffffffffffffffffffffffffffffffffffffffff16905090565b606060018054610ee39061361a565b80601f0160208091040260200160405190810160405280929190818152602001828054610f0f9061361a565b8015610f5c5780601f10610f3157610100808354040283529160200191610f5c565b820191906000526020600020905b815481529060010190602001808311610f3f57829003601f168201915b5050505050905090565b610f78610f7161136d565b838361196a565b5050565b610f8d610f8761136d565b8361142e565b610fcc576040517f08c379a0000000000000000000000000000000000000000000000000000000008152600401610fc3906131ef565b60405180910390fd5b610fd884848484611ad7565b50505050565b6060610fe982611322565b6000610ff3611b33565b90506000815111611013576040518060200160405280600081525061103e565b8061101d84611b70565b60405160200161102e9291906130ce565b6040516020818303038152906040525b915050919050565b600081600b60006101000a81548173ffffffffffffffffffffffffffffffffffffffff021916908373ffffffffffffffffffffffffffffffffffffffff160217905550600b60009054906101000a900473ffffffffffffffffffffffffffffffffffffffff1673ffffffffffffffffffffffffffffffffffffffff166108fc349081150290604051600060405180830381858888f193505050501580156110f1573d6000803e3d6000fd5b507ffc1ff50638c53d8cb428005e102107cffd2da1840abf5289da2981b8e99c6420600b60009054906101000a900473ffffffffffffffffffffffffffffffffffffffff16600c60009054906101000a900473ffffffffffffffffffffffffffffffffffffffff16346040516111699392919061310d565b60405180910390a160019050919050565b6000600560008473ffffffffffffffffffffffffffffffffffffffff1673ffffffffffffffffffffffffffffffffffffffff16815260200190815260200160002060008373ffffffffffffffffffffffffffffffffffffffff1673ffffffffffffffffffffffffffffffffffffffff16815260200190815260200160002060009054906101000a900460ff16905092915050565b6112166117fa565b600073ffffffffffffffffffffffffffffffffffffffff168173ffffffffffffffffffffffffffffffffffffffff161415611286576040517f08c379a000000000000000000000000000000000000000000000000000000000815260040161127d9061324f565b60405180910390fd5b61128f81611878565b50565b6001816000016000828254019250508190555050565b60007f780e9d63000000000000000000000000000000000000000000000000000000007bffffffffffffffffffffffffffffffffffffffffffffffffffffffff1916827bffffffffffffffffffffffffffffffffffffffffffffffffffffffff1916148061131b575061131a82611c48565b5b9050919050565b61132b81611d2a565b61136a576040517f08c379a00000000000000000000000000000000000000000000000000000000081526004016113619061334f565b60405180910390fd5b50565b600033905090565b816004600083815260200190815260200160002060006101000a81548173ffffffffffffffffffffffffffffffffffffffff021916908373ffffffffffffffffffffffffffffffffffffffff160217905550808273ffffffffffffffffffffffffffffffffffffffff166113e8836109ce565b73ffffffffffffffffffffffffffffffffffffffff167f8c5be1e5ebec7d5bd14f71427d1e84f3dd0314c0f7b2291e5b200ac8c7c3b92560405160405180910390a45050565b60008061143a836109ce565b90508073ffffffffffffffffffffffffffffffffffffffff168473ffffffffffffffffffffffffffffffffffffffff16148061147c575061147b818561117a565b5b806114ba57508373ffffffffffffffffffffffffffffffffffffffff166114a284610693565b73ffffffffffffffffffffffffffffffffffffffff16145b91505092915050565b8273ffffffffffffffffffffffffffffffffffffffff166114e3826109ce565b73ffffffffffffffffffffffffffffffffffffffff1614611539576040517f08c379a00000000000000000000000000000000000000000000000000000000081526004016115309061326f565b60405180910390fd5b600073ffffffffffffffffffffffffffffffffffffffff168273ffffffffffffffffffffffffffffffffffffffff1614156115a9576040517f08c379a00000000000000000000000000000000000000000000000000000000081526004016115a0906132af565b60405180910390fd5b6115b68383836001611d6b565b8273ffffffffffffffffffffffffffffffffffffffff166115d6826109ce565b73ffffffffffffffffffffffffffffffffffffffff161461162c576040517f08c379a00000000000000000000000000000000000000000000000000000000081526004016116239061326f565b60405180910390fd5b6004600082815260200190815260200160002060006101000a81549073ffffffffffffffffffffffffffffffffffffffff02191690556001600360008573ffffffffffffffffffffffffffffffffffffffff1673ffffffffffffffffffffffffffffffffffffffff168152602001908152602001600020600082825403925050819055506001600360008473ffffffffffffffffffffffffffffffffffffffff1673ffffffffffffffffffffffffffffffffffffffff16815260200190815260200160002060008282540192505081905550816002600083815260200190815260200160002060006101000a81548173ffffffffffffffffffffffffffffffffffffffff021916908373ffffffffffffffffffffffffffffffffffffffff160217905550808273ffffffffffffffffffffffffffffffffffffffff168473ffffffffffffffffffffffffffffffffffffffff167fddf252ad1be2c89b69c2b068fc378daa952ba7f163c4a11628f55a4df523b3ef60405160405180910390a46117b88383836001611d7d565b505050565b60006002600083815260200190815260200160002060009054906101000a900473ffffffffffffffffffffffffffffffffffffffff169050919050565b61180261136d565b73ffffffffffffffffffffffffffffffffffffffff16611820610eaa565b73ffffffffffffffffffffffffffffffffffffffff1614611876576040517f08c379a000000000000000000000000000000000000000000000000000000000815260040161186d9061332f565b60405180910390fd5b565b6000600a60009054906101000a900473ffffffffffffffffffffffffffffffffffffffff16905081600a60006101000a81548173ffffffffffffffffffffffffffffffffffffffff021916908373ffffffffffffffffffffffffffffffffffffffff1602179055508173ffffffffffffffffffffffffffffffffffffffff168173ffffffffffffffffffffffffffffffffffffffff167f8be0079c531659141344cd1fd0a4f28419497f9722a3daafe3b4186f6b6457e060405160405180910390a35050565b600081600001549050919050565b611966828260405180602001604052806000815250611d83565b5050565b8173ffffffffffffffffffffffffffffffffffffffff168373ffffffffffffffffffffffffffffffffffffffff1614156119d9576040517f08c379a00000000000000000000000000000000000000000000000000000000081526004016119d0906132cf565b60405180910390fd5b80600560008573ffffffffffffffffffffffffffffffffffffffff1673ffffffffffffffffffffffffffffffffffffffff16815260200190815260200160002060008473ffffffffffffffffffffffffffffffffffffffff1673ffffffffffffffffffffffffffffffffffffffff16815260200190815260200160002060006101000a81548160ff0219169083151502179055508173ffffffffffffffffffffffffffffffffffffffff168373ffffffffffffffffffffffffffffffffffffffff167f17307eab39ab6107e8899845ad3d59bd9653f200f220920489ca2b5937696c3183604051611aca91906131b2565b60405180910390a3505050565b611ae28484846114c3565b611aee84848484611dde565b611b2d576040517f08c379a0000000000000000000000000000000000000000000000000000000008152600401611b249061322f565b60405180910390fd5b50505050565b60606040518060400160405280601a81526020017f697066733a2f2f68617070794d6f6e6b6579426173655552492f000000000000815250905090565b606060006001611b7f84611f75565b01905060008167ffffffffffffffff811115611b9e57611b9d613768565b5b6040519080825280601f01601f191660200182016040528015611bd05781602001600182028036833780820191505090505b509050600082602001820190505b600115611c3d578080600190039150507f3031323334353637383961626364656600000000000000000000000000000000600a86061a8153600a8581611c2757611c266136ac565b5b0494506000851415611c3857611c3d565b611bde565b819350505050919050565b60007f80ac58cd000000000000000000000000000000000000000000000000000000007bffffffffffffffffffffffffffffffffffffffffffffffffffffffff1916827bffffffffffffffffffffffffffffffffffffffffffffffffffffffff19161480611d1357507f5b5e139f000000000000000000000000000000000000000000000000000000007bffffffffffffffffffffffffffffffffffffffffffffffffffffffff1916827bffffffffffffffffffffffffffffffffffffffffffffffffffffffff1916145b80611d235750611d22826120c8565b5b9050919050565b60008073ffffffffffffffffffffffffffffffffffffffff16611d4c836117bd565b73ffffffffffffffffffffffffffffffffffffffff1614159050919050565b611d7784848484612132565b50505050565b50505050565b611d8d8383612292565b611d9a6000848484611dde565b611dd9576040517f08c379a0000000000000000000000000000000000000000000000000000000008152600401611dd09061322f565b60405180910390fd5b505050565b6000611dff8473ffffffffffffffffffffffffffffffffffffffff166124b0565b15611f68578373ffffffffffffffffffffffffffffffffffffffff1663150b7a02611e2861136d565b8786866040518563ffffffff1660e01b8152600401611e4a9493929190613144565b602060405180830381600087803b158015611e6457600080fd5b505af1925050508015611e9557506040513d601f19601f82011682018060405250810190611e929190612c0e565b60015b611f18573d8060008114611ec5576040519150601f19603f3d011682016040523d82523d6000602084013e611eca565b606091505b50600081511415611f10576040517f08c379a0000000000000000000000000000000000000000000000000000000008152600401611f079061322f565b60405180910390fd5b805181602001fd5b63150b7a0260e01b7bffffffffffffffffffffffffffffffffffffffffffffffffffffffff1916817bffffffffffffffffffffffffffffffffffffffffffffffffffffffff191614915050611f6d565b600190505b949350505050565b600080600090507a184f03e93ff9f4daa797ed6e38ed64bf6a1f0100000000000000008310611fd3577a184f03e93ff9f4daa797ed6e38ed64bf6a1f0100000000000000008381611fc957611fc86136ac565b5b0492506040810190505b6d04ee2d6d415b85acef81000000008310612010576d04ee2d6d415b85acef81000000008381612006576120056136ac565b5b0492506020810190505b662386f26fc10000831061203f57662386f26fc100008381612035576120346136ac565b5b0492506010810190505b6305f5e1008310612068576305f5e100838161205e5761205d6136ac565b5b0492506008810190505b612710831061208d576127108381612083576120826136ac565b5b0492506004810190505b606483106120b057606483816120a6576120a56136ac565b5b0492506002810190505b600a83106120bf576001810190505b80915050919050565b60007f01ffc9a7000000000000000000000000000000000000000000000000000000007bffffffffffffffffffffffffffffffffffffffffffffffffffffffff1916827bffffffffffffffffffffffffffffffffffffffffffffffffffffffff1916149050919050565b61213e848484846124d3565b6001811115612182576040517f08c379a0000000000000000000000000000000000000000000000000000000008152600401612179906133cf565b60405180910390fd5b6000829050600073ffffffffffffffffffffffffffffffffffffffff168573ffffffffffffffffffffffffffffffffffffffff1614156121ca576121c5816124d9565b612209565b8373ffffffffffffffffffffffffffffffffffffffff168573ffffffffffffffffffffffffffffffffffffffff1614612208576122078582612522565b5b5b600073ffffffffffffffffffffffffffffffffffffffff168473ffffffffffffffffffffffffffffffffffffffff16141561224c576122478161268f565b61228b565b8473ffffffffffffffffffffffffffffffffffffffff168473ffffffffffffffffffffffffffffffffffffffff161461228a576122898482612760565b5b5b5050505050565b600073ffffffffffffffffffffffffffffffffffffffff168273ffffffffffffffffffffffffffffffffffffffff161415612302576040517f08c379a00000000000000000000000000000000000000000000000000000000081526004016122f99061330f565b60405180910390fd5b61230b81611d2a565b1561234b576040517f08c379a00000000000000000000000000000000000000000000000000000000081526004016123429061328f565b60405180910390fd5b612359600083836001611d6b565b61236281611d2a565b156123a2576040517f08c379a00000000000000000000000000000000000000000000000000000000081526004016123999061328f565b60405180910390fd5b6001600360008473ffffffffffffffffffffffffffffffffffffffff1673ffffffffffffffffffffffffffffffffffffffff16815260200190815260200160002060008282540192505081905550816002600083815260200190815260200160002060006101000a81548173ffffffffffffffffffffffffffffffffffffffff021916908373ffffffffffffffffffffffffffffffffffffffff160217905550808273ffffffffffffffffffffffffffffffffffffffff16600073ffffffffffffffffffffffffffffffffffffffff167fddf252ad1be2c89b69c2b068fc378daa952ba7f163c4a11628f55a4df523b3ef60405160405180910390a46124ac600083836001611d7d565b5050565b6000808273ffffffffffffffffffffffffffffffffffffffff163b119050919050565b50505050565b6008805490506009600083815260200190815260200160002081905550600881908060018154018082558091505060019003906000526020600020016000909190919091505550565b6000600161252f84610a55565b612539919061351e565b905060006007600084815260200190815260200160002054905081811461261e576000600660008673ffffffffffffffffffffffffffffffffffffffff1673ffffffffffffffffffffffffffffffffffffffff168152602001908152602001600020600084815260200190815260200160002054905080600660008773ffffffffffffffffffffffffffffffffffffffff1673ffffffffffffffffffffffffffffffffffffffff168152602001908152602001600020600084815260200190815260200160002081905550816007600083815260200190815260200160002081905550505b6007600084815260200190815260200160002060009055600660008573ffffffffffffffffffffffffffffffffffffffff1673ffffffffffffffffffffffffffffffffffffffff16815260200190815260200160002060008381526020019081526020016000206000905550505050565b600060016008805490506126a3919061351e565b90506000600960008481526020019081526020016000205490506000600883815481106126d3576126d2613739565b5b9060005260206000200154905080600883815481106126f5576126f4613739565b5b9060005260206000200181905550816009600083815260200190815260200160002081905550600960008581526020019081526020016000206000905560088054806127445761274361370a565b5b6001900381819060005260206000200160009055905550505050565b600061276b83610a55565b905081600660008573ffffffffffffffffffffffffffffffffffffffff1673ffffffffffffffffffffffffffffffffffffffff168152602001908152602001600020600083815260200190815260200160002081905550806007600084815260200190815260200160002081905550505050565b8280546127eb9061361a565b90600052602060002090601f01602090048101928261280d5760008555612854565b82601f1061282657805160ff1916838001178555612854565b82800160010185558215612854579182015b82811115612853578251825591602001919060010190612838565b5b5090506128619190612865565b5090565b5b8082111561287e576000816000905550600101612866565b5090565b60006128956128908461342f565b61340a565b9050828152602081018484840111156128b1576128b061379c565b5b6128bc8482856135d8565b509392505050565b60006128d76128d284613460565b61340a565b9050828152602081018484840111156128f3576128f261379c565b5b6128fe8482856135d8565b509392505050565b60008135905061291581613bee565b92915050565b60008135905061292a81613c05565b92915050565b60008135905061293f81613c1c565b92915050565b60008151905061295481613c1c565b92915050565b600082601f83011261296f5761296e613797565b5b813561297f848260208601612882565b91505092915050565b600082601f83011261299d5761299c613797565b5b81356129ad8482602086016128c4565b91505092915050565b6000813590506129c581613c33565b92915050565b6000602082840312156129e1576129e06137a6565b5b60006129ef84828501612906565b91505092915050565b60008060408385031215612a0f57612a0e6137a6565b5b6000612a1d85828601612906565b9250506020612a2e85828601612906565b9150509250929050565b600080600060608486031215612a5157612a506137a6565b5b6000612a5f86828701612906565b9350506020612a7086828701612906565b9250506040612a81868287016129b6565b9150509250925092565b60008060008060808587031215612aa557612aa46137a6565b5b6000612ab387828801612906565b9450506020612ac487828801612906565b9350506040612ad5878288016129b6565b925050606085013567ffffffffffffffff811115612af657612af56137a1565b5b612b028782880161295a565b91505092959194509250565b60008060408385031215612b2557612b246137a6565b5b6000612b3385828601612906565b9250506020612b448582860161291b565b9150509250929050565b60008060408385031215612b6557612b646137a6565b5b6000612b7385828601612906565b9250506020612b84858286016129b6565b9150509250929050565b600080600060608486031215612ba757612ba66137a6565b5b6000612bb586828701612906565b9350506020612bc6868287016129b6565b9250506040612bd7868287016129b6565b9150509250925092565b600060208284031215612bf757612bf66137a6565b5b6000612c0584828501612930565b91505092915050565b600060208284031215612c2457612c236137a6565b5b6000612c3284828501612945565b91505092915050565b600060208284031215612c5157612c506137a6565b5b600082013567ffffffffffffffff811115612c6f57612c6e6137a1565b5b612c7b84828501612988565b91505092915050565b600060208284031215612c9a57612c996137a6565b5b6000612ca8848285016129b6565b91505092915050565b6000612cbd8383613073565b905092915050565b612cce81613564565b82525050565b612cdd81613552565b82525050565b6000612cee826134a1565b612cf881856134cf565b935083602082028501612d0a85613491565b8060005b85811015612d465784840389528151612d278582612cb1565b9450612d32836134c2565b925060208a01995050600181019050612d0e565b50829750879550505050505092915050565b612d6181613576565b82525050565b6000612d72826134ac565b612d7c81856134e0565b9350612d8c8185602086016135e7565b612d95816137ab565b840191505092915050565b6000612dab826134b7565b612db581856134f1565b9350612dc58185602086016135e7565b612dce816137ab565b840191505092915050565b6000612de4826134b7565b612dee8185613502565b9350612dfe8185602086016135e7565b612e07816137ab565b840191505092915050565b6000612e1d826134b7565b612e278185613513565b9350612e378185602086016135e7565b80840191505092915050565b6000612e50602d83613502565b9150612e5b826137bc565b604082019050919050565b6000612e73602b83613502565b9150612e7e8261380b565b604082019050919050565b6000612e96603283613502565b9150612ea18261385a565b604082019050919050565b6000612eb9602683613502565b9150612ec4826138a9565b604082019050919050565b6000612edc602583613502565b9150612ee7826138f8565b604082019050919050565b6000612eff601c83613502565b9150612f0a82613947565b602082019050919050565b6000612f22602483613502565b9150612f2d82613970565b604082019050919050565b6000612f45601983613502565b9150612f50826139bf565b602082019050919050565b6000612f68602983613502565b9150612f73826139e8565b604082019050919050565b6000612f8b602083613502565b9150612f9682613a37565b602082019050919050565b6000612fae602083613502565b9150612fb982613a60565b602082019050919050565b6000612fd1601883613502565b9150612fdc82613a89565b602082019050919050565b6000612ff4602183613502565b9150612fff82613ab2565b604082019050919050565b6000613017603d83613502565b915061302282613b01565b604082019050919050565b600061303a602c83613502565b915061304582613b50565b604082019050919050565b600061305d603583613502565b915061306882613b9f565b604082019050919050565b600060408301600083015161308b60008601826130b0565b50602083015184820360208601526130a38282612da0565b9150508091505092915050565b6130b9816135ce565b82525050565b6130c8816135ce565b82525050565b60006130da8285612e12565b91506130e68284612e12565b91508190509392505050565b60006020820190506131076000830184612cd4565b92915050565b60006060820190506131226000830186612cc5565b61312f6020830185612cc5565b61313c60408301846130bf565b949350505050565b60006080820190506131596000830187612cd4565b6131666020830186612cd4565b61317360408301856130bf565b81810360608301526131858184612d67565b905095945050505050565b600060208201905081810360008301526131aa8184612ce3565b905092915050565b60006020820190506131c76000830184612d58565b92915050565b600060208201905081810360008301526131e78184612dd9565b905092915050565b6000602082019050818103600083015261320881612e43565b9050919050565b6000602082019050818103600083015261322881612e66565b9050919050565b6000602082019050818103600083015261324881612e89565b9050919050565b6000602082019050818103600083015261326881612eac565b9050919050565b6000602082019050818103600083015261328881612ecf565b9050919050565b600060208201905081810360008301526132a881612ef2565b9050919050565b600060208201905081810360008301526132c881612f15565b9050919050565b600060208201905081810360008301526132e881612f38565b9050919050565b6000602082019050818103600083015261330881612f5b565b9050919050565b6000602082019050818103600083015261332881612f7e565b9050919050565b6000602082019050818103600083015261334881612fa1565b9050919050565b6000602082019050818103600083015261336881612fc4565b9050919050565b6000602082019050818103600083015261338881612fe7565b9050919050565b600060208201905081810360008301526133a88161300a565b9050919050565b600060208201905081810360008301526133c88161302d565b9050919050565b600060208201905081810360008301526133e881613050565b9050919050565b600060208201905061340460008301846130bf565b92915050565b6000613414613425565b9050613420828261364c565b919050565b6000604051905090565b600067ffffffffffffffff82111561344a57613449613768565b5b613453826137ab565b9050602081019050919050565b600067ffffffffffffffff82111561347b5761347a613768565b5b613484826137ab565b9050602081019050919050565b6000819050602082019050919050565b600081519050919050565b600081519050919050565b600081519050919050565b6000602082019050919050565b600082825260208201905092915050565b600082825260208201905092915050565b600082825260208201905092915050565b600082825260208201905092915050565b600081905092915050565b6000613529826135ce565b9150613534836135ce565b9250828210156135475761354661367d565b5b828203905092915050565b600061355d826135ae565b9050919050565b600061356f826135ae565b9050919050565b60008115159050919050565b60007fffffffff0000000000000000000000000000000000000000000000000000000082169050919050565b600073ffffffffffffffffffffffffffffffffffffffff82169050919050565b6000819050919050565b82818337600083830152505050565b60005b838110156136055780820151818401526020810190506135ea565b83811115613614576000848401525b50505050565b6000600282049050600182168061363257607f821691505b60208210811415613646576136456136db565b5b50919050565b613655826137ab565b810181811067ffffffffffffffff8211171561367457613673613768565b5b80604052505050565b7f4e487b7100000000000000000000000000000000000000000000000000000000600052601160045260246000fd5b7f4e487b7100000000000000000000000000000000000000000000000000000000600052601260045260246000fd5b7f4e487b7100000000000000000000000000000000000000000000000000000000600052602260045260246000fd5b7f4e487b7100000000000000000000000000000000000000000000000000000000600052603160045260246000fd5b7f4e487b7100000000000000000000000000000000000000000000000000000000600052603260045260246000fd5b7f4e487b7100000000000000000000000000000000000000000000000000000000600052604160045260246000fd5b600080fd5b600080fd5b600080fd5b600080fd5b6000601f19601f8301169050919050565b7f4552433732313a2063616c6c6572206973206e6f7420746f6b656e206f776e6560008201527f72206f7220617070726f76656400000000000000000000000000000000000000602082015250565b7f455243373231456e756d657261626c653a206f776e657220696e646578206f7560008201527f74206f6620626f756e6473000000000000000000000000000000000000000000602082015250565b7f4552433732313a207472616e7366657220746f206e6f6e20455243373231526560008201527f63656976657220696d706c656d656e7465720000000000000000000000000000602082015250565b7f4f776e61626c653a206e6577206f776e657220697320746865207a65726f206160008201527f6464726573730000000000000000000000000000000000000000000000000000602082015250565b7f4552433732313a207472616e736665722066726f6d20696e636f72726563742060008201527f6f776e6572000000000000000000000000000000000000000000000000000000602082015250565b7f4552433732313a20746f6b656e20616c7265616479206d696e74656400000000600082015250565b7f4552433732313a207472616e7366657220746f20746865207a65726f2061646460008201527f7265737300000000000000000000000000000000000000000000000000000000602082015250565b7f4552433732313a20617070726f766520746f2063616c6c657200000000000000600082015250565b7f4552433732313a2061646472657373207a65726f206973206e6f74206120766160008201527f6c6964206f776e65720000000000000000000000000000000000000000000000602082015250565b7f4552433732313a206d696e7420746f20746865207a65726f2061646472657373600082015250565b7f4f776e61626c653a2063616c6c6572206973206e6f7420746865206f776e6572600082015250565b7f4552433732313a20696e76616c696420746f6b656e2049440000000000000000600082015250565b7f4552433732313a20617070726f76616c20746f2063757272656e74206f776e6560008201527f7200000000000000000000000000000000000000000000000000000000000000602082015250565b7f4552433732313a20617070726f76652063616c6c6572206973206e6f7420746f60008201527f6b656e206f776e6572206f7220617070726f76656420666f7220616c6c000000602082015250565b7f455243373231456e756d657261626c653a20676c6f62616c20696e646578206f60008201527f7574206f6620626f756e64730000000000000000000000000000000000000000602082015250565b7f455243373231456e756d657261626c653a20636f6e736563757469766520747260008201527f616e7366657273206e6f7420737570706f727465640000000000000000000000602082015250565b613bf781613552565b8114613c0257600080fd5b50565b613c0e81613576565b8114613c1957600080fd5b50565b613c2581613582565b8114613c3057600080fd5b50565b613c3c816135ce565b8114613c4757600080fd5b5056fe68747470733a2f2f692e70696e696d672e636f6d2f6f726967696e616c732f36362f66372f37322f36366637373239363238326235616237633237383037323438303236313463302e706e67a2646970667358221220b9cd9f1071183684f8bfcd21117a8e92d8d4a77d5fd8a1579344f85312dfd8b864736f6c63430008070033",
  "immutableReferences": {},
  "source": "//SPDX-License-Identifier: Unlicense\r\npragma solidity ^0.8.4;\r\n\r\nimport \"../node_modules/@openzeppelin/contracts/token/ERC721/ERC721.sol\";\r\nimport \"../node_modules/@openzeppelin/contracts/token/ERC721/extensions/ERC721Enumerable.sol\";\r\n// import \"@openzeppelin/contracts@4.5.0/security/Pausable.sol\";\r\nimport \"../node_modules/@openzeppelin/contracts/access/Ownable.sol\";\r\nimport \"../node_modules/@openzeppelin/contracts/utils/Counters.sol\";\r\n\r\ncontract Payment is ERC721, ERC721Enumerable, Ownable {\r\n    // ===== 1. Property Variables ===== //\r\n\r\n    using Counters for Counters.Counter;\r\n\r\n    // uint256 public MAX_SUPPLY = 100;\r\n\r\n    address payable destinoTransferencia;\r\n    address payable from;\r\n    // address payable to;\r\n\r\n    // uint montoTransferencia;\r\n\r\n    event TransferirMonto(\r\n        address payable _destinoTransferencia,\r\n        address payable _origenTransferencia,\r\n        uint montoTransferencia\r\n    );\r\n\r\n    function nuevaTransaccion(address _destinoTransferencia) public payable returns(bool) {\r\n        destinoTransferencia = payable(_destinoTransferencia);\r\n        destinoTransferencia.transfer(msg.value);\r\n        emit TransferirMonto(destinoTransferencia, from, msg.value);\r\n        return true;\r\n    }\r\n\r\n    function verBalanceCuenta() public pure returns(uint) {\r\n        return 1000;\r\n    }\r\n\r\n    Counters.Counter private _tokenIdCounter;\r\n\r\n    constructor() ERC721(\"Test2\", \"IC\") {\r\n        // Start token ID at 1. By default is starts at 0.\r\n        _tokenIdCounter.increment();\r\n        from = payable(msg.sender);\r\n    }\r\n\r\n    //print\r\n    event LogMessage(string message);\r\n\r\n    function print(string memory message) public {\r\n        emit LogMessage(message);\r\n    }\r\n\r\n    uint256 orderIdCounter = 0;\r\n    mapping(address => uint256) userToOrderId;\r\n    // mapping(uint256 => ItemStruct[]) orderToDetails;\r\n\r\n    struct OrderDetailsStruct {\r\n        address retailerId;\r\n        uint256 orderAmount;\r\n    }\r\n\r\n    struct NftStruct {\r\n        uint256 tokenId;\r\n        string image_link;\r\n    }\r\n\r\n    mapping(uint256 => OrderDetailsStruct) orderIdToDetails;\r\n\r\n    mapping(address => NftStruct[]) userToNft;\r\n\r\n    function getUserNfts(address _userId) public view returns (NftStruct[] memory) {\r\n        return userToNft[_userId];\r\n    }\r\n\r\n    function placeOrderNew(address retId, uint256 orderId,uint256 orderAmount) public returns (bool) {\r\n        userToOrderId[from] = orderId;\r\n        OrderDetailsStruct memory temp = OrderDetailsStruct(retId, orderAmount);\r\n        orderIdToDetails[orderId] = (temp);\r\n\r\n        //NFT minting\r\n        if (orderAmount >= 3000000000000000) {\r\n            //0.003 eth\r\n            uint256 tokenId = _tokenIdCounter.current();\r\n            _tokenIdCounter.increment();\r\n            _safeMint(from, tokenId);\r\n            NftStruct memory newNft = NftStruct(\r\n                tokenId,\r\n                \"https://i.pinimg.com/originals/66/f7/72/66f77296282b5ab7c2780724802614c0.png\"\r\n            );\r\n            userToNft[from].push(newNft);\r\n        }\r\n        return true;\r\n    }\r\n\r\n    //===============================================//\r\n    // ===== 5. Other Functions ===== //\r\n\r\n    function _baseURI() internal pure override returns (string memory) {\r\n        return \"ipfs://happyMonkeyBaseURI/\";\r\n    }\r\n\r\n    function _beforeTokenTransfer(address _from,address _to,uint256 _tokenId,uint256 batchSize) internal virtual override(ERC721, ERC721Enumerable) {\r\n        super._beforeTokenTransfer(_from, _to, _tokenId, batchSize);\r\n    }\r\n\r\n    // The following functions are overrides required by Solidity.\r\n\r\n    function supportsInterface(bytes4 interfaceId) public view override(ERC721, ERC721Enumerable) returns (bool) {\r\n        return super.supportsInterface(interfaceId);\r\n    }\r\n\r\n    // function getAll() public pure returns (uint) {\r\n    //     return 1000;\r\n    // }\r\n\r\n    // event PayOrder(address payable _to, address payable _from, uint amt);\r\n\r\n    // function pay(address payable _to) public payable returns (bool) {\r\n    //     to = _to;\r\n    //     to.transfer(msg.value);\r\n    //     emit PayOrder(to, from, msg.value);\r\n    //     return true;\r\n    // }\r\n\r\n    ///\r\n    /// only owner modifier is inherited from imported dependencies\r\n    ///\r\n\r\n    // function isRetailer() public view returns (bool) {\r\n    //     for (uint256 i = 0; i < retailerIds.length; i++) {\r\n    //         if (msg.sender == retailerIds[i]) {\r\n    //             return true;\r\n    //         }\r\n    //     }\r\n    // }\r\n\r\n    // modifier onlyRetailer() {\r\n    //     require(isRetailer());\r\n    //     _;\r\n    // }\r\n\r\n    // modifier onlyUser() {\r\n    //     require(isUser());\r\n    //     _;\r\n    // }\r\n\r\n    // function isUser() public view returns (bool) {\r\n    //     for (uint256 i = 0; i < userIds.length; i++) {\r\n    //         if (msg.sender == userIds[i]) {\r\n    //             return true;\r\n    //         }\r\n    //     }\r\n    // }\r\n\r\n    // struct ItemStruct {\r\n    //     uint256 itemId;\r\n    //     string itemName;\r\n    //     uint256 categoryId;\r\n    //     uint256 itemPrice;\r\n    //     uint256 quantity;\r\n    //     uint256 pricePerQuantity;\r\n    //     address payable sellerId;\r\n    // }\r\n\r\n    // //start of items section\r\n    // mapping(uint256 => ItemStruct) private items; // mapping from item id to item details\r\n    // uint256[] private itemIds; // array of all item ids\r\n\r\n    // function getItemById(\r\n    //     uint256 itemId\r\n    // ) public view returns (ItemStruct memory) {\r\n    //     ItemStruct memory item = items[itemId];\r\n    //     return item;\r\n    // }\r\n\r\n    // function getAllItems() public view returns (ItemStruct[] memory) {\r\n    //     uint256 itemCount = itemIds.length;\r\n    //     ItemStruct[] memory itemsArray = new ItemStruct[](itemCount);\r\n    //     for (uint256 i = 0; i < itemCount; i++) {\r\n    //         uint256 itemId = itemIds[i];\r\n    //         itemsArray[i] = items[itemId];\r\n    //     }\r\n    //     return itemsArray;\r\n    // }\r\n\r\n    // struct UserStruct {\r\n    //     address userId;\r\n    //     string userName;\r\n    //     string homeAddress;\r\n    // }\r\n\r\n    //end of item section\r\n\r\n    //start of user section\r\n    // mapping(address => UserStruct) private idToUser;\r\n    // mapping(address => ItemStruct[]) private userIdToCartList;\r\n    // address[] private userIds;\r\n\r\n    // function addUser(\r\n    //     address userId,\r\n    //     string memory name,\r\n    //     string memory homeAddr\r\n    // ) public {\r\n    //     if (bytes(idToUser[userId].userName).length > 0) {\r\n    //         revert(\"USER EXISTS\");\r\n    //     }\r\n    //     idToUser[userId] = UserStruct(userId, name, homeAddr);\r\n    //     userIds.push(userId);\r\n    // }\r\n\r\n    // function getAllUsers() public view returns (UserStruct[] memory) {\r\n    //     uint256 userCount = userIds.length;\r\n    //     UserStruct[] memory resUsers = new UserStruct[](userCount);\r\n    //     for (uint256 i = 0; i < userCount; i++) {\r\n    //         address tempId = userIds[i];\r\n    //         resUsers[i] = idToUser[tempId];\r\n    //     }\r\n    //     // UserStruct[] memory temp = new UserStruct[](2);\r\n    //     // temp[0] = UserStruct(0x67B82548B0d34cBc6d993583d6130e2a5f76C8EA, \"name 1\", \"addr 1\");\r\n    //     // temp[1] = UserStruct(0xb2a9a8f7a803E3Ba1783c0F8226C0cce1CD65650, \"name 2\", \"addr 2s\");\r\n\r\n    //     return resUsers;\r\n    // }\r\n\r\n    // function getUserById(\r\n    //     address userId\r\n    // ) public view returns (UserStruct memory) {\r\n    //     UserStruct memory user = idToUser[userId];\r\n    //     return user;\r\n    // }\r\n\r\n    // //cart operations\r\n\r\n    // function addItemToCart(\r\n    //     address userId,\r\n    //     uint256 itemId,\r\n    //     string memory name,\r\n    //     uint256 catId,\r\n    //     uint256 price,\r\n    //     uint256 quantity,\r\n    //     address payable sellerId\r\n    // ) public {\r\n    //     ItemStruct memory temp = ItemStruct(\r\n    //         itemId,\r\n    //         name,\r\n    //         catId,\r\n    //         price,\r\n    //         quantity,\r\n    //         price * quantity,\r\n    //         sellerId\r\n    //     );\r\n    //     userIdToCartList[userId].push(temp);\r\n    // }\r\n\r\n    // function viewCart(\r\n    //     address userId\r\n    // ) public view returns (ItemStruct[] memory) {\r\n    //     return userIdToCartList[userId];\r\n    // }\r\n\r\n    // function updateCart(\r\n    //     address userId,\r\n    //     uint256 itemId,\r\n    //     uint256 newQuant\r\n    // ) public {\r\n    //     bool isExists = false;\r\n    //     for (uint256 i = 0; i < userIdToCartList[userId].length; i++) {\r\n    //         if (itemId == userIdToCartList[userId][i].itemId) {\r\n    //             isExists = true;\r\n    //             userIdToCartList[userId][i].quantity = newQuant;\r\n    //             break;\r\n    //         }\r\n    //     }\r\n    //     if (!isExists) {\r\n    //         print(\"Try with item already existing in cart\");\r\n    //     }\r\n    // }\r\n\r\n    // function removeItemFromCart(\r\n    //     address userId,\r\n    //     uint256 itemId\r\n    // ) public returns (ItemStruct[] memory) {\r\n    //     uint256 itemIndx = 0;\r\n    //     bool isExists = false;\r\n    //     for (uint256 i = 0; i < userIdToCartList[userId].length; i++) {\r\n    //         if (itemId == userIdToCartList[userId][i].itemId) {\r\n    //             isExists = true;\r\n    //             itemIndx = i;\r\n    //             break;\r\n    //         }\r\n    //     }\r\n\r\n    //     if (isExists) {\r\n    //         uint256 i = 0;\r\n    //         for (i = itemIndx; i < userIdToCartList[userId].length - 1; i++) {\r\n    //             userIdToCartList[userId][i] = userIdToCartList[userId][i + 1];\r\n    //         }\r\n    //         userIdToCartList[userId].pop();\r\n    //         return userIdToCartList[userId];\r\n    //     }\r\n    //     return userIdToCartList[userId];\r\n    // }\r\n\r\n    //end of user section\r\n\r\n    //start of retailer section\r\n\r\n    // struct RetailerStruct {\r\n    //     address retailerId;\r\n    //     string retailerName;\r\n    //     string homeAddress;\r\n    // }\r\n\r\n    // mapping(address => RetailerStruct) private idToRetailer;\r\n    // address[] private retailerIds;\r\n    // mapping(address => ItemStruct[]) retailerToInv;\r\n\r\n    // function addRetailer(\r\n    //     address retailerId,\r\n    //     string memory name,\r\n    //     string memory homeAddr\r\n    // ) public {\r\n    //     if (bytes(idToRetailer[retailerId].retailerName).length > 0) {\r\n    //         revert(\"USER EXISTS\");\r\n    //     }\r\n    //     idToRetailer[retailerId] = RetailerStruct(retailerId, name, homeAddr);\r\n    //     retailerIds.push(retailerId);\r\n    // }\r\n\r\n    // function getRetailerById(\r\n    //     address retId\r\n    // ) public view returns (RetailerStruct memory) {\r\n    //     RetailerStruct memory retailer = idToRetailer[retId];\r\n    //     return retailer;\r\n    // }\r\n\r\n    // function getAllRetailer() public view returns (RetailerStruct[] memory) {\r\n    //     uint256 userCount = retailerIds.length;\r\n    //     RetailerStruct[] memory resUsers = new RetailerStruct[](userCount);\r\n    //     for (uint256 i = 0; i < userCount; i++) {\r\n    //         address tempId = retailerIds[i];\r\n    //         resUsers[i] = idToRetailer[tempId];\r\n    //     }\r\n    //     return resUsers;\r\n    // }\r\n\r\n    // //retailer functions\r\n    // function addnewItemToInvt(\r\n    //     string memory name,\r\n    //     uint256 catId,\r\n    //     uint256 price,\r\n    //     uint256 quantity,\r\n    //     address payable sellerId,\r\n    //     uint256 itemId\r\n    // ) public {\r\n    //     //check if itemID exists\r\n    //     for (uint256 i = 0; i < itemIds.length; i++) {\r\n    //         if (itemIds[i] == itemId) {\r\n    //             print(\"try different ID\");\r\n    //             return;\r\n    //         }\r\n    //     }\r\n    //     ItemStruct memory temp = ItemStruct(\r\n    //         itemId,\r\n    //         name,\r\n    //         catId,\r\n    //         price,\r\n    //         quantity,\r\n    //         price * quantity,\r\n    //         sellerId\r\n    //     );\r\n    //     retailerToInv[sellerId].push(temp);\r\n    //     //update items mapping\r\n    //     items[itemId] = temp;\r\n    //     itemIds.push(itemId);\r\n    // }\r\n\r\n    // function viewInventory(\r\n    //     address sellerId\r\n    // ) public view returns (ItemStruct[] memory) {\r\n    //     return retailerToInv[sellerId];\r\n    // }\r\n\r\n    // // should also handle price change\r\n    // function UpdateInventory(\r\n    //     uint256 itemId,\r\n    //     uint256 newQuant,\r\n    //     address sellerId\r\n    // ) public {\r\n    //     bool isExists = false;\r\n    //     for (uint256 i = 0; i < retailerToInv[sellerId].length; i++) {\r\n    //         if (itemId == retailerToInv[sellerId][i].itemId) {\r\n    //             isExists = true;\r\n    //             retailerToInv[sellerId][i].quantity = newQuant;\r\n    //             break;\r\n    //         }\r\n    //     }\r\n    //     if (!isExists) {\r\n    //         print(\"Try with item already existing in cart\");\r\n    //     }\r\n    // }\r\n\r\n    // function removeItemInventory(address retailerId, uint256 itemId) public {\r\n    //     uint256 itemIndx = 0;\r\n    //     bool isExists = false;\r\n    //     for (uint256 i = 0; i < retailerToInv[retailerId].length; i++) {\r\n    //         if (itemId == retailerToInv[retailerId][i].itemId) {\r\n    //             isExists = true;\r\n    //             itemIndx = i;\r\n    //             break;\r\n    //         }\r\n    //     }\r\n\r\n    //     if (isExists) {\r\n    //         uint256 i = 0;\r\n    //         for (i = itemIndx; i < retailerToInv[retailerId].length - 1; i++) {\r\n    //             retailerToInv[retailerId][i] = retailerToInv[retailerId][i + 1];\r\n    //         }\r\n    //         retailerToInv[retailerId].pop();\r\n    //     }\r\n\r\n    //     for (uint256 i = 0; i < itemIds.length; i++) {\r\n    //         if (itemIds[i] == itemId) {\r\n    //             for (uint256 j = i; j < itemIds.length - 1; j++) {\r\n    //                 itemIds[j] = itemIds[j + 1];\r\n    //             }\r\n    //             itemIds.pop();\r\n    //             break;\r\n    //         }\r\n    //     }\r\n    // }\r\n\r\n    // function viewOrdersByUserId(\r\n    //     address userId\r\n    // ) public view returns (ItemStruct[] memory) {\r\n    //     return orderToDetails[userToOrderId[userId]];\r\n    // }\r\n\r\n    // function placeOrder(address userId) public payable {\r\n    //     //require(totalSupply() < MAX_SUPPLY, \"Can't mint anymore tokens.\");\r\n\r\n    //     //check if payment is more than min amount\r\n    //     // ItemStruct[] memory temp = userIdToCartList[userId];\r\n    //     uint256 final_amount = 0;\r\n    //     for (uint256 i = 0; i < userIdToCartList[userId].length; i++) {\r\n    //         final_amount += userIdToCartList[userId][i].pricePerQuantity;\r\n    //     }\r\n\r\n    //     userIdToCartList[userId][0].sellerId.transfer(final_amount);\r\n    //     userToOrderId[userId] = orderIdCounter;\r\n    //     orderToDetails[orderIdCounter] = userIdToCartList[userId];\r\n    //     orderIdCounter++;\r\n\r\n    //     // ItemStruct[] memory prevInv = retailerToInv[userIdToCartList[userId][0].sellerId];\r\n    //     uint256 j = 0;\r\n    //     // uint256 k =0;\r\n    //     for (\r\n    //         uint256 i = 0;\r\n    //         i < retailerToInv[userIdToCartList[userId][0].sellerId].length;\r\n    //         i++\r\n    //     ) {\r\n    //         while (j < userIdToCartList[userId].length) {\r\n    //             if (\r\n    //                 retailerToInv[userIdToCartList[userId][0].sellerId][i]\r\n    //                     .itemId == userIdToCartList[userId][j].itemId\r\n    //             ) {\r\n    //                 retailerToInv[userIdToCartList[userId][0].sellerId][i]\r\n    //                     .quantity -= userIdToCartList[userId][j].quantity;\r\n    //                 j++;\r\n    //             }\r\n    //         }\r\n    //     }\r\n\r\n    //     while (userIdToCartList[userId].length > 0) {\r\n    //         userIdToCartList[userId].pop();\r\n    //     }\r\n\r\n    // }\r\n}\r\n",
  "sourcePath": "C:\\Users\\manda\\Desktop\\526 project\\phase 2 final\\New folder\\AngularTruffle\\Blockchain\\contracts\\Payment.sol",
  "compiler": {
    "name": "solc",
    "version": "0.8.7+commit.e28d00a7.Emscripten.clang"
  },
  "schemaVersion": "3.4.13",
  "updatedAt": "2023-05-14T02:20:36.696Z",
  "networkType": "ethereum",
  "devdoc": {
    "kind": "dev",
    "methods": {
      "approve(address,uint256)": {
        "details": "See {IERC721-approve}."
      },
      "balanceOf(address)": {
        "details": "See {IERC721-balanceOf}."
      },
      "getApproved(uint256)": {
        "details": "See {IERC721-getApproved}."
      },
      "isApprovedForAll(address,address)": {
        "details": "See {IERC721-isApprovedForAll}."
      },
      "name()": {
        "details": "See {IERC721Metadata-name}."
      },
      "owner()": {
        "details": "Returns the address of the current owner."
      },
      "ownerOf(uint256)": {
        "details": "See {IERC721-ownerOf}."
      },
      "renounceOwnership()": {
        "details": "Leaves the contract without owner. It will not be possible to call `onlyOwner` functions anymore. Can only be called by the current owner. NOTE: Renouncing ownership will leave the contract without an owner, thereby removing any functionality that is only available to the owner."
      },
      "safeTransferFrom(address,address,uint256)": {
        "details": "See {IERC721-safeTransferFrom}."
      },
      "safeTransferFrom(address,address,uint256,bytes)": {
        "details": "See {IERC721-safeTransferFrom}."
      },
      "setApprovalForAll(address,bool)": {
        "details": "See {IERC721-setApprovalForAll}."
      },
      "symbol()": {
        "details": "See {IERC721Metadata-symbol}."
      },
      "tokenByIndex(uint256)": {
        "details": "See {IERC721Enumerable-tokenByIndex}."
      },
      "tokenOfOwnerByIndex(address,uint256)": {
        "details": "See {IERC721Enumerable-tokenOfOwnerByIndex}."
      },
      "tokenURI(uint256)": {
        "details": "See {IERC721Metadata-tokenURI}."
      },
      "totalSupply()": {
        "details": "See {IERC721Enumerable-totalSupply}."
      },
      "transferFrom(address,address,uint256)": {
        "details": "See {IERC721-transferFrom}."
      },
      "transferOwnership(address)": {
        "details": "Transfers ownership of the contract to a new account (`newOwner`). Can only be called by the current owner."
      }
    },
    "version": 1
  },
  "userdoc": {
    "kind": "user",
    "methods": {},
    "version": 1
  }
}