{
  "contractName": "Payment",
  "abi": [
    {
      "inputs": [],
      "stateMutability": "nonpayable",
      "type": "constructor"
    },
    {
      "anonymous": false,
      "inputs": [
        {
          "indexed": false,
          "internalType": "string",
          "name": "message",
          "type": "string"
        }
      ],
      "name": "LogMessage",
      "type": "event"
    },
    {
      "anonymous": false,
      "inputs": [
        {
          "indexed": false,
          "internalType": "address",
          "name": "_to",
          "type": "address"
        },
        {
          "indexed": false,
          "internalType": "address",
          "name": "_from",
          "type": "address"
        },
        {
          "indexed": false,
          "internalType": "uint256",
          "name": "amt",
          "type": "uint256"
        }
      ],
      "name": "Pay",
      "type": "event"
    },
    {
      "anonymous": false,
      "inputs": [
        {
          "indexed": false,
          "internalType": "address payable",
          "name": "_destinoTransferencia",
          "type": "address"
        },
        {
          "indexed": false,
          "internalType": "address payable",
          "name": "_origenTransferencia",
          "type": "address"
        },
        {
          "indexed": false,
          "internalType": "uint256",
          "name": "montoTransferencia",
          "type": "uint256"
        }
      ],
      "name": "TransferirMonto",
      "type": "event"
    },
    {
      "inputs": [
        {
          "internalType": "address payable",
          "name": "_destinoTransferencia",
          "type": "address"
        }
      ],
      "name": "nuevaTransaccion",
      "outputs": [
        {
          "internalType": "bool",
          "name": "",
          "type": "bool"
        }
      ],
      "stateMutability": "payable",
      "type": "function"
    },
    {
      "inputs": [],
      "name": "verBalanceCuenta",
      "outputs": [
        {
          "internalType": "uint256",
          "name": "",
          "type": "uint256"
        }
      ],
      "stateMutability": "pure",
      "type": "function"
    },
    {
      "inputs": [],
      "name": "getAll",
      "outputs": [
        {
          "internalType": "uint256",
          "name": "",
          "type": "uint256"
        }
      ],
      "stateMutability": "pure",
      "type": "function"
    },
    {
      "inputs": [
        {
          "internalType": "address payable",
          "name": "_to",
          "type": "address"
        }
      ],
      "name": "pay",
      "outputs": [
        {
          "internalType": "bool",
          "name": "",
          "type": "bool"
        }
      ],
      "stateMutability": "payable",
      "type": "function"
    },
    {
      "inputs": [],
      "name": "isRetailer",
      "outputs": [
        {
          "internalType": "bool",
          "name": "",
          "type": "bool"
        }
      ],
      "stateMutability": "view",
      "type": "function"
    },
    {
      "inputs": [],
      "name": "isUser",
      "outputs": [
        {
          "internalType": "bool",
          "name": "",
          "type": "bool"
        }
      ],
      "stateMutability": "view",
      "type": "function"
    },
    {
      "inputs": [
        {
          "internalType": "string",
          "name": "message",
          "type": "string"
        }
      ],
      "name": "print",
      "outputs": [],
      "stateMutability": "nonpayable",
      "type": "function"
    },
    {
      "inputs": [
        {
          "internalType": "uint256",
          "name": "itemId",
          "type": "uint256"
        }
      ],
      "name": "getItemById",
      "outputs": [
        {
          "components": [
            {
              "internalType": "uint256",
              "name": "itemId",
              "type": "uint256"
            },
            {
              "internalType": "string",
              "name": "itemName",
              "type": "string"
            },
            {
              "internalType": "uint256",
              "name": "categoryId",
              "type": "uint256"
            },
            {
              "internalType": "uint256",
              "name": "itemPrice",
              "type": "uint256"
            },
            {
              "internalType": "uint256",
              "name": "quantity",
              "type": "uint256"
            },
            {
              "internalType": "uint256",
              "name": "pricePerQuantity",
              "type": "uint256"
            },
            {
              "internalType": "address payable",
              "name": "sellerId",
              "type": "address"
            }
          ],
          "internalType": "struct Payment.ItemStruct",
          "name": "",
          "type": "tuple"
        }
      ],
      "stateMutability": "view",
      "type": "function"
    },
    {
      "inputs": [],
      "name": "getAllItems",
      "outputs": [
        {
          "components": [
            {
              "internalType": "uint256",
              "name": "itemId",
              "type": "uint256"
            },
            {
              "internalType": "string",
              "name": "itemName",
              "type": "string"
            },
            {
              "internalType": "uint256",
              "name": "categoryId",
              "type": "uint256"
            },
            {
              "internalType": "uint256",
              "name": "itemPrice",
              "type": "uint256"
            },
            {
              "internalType": "uint256",
              "name": "quantity",
              "type": "uint256"
            },
            {
              "internalType": "uint256",
              "name": "pricePerQuantity",
              "type": "uint256"
            },
            {
              "internalType": "address payable",
              "name": "sellerId",
              "type": "address"
            }
          ],
          "internalType": "struct Payment.ItemStruct[]",
          "name": "",
          "type": "tuple[]"
        }
      ],
      "stateMutability": "view",
      "type": "function"
    },
    {
      "inputs": [
        {
          "internalType": "address",
          "name": "userId",
          "type": "address"
        },
        {
          "internalType": "string",
          "name": "name",
          "type": "string"
        },
        {
          "internalType": "string",
          "name": "homeAddr",
          "type": "string"
        }
      ],
      "name": "addUser",
      "outputs": [],
      "stateMutability": "nonpayable",
      "type": "function"
    },
    {
      "inputs": [],
      "name": "getAllUsers",
      "outputs": [
        {
          "components": [
            {
              "internalType": "address",
              "name": "userId",
              "type": "address"
            },
            {
              "internalType": "string",
              "name": "userName",
              "type": "string"
            },
            {
              "internalType": "string",
              "name": "homeAddress",
              "type": "string"
            }
          ],
          "internalType": "struct Payment.UserStruct[]",
          "name": "",
          "type": "tuple[]"
        }
      ],
      "stateMutability": "view",
      "type": "function"
    },
    {
      "inputs": [
        {
          "internalType": "address",
          "name": "userId",
          "type": "address"
        }
      ],
      "name": "getUserById",
      "outputs": [
        {
          "components": [
            {
              "internalType": "address",
              "name": "userId",
              "type": "address"
            },
            {
              "internalType": "string",
              "name": "userName",
              "type": "string"
            },
            {
              "internalType": "string",
              "name": "homeAddress",
              "type": "string"
            }
          ],
          "internalType": "struct Payment.UserStruct",
          "name": "",
          "type": "tuple"
        }
      ],
      "stateMutability": "view",
      "type": "function"
    },
    {
      "inputs": [
        {
          "internalType": "address",
          "name": "userId",
          "type": "address"
        },
        {
          "internalType": "uint256",
          "name": "itemId",
          "type": "uint256"
        },
        {
          "internalType": "string",
          "name": "name",
          "type": "string"
        },
        {
          "internalType": "uint256",
          "name": "catId",
          "type": "uint256"
        },
        {
          "internalType": "uint256",
          "name": "price",
          "type": "uint256"
        },
        {
          "internalType": "uint256",
          "name": "quantity",
          "type": "uint256"
        },
        {
          "internalType": "address payable",
          "name": "sellerId",
          "type": "address"
        }
      ],
      "name": "addItemToCart",
      "outputs": [],
      "stateMutability": "nonpayable",
      "type": "function"
    },
    {
      "inputs": [
        {
          "internalType": "address",
          "name": "userId",
          "type": "address"
        }
      ],
      "name": "viewCart",
      "outputs": [
        {
          "components": [
            {
              "internalType": "uint256",
              "name": "itemId",
              "type": "uint256"
            },
            {
              "internalType": "string",
              "name": "itemName",
              "type": "string"
            },
            {
              "internalType": "uint256",
              "name": "categoryId",
              "type": "uint256"
            },
            {
              "internalType": "uint256",
              "name": "itemPrice",
              "type": "uint256"
            },
            {
              "internalType": "uint256",
              "name": "quantity",
              "type": "uint256"
            },
            {
              "internalType": "uint256",
              "name": "pricePerQuantity",
              "type": "uint256"
            },
            {
              "internalType": "address payable",
              "name": "sellerId",
              "type": "address"
            }
          ],
          "internalType": "struct Payment.ItemStruct[]",
          "name": "",
          "type": "tuple[]"
        }
      ],
      "stateMutability": "view",
      "type": "function"
    },
    {
      "inputs": [
        {
          "internalType": "address",
          "name": "userId",
          "type": "address"
        },
        {
          "internalType": "uint256",
          "name": "itemId",
          "type": "uint256"
        },
        {
          "internalType": "uint256",
          "name": "newQuant",
          "type": "uint256"
        }
      ],
      "name": "updateCart",
      "outputs": [],
      "stateMutability": "nonpayable",
      "type": "function"
    },
    {
      "inputs": [
        {
          "internalType": "address",
          "name": "userId",
          "type": "address"
        },
        {
          "internalType": "uint256",
          "name": "itemId",
          "type": "uint256"
        }
      ],
      "name": "removeItemFromCart",
      "outputs": [
        {
          "components": [
            {
              "internalType": "uint256",
              "name": "itemId",
              "type": "uint256"
            },
            {
              "internalType": "string",
              "name": "itemName",
              "type": "string"
            },
            {
              "internalType": "uint256",
              "name": "categoryId",
              "type": "uint256"
            },
            {
              "internalType": "uint256",
              "name": "itemPrice",
              "type": "uint256"
            },
            {
              "internalType": "uint256",
              "name": "quantity",
              "type": "uint256"
            },
            {
              "internalType": "uint256",
              "name": "pricePerQuantity",
              "type": "uint256"
            },
            {
              "internalType": "address payable",
              "name": "sellerId",
              "type": "address"
            }
          ],
          "internalType": "struct Payment.ItemStruct[]",
          "name": "",
          "type": "tuple[]"
        }
      ],
      "stateMutability": "nonpayable",
      "type": "function"
    },
    {
      "inputs": [
        {
          "internalType": "address",
          "name": "retailerId",
          "type": "address"
        },
        {
          "internalType": "string",
          "name": "name",
          "type": "string"
        },
        {
          "internalType": "string",
          "name": "homeAddr",
          "type": "string"
        }
      ],
      "name": "addRetailer",
      "outputs": [],
      "stateMutability": "nonpayable",
      "type": "function"
    },
    {
      "inputs": [
        {
          "internalType": "address",
          "name": "retId",
          "type": "address"
        }
      ],
      "name": "getRetailerById",
      "outputs": [
        {
          "components": [
            {
              "internalType": "address",
              "name": "retailerId",
              "type": "address"
            },
            {
              "internalType": "string",
              "name": "retailerName",
              "type": "string"
            },
            {
              "internalType": "string",
              "name": "homeAddress",
              "type": "string"
            }
          ],
          "internalType": "struct Payment.RetailerStruct",
          "name": "",
          "type": "tuple"
        }
      ],
      "stateMutability": "view",
      "type": "function"
    },
    {
      "inputs": [],
      "name": "getAllRetailer",
      "outputs": [
        {
          "components": [
            {
              "internalType": "address",
              "name": "retailerId",
              "type": "address"
            },
            {
              "internalType": "string",
              "name": "retailerName",
              "type": "string"
            },
            {
              "internalType": "string",
              "name": "homeAddress",
              "type": "string"
            }
          ],
          "internalType": "struct Payment.RetailerStruct[]",
          "name": "",
          "type": "tuple[]"
        }
      ],
      "stateMutability": "view",
      "type": "function"
    },
    {
      "inputs": [
        {
          "internalType": "string",
          "name": "name",
          "type": "string"
        },
        {
          "internalType": "uint256",
          "name": "catId",
          "type": "uint256"
        },
        {
          "internalType": "uint256",
          "name": "price",
          "type": "uint256"
        },
        {
          "internalType": "uint256",
          "name": "quantity",
          "type": "uint256"
        },
        {
          "internalType": "address payable",
          "name": "sellerId",
          "type": "address"
        },
        {
          "internalType": "uint256",
          "name": "itemId",
          "type": "uint256"
        }
      ],
      "name": "addnewItemToInvt",
      "outputs": [],
      "stateMutability": "nonpayable",
      "type": "function"
    },
    {
      "inputs": [
        {
          "internalType": "address",
          "name": "sellerId",
          "type": "address"
        }
      ],
      "name": "viewInventory",
      "outputs": [
        {
          "components": [
            {
              "internalType": "uint256",
              "name": "itemId",
              "type": "uint256"
            },
            {
              "internalType": "string",
              "name": "itemName",
              "type": "string"
            },
            {
              "internalType": "uint256",
              "name": "categoryId",
              "type": "uint256"
            },
            {
              "internalType": "uint256",
              "name": "itemPrice",
              "type": "uint256"
            },
            {
              "internalType": "uint256",
              "name": "quantity",
              "type": "uint256"
            },
            {
              "internalType": "uint256",
              "name": "pricePerQuantity",
              "type": "uint256"
            },
            {
              "internalType": "address payable",
              "name": "sellerId",
              "type": "address"
            }
          ],
          "internalType": "struct Payment.ItemStruct[]",
          "name": "",
          "type": "tuple[]"
        }
      ],
      "stateMutability": "view",
      "type": "function"
    },
    {
      "inputs": [
        {
          "internalType": "uint256",
          "name": "itemId",
          "type": "uint256"
        },
        {
          "internalType": "uint256",
          "name": "newQuant",
          "type": "uint256"
        },
        {
          "internalType": "address",
          "name": "sellerId",
          "type": "address"
        }
      ],
      "name": "UpdateInventory",
      "outputs": [],
      "stateMutability": "nonpayable",
      "type": "function"
    },
    {
      "inputs": [
        {
          "internalType": "address",
          "name": "retailerId",
          "type": "address"
        },
        {
          "internalType": "uint256",
          "name": "itemId",
          "type": "uint256"
        }
      ],
      "name": "removeItemInventory",
      "outputs": [],
      "stateMutability": "nonpayable",
      "type": "function"
    },
    {
      "inputs": [
        {
          "internalType": "address",
          "name": "userId",
          "type": "address"
        }
      ],
      "name": "viewOrdersByUserId",
      "outputs": [
        {
          "components": [
            {
              "internalType": "uint256",
              "name": "itemId",
              "type": "uint256"
            },
            {
              "internalType": "string",
              "name": "itemName",
              "type": "string"
            },
            {
              "internalType": "uint256",
              "name": "categoryId",
              "type": "uint256"
            },
            {
              "internalType": "uint256",
              "name": "itemPrice",
              "type": "uint256"
            },
            {
              "internalType": "uint256",
              "name": "quantity",
              "type": "uint256"
            },
            {
              "internalType": "uint256",
              "name": "pricePerQuantity",
              "type": "uint256"
            },
            {
              "internalType": "address payable",
              "name": "sellerId",
              "type": "address"
            }
          ],
          "internalType": "struct Payment.ItemStruct[]",
          "name": "",
          "type": "tuple[]"
        }
      ],
      "stateMutability": "view",
      "type": "function"
    },
    {
      "inputs": [
        {
          "internalType": "address",
          "name": "userId",
          "type": "address"
        }
      ],
      "name": "placeOrder",
      "outputs": [],
      "stateMutability": "payable",
      "type": "function"
    }
  ],
  "bytecode": "0x60806040526000600c5534801561001557600080fd5b5033600260006101000a81548173ffffffffffffffffffffffffffffffffffffffff021916908373ffffffffffffffffffffffffffffffffffffffff160217905550614df2806100666000396000f3fe6080604052600436106101665760003560e01c806382538155116100d1578063d7554a681161008a578063e2842d7911610064578063e2842d7914610525578063e719afe714610550578063ec1c5c331461058d578063ed6e12fa146105ca57610166565b8063d7554a68146104a3578063dff3e63d146104cc578063e005f920146104f557610166565b806382538155146103925780638325414b146103bb578063857ddb04146103e4578063a99c7a391461040d578063b10c784a1461044a578063cd2f07101461046657610166565b80634ba1d6aa116101235780634ba1d6aa146102945780634c22c119146102bf57806353ed5143146102ea5780635d28dc011461031557806368835c441461033e57806372e713ac1461036757610166565b8063099e00f31461016b5780630c11dedd146101a857806311114af1146101d857806313f8befc146102015780632301ab1e1461022c578063477ba64514610269575b600080fd5b34801561017757600080fd5b50610192600480360381019061018d9190613e01565b610607565b60405161019f9190614829565b60405180910390f35b6101c260048036038101906101bd9190613e2e565b6107e0565b6040516101cf91906147aa565b60405180910390f35b3480156101e457600080fd5b506101ff60048036038101906101fa9190614037565b610914565b005b34801561020d57600080fd5b5061021661094e565b6040516102239190614766565b60405180910390f35b34801561023857600080fd5b50610253600480360381019061024e9190613e01565b610bff565b604051610260919061484b565b60405180910390f35b34801561027557600080fd5b5061027e610dd8565b60405161028b91906147aa565b60405180910390f35b3480156102a057600080fd5b506102a9610e81565b6040516102b69190614744565b60405180910390f35b3480156102cb57600080fd5b506102d4611086565b6040516102e191906147aa565b60405180910390f35b3480156102f657600080fd5b506102ff61112f565b60405161030c919061486d565b60405180910390f35b34801561032157600080fd5b5061033c60048036038101906103379190613f26565b611139565b005b34801561034a57600080fd5b5061036560048036038101906103609190614080565b61129c565b005b34801561037357600080fd5b5061037c611563565b604051610389919061486d565b60405180910390f35b34801561039e57600080fd5b506103b960048036038101906103b49190613fe4565b61156d565b005b3480156103c757600080fd5b506103e260048036038101906103dd9190613ee6565b6116d6565b005b3480156103f057600080fd5b5061040b60048036038101906104069190613e5b565b611b71565b005b34801561041957600080fd5b50610434600480360381019061042f9190613ee6565b611d5f565b6040516104419190614744565b60405180910390f35b610464600480360381019061045f9190613e01565b612470565b005b34801561047257600080fd5b5061048d60048036038101906104889190614129565b612bdb565b60405161049a9190614807565b60405180910390f35b3480156104af57600080fd5b506104ca60048036038101906104c59190613e5b565b612d28565b005b3480156104d857600080fd5b506104f360048036038101906104ee9190614156565b612f16565b005b61050f600480360381019061050a9190613e2e565b61307f565b60405161051c91906147aa565b60405180910390f35b34801561053157600080fd5b5061053a6131ae565b6040516105479190614788565b60405180910390f35b34801561055c57600080fd5b5061057760048036038101906105729190613e01565b61345f565b6040516105849190614744565b60405180910390f35b34801561059957600080fd5b506105b460048036038101906105af9190613e01565b613617565b6040516105c19190614744565b60405180910390f35b3480156105d657600080fd5b506105f160048036038101906105ec9190613e01565b6137e2565b6040516105fe9190614744565b60405180910390f35b61060f61399a565b6000600960008473ffffffffffffffffffffffffffffffffffffffff1673ffffffffffffffffffffffffffffffffffffffff1681526020019081526020016000206040518060600160405290816000820160009054906101000a900473ffffffffffffffffffffffffffffffffffffffff1673ffffffffffffffffffffffffffffffffffffffff1673ffffffffffffffffffffffffffffffffffffffff1681526020016001820180546106c190614b6c565b80601f01602080910402602001604051908101604052809291908181526020018280546106ed90614b6c565b801561073a5780601f1061070f5761010080835404028352916020019161073a565b820191906000526020600020905b81548152906001019060200180831161071d57829003601f168201915b5050505050815260200160028201805461075390614b6c565b80601f016020809104026020016040519081016040528092919081815260200182805461077f90614b6c565b80156107cc5780601f106107a1576101008083540402835291602001916107cc565b820191906000526020600020905b8154815290600101906020018083116107af57829003601f168201915b505050505081525050905080915050919050565b600081600360006101000a81548173ffffffffffffffffffffffffffffffffffffffff021916908373ffffffffffffffffffffffffffffffffffffffff160217905550600360009054906101000a900473ffffffffffffffffffffffffffffffffffffffff1673ffffffffffffffffffffffffffffffffffffffff166108fc349081150290604051600060405180830381858888f1935050505015801561088b573d6000803e3d6000fd5b507f288d9a5737d39d766acb848da277a970d9ee31f9115e17490b9393e282fa7b4d600360009054906101000a900473ffffffffffffffffffffffffffffffffffffffff16600260009054906101000a900473ffffffffffffffffffffffffffffffffffffffff16346040516109039392919061470d565b60405180910390a160019050919050565b7f96561394bac381230de4649200e8831afcab1f451881bbade9ef209f6dd304808160405161094391906147c5565b60405180910390a150565b60606000600a80549050905060008167ffffffffffffffff81111561097657610975614cd4565b5b6040519080825280602002602001820160405280156109af57816020015b61099c61399a565b8152602001906001900390816109945790505b50905060005b82811015610bf6576000600a82815481106109d3576109d2614ca5565b5b9060005260206000200160009054906101000a900473ffffffffffffffffffffffffffffffffffffffff169050600960008273ffffffffffffffffffffffffffffffffffffffff1673ffffffffffffffffffffffffffffffffffffffff1681526020019081526020016000206040518060600160405290816000820160009054906101000a900473ffffffffffffffffffffffffffffffffffffffff1673ffffffffffffffffffffffffffffffffffffffff1673ffffffffffffffffffffffffffffffffffffffff168152602001600182018054610ab090614b6c565b80601f0160208091040260200160405190810160405280929190818152602001828054610adc90614b6c565b8015610b295780601f10610afe57610100808354040283529160200191610b29565b820191906000526020600020905b815481529060010190602001808311610b0c57829003601f168201915b50505050508152602001600282018054610b4290614b6c565b80601f0160208091040260200160405190810160405280929190818152602001828054610b6e90614b6c565b8015610bbb5780601f10610b9057610100808354040283529160200191610bbb565b820191906000526020600020905b815481529060010190602001808311610b9e57829003601f168201915b505050505081525050838381518110610bd757610bd6614ca5565b5b6020026020010181905250508080610bee90614bcf565b9150506109b5565b50809250505090565b610c076139d1565b6000600660008473ffffffffffffffffffffffffffffffffffffffff1673ffffffffffffffffffffffffffffffffffffffff1681526020019081526020016000206040518060600160405290816000820160009054906101000a900473ffffffffffffffffffffffffffffffffffffffff1673ffffffffffffffffffffffffffffffffffffffff1673ffffffffffffffffffffffffffffffffffffffff168152602001600182018054610cb990614b6c565b80601f0160208091040260200160405190810160405280929190818152602001828054610ce590614b6c565b8015610d325780601f10610d0757610100808354040283529160200191610d32565b820191906000526020600020905b815481529060010190602001808311610d1557829003601f168201915b50505050508152602001600282018054610d4b90614b6c565b80601f0160208091040260200160405190810160405280929190818152602001828054610d7790614b6c565b8015610dc45780601f10610d9957610100808354040283529160200191610dc4565b820191906000526020600020905b815481529060010190602001808311610da757829003601f168201915b505050505081525050905080915050919050565b600080600090505b600a80549050811015610e7c57600a8181548110610e0157610e00614ca5565b5b9060005260206000200160009054906101000a900473ffffffffffffffffffffffffffffffffffffffff1673ffffffffffffffffffffffffffffffffffffffff163373ffffffffffffffffffffffffffffffffffffffff161415610e69576001915050610e7e565b8080610e7490614bcf565b915050610de0565b505b90565b60606000600580549050905060008167ffffffffffffffff811115610ea957610ea8614cd4565b5b604051908082528060200260200182016040528015610ee257816020015b610ecf613a08565b815260200190600190039081610ec75790505b50905060005b8281101561107d57600060058281548110610f0657610f05614ca5565b5b90600052602060002001549050600460008281526020019081526020016000206040518060e001604052908160008201548152602001600182018054610f4b90614b6c565b80601f0160208091040260200160405190810160405280929190818152602001828054610f7790614b6c565b8015610fc45780601f10610f9957610100808354040283529160200191610fc4565b820191906000526020600020905b815481529060010190602001808311610fa757829003601f168201915b50505050508152602001600282015481526020016003820154815260200160048201548152602001600582015481526020016006820160009054906101000a900473ffffffffffffffffffffffffffffffffffffffff1673ffffffffffffffffffffffffffffffffffffffff1673ffffffffffffffffffffffffffffffffffffffff168152505083838151811061105e5761105d614ca5565b5b602002602001018190525050808061107590614bcf565b915050610ee8565b50809250505090565b600080600090505b60088054905081101561112a57600881815481106110af576110ae614ca5565b5b9060005260206000200160009054906101000a900473ffffffffffffffffffffffffffffffffffffffff1673ffffffffffffffffffffffffffffffffffffffff163373ffffffffffffffffffffffffffffffffffffffff16141561111757600191505061112c565b808061112290614bcf565b91505061108e565b505b90565b60006103e8905090565b60006040518060e0016040528088815260200187815260200186815260200185815260200184815260200184866111709190614a0c565b81526020018373ffffffffffffffffffffffffffffffffffffffff168152509050600760008973ffffffffffffffffffffffffffffffffffffffff1673ffffffffffffffffffffffffffffffffffffffff168152602001908152602001600020819080600181540180825580915050600190039060005260206000209060070201600090919091909150600082015181600001556020820151816001019080519060200190611220929190613a5b565b5060408201518160020155606082015181600301556080820151816004015560a0820151816005015560c08201518160060160006101000a81548173ffffffffffffffffffffffffffffffffffffffff021916908373ffffffffffffffffffffffffffffffffffffffff16021790555050505050505050505050565b60005b6005805490508110156113295781600582815481106112c1576112c0614ca5565b5b90600052602060002001541415611316576113106040518060400160405280601081526020017f74727920646966666572656e7420494400000000000000000000000000000000815250610914565b5061155b565b808061132190614bcf565b91505061129f565b5060006040518060e0016040528083815260200188815260200187815260200186815260200185815260200185876113619190614a0c565b81526020018473ffffffffffffffffffffffffffffffffffffffff168152509050600b60008473ffffffffffffffffffffffffffffffffffffffff1673ffffffffffffffffffffffffffffffffffffffff168152602001908152602001600020819080600181540180825580915050600190039060005260206000209060070201600090919091909150600082015181600001556020820151816001019080519060200190611411929190613a5b565b5060408201518160020155606082015181600301556080820151816004015560a0820151816005015560c08201518160060160006101000a81548173ffffffffffffffffffffffffffffffffffffffff021916908373ffffffffffffffffffffffffffffffffffffffff160217905550505080600460008481526020019081526020016000206000820151816000015560208201518160010190805190602001906114bd929190613a5b565b5060408201518160020155606082015181600301556080820151816004015560a0820151816005015560c08201518160060160006101000a81548173ffffffffffffffffffffffffffffffffffffffff021916908373ffffffffffffffffffffffffffffffffffffffff1602179055509050506005829080600181540180825580915050600190039060005260206000200160009091909190915055505b505050505050565b60006103e8905090565b6000805b600760008673ffffffffffffffffffffffffffffffffffffffff1673ffffffffffffffffffffffffffffffffffffffff168152602001908152602001600020805490508110156116a857600760008673ffffffffffffffffffffffffffffffffffffffff1673ffffffffffffffffffffffffffffffffffffffff168152602001908152602001600020818154811061160c5761160b614ca5565b5b906000526020600020906007020160000154841415611695576001915082600760008773ffffffffffffffffffffffffffffffffffffffff1673ffffffffffffffffffffffffffffffffffffffff168152602001908152602001600020828154811061167b5761167a614ca5565b5b9060005260206000209060070201600401819055506116a8565b80806116a090614bcf565b915050611571565b50806116d0576116cf604051806060016040528060268152602001614d9760269139610914565b5b50505050565b60008060005b600b60008673ffffffffffffffffffffffffffffffffffffffff1673ffffffffffffffffffffffffffffffffffffffff168152602001908152602001600020805490508110156117af57600b60008673ffffffffffffffffffffffffffffffffffffffff1673ffffffffffffffffffffffffffffffffffffffff168152602001908152602001600020818154811061177757611776614ca5565b5b90600052602060002090600702016000015484141561179c57600191508092506117af565b80806117a790614bcf565b9150506116dc565b508015611a745760008290505b6001600b60008773ffffffffffffffffffffffffffffffffffffffff1673ffffffffffffffffffffffffffffffffffffffff1681526020019081526020016000208054905061180b9190614a66565b8110156119ab57600b60008673ffffffffffffffffffffffffffffffffffffffff1673ffffffffffffffffffffffffffffffffffffffff16815260200190815260200160002060018261185e91906149b6565b8154811061186f5761186e614ca5565b5b9060005260206000209060070201600b60008773ffffffffffffffffffffffffffffffffffffffff1673ffffffffffffffffffffffffffffffffffffffff16815260200190815260200160002082815481106118ce576118cd614ca5565b5b90600052602060002090600702016000820154816000015560018201816001019080546118fa90614b6c565b611905929190613ae1565b50600282015481600201556003820154816003015560048201548160040155600582015481600501556006820160009054906101000a900473ffffffffffffffffffffffffffffffffffffffff168160060160006101000a81548173ffffffffffffffffffffffffffffffffffffffff021916908373ffffffffffffffffffffffffffffffffffffffff16021790555090505080806119a390614bcf565b9150506117bc565b600b60008673ffffffffffffffffffffffffffffffffffffffff1673ffffffffffffffffffffffffffffffffffffffff1681526020019081526020016000208054806119fa576119f9614c76565b5b6001900381819060005260206000209060070201600080820160009055600182016000611a279190613b6e565b60028201600090556003820160009055600482016000905560058201600090556006820160006101000a81549073ffffffffffffffffffffffffffffffffffffffff021916905550509055505b60005b600580549050811015611b6a578360058281548110611a9957611a98614ca5565b5b90600052602060002001541415611b575760008190505b6001600580549050611ac29190614a66565b811015611b29576005600182611ad891906149b6565b81548110611ae957611ae8614ca5565b5b906000526020600020015460058281548110611b0857611b07614ca5565b5b90600052602060002001819055508080611b2190614bcf565b915050611ab0565b506005805480611b3c57611b3b614c76565b5b60019003818190600052602060002001600090559055611b6a565b8080611b6290614bcf565b915050611a77565b5050505050565b6000600960008573ffffffffffffffffffffffffffffffffffffffff1673ffffffffffffffffffffffffffffffffffffffff1681526020019081526020016000206001018054611bc090614b6c565b90501115611c03576040517f08c379a0000000000000000000000000000000000000000000000000000000008152600401611bfa906147e7565b60405180910390fd5b60405180606001604052808473ffffffffffffffffffffffffffffffffffffffff16815260200183815260200182815250600960008573ffffffffffffffffffffffffffffffffffffffff1673ffffffffffffffffffffffffffffffffffffffff16815260200190815260200160002060008201518160000160006101000a81548173ffffffffffffffffffffffffffffffffffffffff021916908373ffffffffffffffffffffffffffffffffffffffff1602179055506020820151816001019080519060200190611cd6929190613a5b565b506040820151816002019080519060200190611cf3929190613a5b565b50905050600a839080600181540180825580915050600190039060005260206000200160009091909190916101000a81548173ffffffffffffffffffffffffffffffffffffffff021916908373ffffffffffffffffffffffffffffffffffffffff160217905550505050565b606060008060005b600760008773ffffffffffffffffffffffffffffffffffffffff1673ffffffffffffffffffffffffffffffffffffffff16815260200190815260200160002080549050811015611e3a57600760008773ffffffffffffffffffffffffffffffffffffffff1673ffffffffffffffffffffffffffffffffffffffff1681526020019081526020016000208181548110611e0257611e01614ca5565b5b906000526020600020906007020160000154851415611e275760019150809250611e3a565b8080611e3290614bcf565b915050611d67565b5080156122b65760008290505b6001600760008873ffffffffffffffffffffffffffffffffffffffff1673ffffffffffffffffffffffffffffffffffffffff16815260200190815260200160002080549050611e969190614a66565b81101561203657600760008773ffffffffffffffffffffffffffffffffffffffff1673ffffffffffffffffffffffffffffffffffffffff168152602001908152602001600020600182611ee991906149b6565b81548110611efa57611ef9614ca5565b5b9060005260206000209060070201600760008873ffffffffffffffffffffffffffffffffffffffff1673ffffffffffffffffffffffffffffffffffffffff1681526020019081526020016000208281548110611f5957611f58614ca5565b5b9060005260206000209060070201600082015481600001556001820181600101908054611f8590614b6c565b611f90929190613ae1565b50600282015481600201556003820154816003015560048201548160040155600582015481600501556006820160009054906101000a900473ffffffffffffffffffffffffffffffffffffffff168160060160006101000a81548173ffffffffffffffffffffffffffffffffffffffff021916908373ffffffffffffffffffffffffffffffffffffffff160217905550905050808061202e90614bcf565b915050611e47565b600760008773ffffffffffffffffffffffffffffffffffffffff1673ffffffffffffffffffffffffffffffffffffffff16815260200190815260200160002080548061208557612084614c76565b5b60019003818190600052602060002090600702016000808201600090556001820160006120b29190613b6e565b60028201600090556003820160009055600482016000905560058201600090556006820160006101000a81549073ffffffffffffffffffffffffffffffffffffffff021916905550509055600760008773ffffffffffffffffffffffffffffffffffffffff1673ffffffffffffffffffffffffffffffffffffffff168152602001908152602001600020805480602002602001604051908101604052809291908181526020016000905b828210156122a857838290600052602060002090600702016040518060e00160405290816000820154815260200160018201805461219990614b6c565b80601f01602080910402602001604051908101604052809291908181526020018280546121c590614b6c565b80156122125780601f106121e757610100808354040283529160200191612212565b820191906000526020600020905b8154815290600101906020018083116121f557829003601f168201915b50505050508152602001600282015481526020016003820154815260200160048201548152602001600582015481526020016006820160009054906101000a900473ffffffffffffffffffffffffffffffffffffffff1673ffffffffffffffffffffffffffffffffffffffff1673ffffffffffffffffffffffffffffffffffffffff16815250508152602001906001019061215c565b50505050935050505061246a565b600760008673ffffffffffffffffffffffffffffffffffffffff1673ffffffffffffffffffffffffffffffffffffffff168152602001908152602001600020805480602002602001604051908101604052809291908181526020016000905b8282101561246157838290600052602060002090600702016040518060e00160405290816000820154815260200160018201805461235290614b6c565b80601f016020809104026020016040519081016040528092919081815260200182805461237e90614b6c565b80156123cb5780601f106123a0576101008083540402835291602001916123cb565b820191906000526020600020905b8154815290600101906020018083116123ae57829003601f168201915b50505050508152602001600282015481526020016003820154815260200160048201548152602001600582015481526020016006820160009054906101000a900473ffffffffffffffffffffffffffffffffffffffff1673ffffffffffffffffffffffffffffffffffffffff1673ffffffffffffffffffffffffffffffffffffffff168152505081526020019060010190612315565b50505050925050505b92915050565b6000805b600760008473ffffffffffffffffffffffffffffffffffffffff1673ffffffffffffffffffffffffffffffffffffffff1681526020019081526020016000208054905081101561254157600760008473ffffffffffffffffffffffffffffffffffffffff1673ffffffffffffffffffffffffffffffffffffffff168152602001908152602001600020818154811061250f5761250e614ca5565b5b9060005260206000209060070201600501548261252c91906149b6565b9150808061253990614bcf565b915050612474565b50600760008373ffffffffffffffffffffffffffffffffffffffff1673ffffffffffffffffffffffffffffffffffffffff16815260200190815260200160002060008154811061259457612593614ca5565b5b906000526020600020906007020160060160009054906101000a900473ffffffffffffffffffffffffffffffffffffffff1673ffffffffffffffffffffffffffffffffffffffff166108fc829081150290604051600060405180830381858888f1935050505015801561260b573d6000803e3d6000fd5b50600c54600d60008473ffffffffffffffffffffffffffffffffffffffff1673ffffffffffffffffffffffffffffffffffffffff16815260200190815260200160002081905550600760008373ffffffffffffffffffffffffffffffffffffffff1673ffffffffffffffffffffffffffffffffffffffff168152602001908152602001600020600e6000600c5481526020019081526020016000209080546126b4929190613bae565b50600c60008154809291906126c890614bcf565b91905055506000805b600b6000600760008773ffffffffffffffffffffffffffffffffffffffff1673ffffffffffffffffffffffffffffffffffffffff16815260200190815260200160002060008154811061272757612726614ca5565b5b906000526020600020906007020160060160009054906101000a900473ffffffffffffffffffffffffffffffffffffffff1673ffffffffffffffffffffffffffffffffffffffff1673ffffffffffffffffffffffffffffffffffffffff16815260200190815260200160002080549050811015612abd575b600760008573ffffffffffffffffffffffffffffffffffffffff1673ffffffffffffffffffffffffffffffffffffffff16815260200190815260200160002080549050821015612aaa57600760008573ffffffffffffffffffffffffffffffffffffffff1673ffffffffffffffffffffffffffffffffffffffff168152602001908152602001600020828154811061283a57612839614ca5565b5b906000526020600020906007020160000154600b6000600760008873ffffffffffffffffffffffffffffffffffffffff1673ffffffffffffffffffffffffffffffffffffffff1681526020019081526020016000206000815481106128a2576128a1614ca5565b5b906000526020600020906007020160060160009054906101000a900473ffffffffffffffffffffffffffffffffffffffff1673ffffffffffffffffffffffffffffffffffffffff1673ffffffffffffffffffffffffffffffffffffffff16815260200190815260200160002082815481106129205761291f614ca5565b5b9060005260206000209060070201600001541415612aa557600760008573ffffffffffffffffffffffffffffffffffffffff1673ffffffffffffffffffffffffffffffffffffffff168152602001908152602001600020828154811061298957612988614ca5565b5b906000526020600020906007020160040154600b6000600760008873ffffffffffffffffffffffffffffffffffffffff1673ffffffffffffffffffffffffffffffffffffffff1681526020019081526020016000206000815481106129f1576129f0614ca5565b5b906000526020600020906007020160060160009054906101000a900473ffffffffffffffffffffffffffffffffffffffff1673ffffffffffffffffffffffffffffffffffffffff1673ffffffffffffffffffffffffffffffffffffffff1681526020019081526020016000208281548110612a6f57612a6e614ca5565b5b90600052602060002090600702016004016000828254612a8f9190614a66565b925050819055508180612aa190614bcf565b9250505b61279f565b8080612ab590614bcf565b9150506126d1565b505b6000600760008573ffffffffffffffffffffffffffffffffffffffff1673ffffffffffffffffffffffffffffffffffffffff168152602001908152602001600020805490501115612bd657600760008473ffffffffffffffffffffffffffffffffffffffff1673ffffffffffffffffffffffffffffffffffffffff168152602001908152602001600020805480612b5957612b58614c76565b5b6001900381819060005260206000209060070201600080820160009055600182016000612b869190613b6e565b60028201600090556003820160009055600482016000905560058201600090556006820160006101000a81549073ffffffffffffffffffffffffffffffffffffffff021916905550509055612abf565b505050565b612be3613a08565b6000600460008481526020019081526020016000206040518060e001604052908160008201548152602001600182018054612c1d90614b6c565b80601f0160208091040260200160405190810160405280929190818152602001828054612c4990614b6c565b8015612c965780601f10612c6b57610100808354040283529160200191612c96565b820191906000526020600020905b815481529060010190602001808311612c7957829003601f168201915b50505050508152602001600282015481526020016003820154815260200160048201548152602001600582015481526020016006820160009054906101000a900473ffffffffffffffffffffffffffffffffffffffff1673ffffffffffffffffffffffffffffffffffffffff1673ffffffffffffffffffffffffffffffffffffffff1681525050905080915050919050565b6000600660008573ffffffffffffffffffffffffffffffffffffffff1673ffffffffffffffffffffffffffffffffffffffff1681526020019081526020016000206001018054612d7790614b6c565b90501115612dba576040517f08c379a0000000000000000000000000000000000000000000000000000000008152600401612db1906147e7565b60405180910390fd5b60405180606001604052808473ffffffffffffffffffffffffffffffffffffffff16815260200183815260200182815250600660008573ffffffffffffffffffffffffffffffffffffffff1673ffffffffffffffffffffffffffffffffffffffff16815260200190815260200160002060008201518160000160006101000a81548173ffffffffffffffffffffffffffffffffffffffff021916908373ffffffffffffffffffffffffffffffffffffffff1602179055506020820151816001019080519060200190612e8d929190613a5b565b506040820151816002019080519060200190612eaa929190613a5b565b509050506008839080600181540180825580915050600190039060005260206000200160009091909190916101000a81548173ffffffffffffffffffffffffffffffffffffffff021916908373ffffffffffffffffffffffffffffffffffffffff160217905550505050565b6000805b600b60008473ffffffffffffffffffffffffffffffffffffffff1673ffffffffffffffffffffffffffffffffffffffff1681526020019081526020016000208054905081101561305157600b60008473ffffffffffffffffffffffffffffffffffffffff1673ffffffffffffffffffffffffffffffffffffffff1681526020019081526020016000208181548110612fb557612fb4614ca5565b5b90600052602060002090600702016000015485141561303e576001915083600b60008573ffffffffffffffffffffffffffffffffffffffff1673ffffffffffffffffffffffffffffffffffffffff168152602001908152602001600020828154811061302457613023614ca5565b5b906000526020600020906007020160040181905550613051565b808061304990614bcf565b915050612f1a565b508061307957613078604051806060016040528060268152602001614d9760269139610914565b5b50505050565b6000816000806101000a81548173ffffffffffffffffffffffffffffffffffffffff021916908373ffffffffffffffffffffffffffffffffffffffff16021790555060008054906101000a900473ffffffffffffffffffffffffffffffffffffffff1673ffffffffffffffffffffffffffffffffffffffff166108fc349081150290604051600060405180830381858888f19350505050158015613127573d6000803e3d6000fd5b507ffc1ff50638c53d8cb428005e102107cffd2da1840abf5289da2981b8e99c642060008054906101000a900473ffffffffffffffffffffffffffffffffffffffff16600260009054906101000a900473ffffffffffffffffffffffffffffffffffffffff163460405161319d939291906146d6565b60405180910390a160019050919050565b60606000600880549050905060008167ffffffffffffffff8111156131d6576131d5614cd4565b5b60405190808252806020026020018201604052801561320f57816020015b6131fc6139d1565b8152602001906001900390816131f45790505b50905060005b828110156134565760006008828154811061323357613232614ca5565b5b9060005260206000200160009054906101000a900473ffffffffffffffffffffffffffffffffffffffff169050600660008273ffffffffffffffffffffffffffffffffffffffff1673ffffffffffffffffffffffffffffffffffffffff1681526020019081526020016000206040518060600160405290816000820160009054906101000a900473ffffffffffffffffffffffffffffffffffffffff1673ffffffffffffffffffffffffffffffffffffffff1673ffffffffffffffffffffffffffffffffffffffff16815260200160018201805461331090614b6c565b80601f016020809104026020016040519081016040528092919081815260200182805461333c90614b6c565b80156133895780601f1061335e57610100808354040283529160200191613389565b820191906000526020600020905b81548152906001019060200180831161336c57829003601f168201915b505050505081526020016002820180546133a290614b6c565b80601f01602080910402602001604051908101604052809291908181526020018280546133ce90614b6c565b801561341b5780601f106133f05761010080835404028352916020019161341b565b820191906000526020600020905b8154815290600101906020018083116133fe57829003601f168201915b50505050508152505083838151811061343757613436614ca5565b5b602002602001018190525050808061344e90614bcf565b915050613215565b50809250505090565b6060600760008373ffffffffffffffffffffffffffffffffffffffff1673ffffffffffffffffffffffffffffffffffffffff168152602001908152602001600020805480602002602001604051908101604052809291908181526020016000905b8282101561360c57838290600052602060002090600702016040518060e0016040529081600082015481526020016001820180546134fd90614b6c565b80601f016020809104026020016040519081016040528092919081815260200182805461352990614b6c565b80156135765780601f1061354b57610100808354040283529160200191613576565b820191906000526020600020905b81548152906001019060200180831161355957829003601f168201915b50505050508152602001600282015481526020016003820154815260200160048201548152602001600582015481526020016006820160009054906101000a900473ffffffffffffffffffffffffffffffffffffffff1673ffffffffffffffffffffffffffffffffffffffff1673ffffffffffffffffffffffffffffffffffffffff1681525050815260200190600101906134c0565b505050509050919050565b6060600e6000600d60008573ffffffffffffffffffffffffffffffffffffffff1673ffffffffffffffffffffffffffffffffffffffff168152602001908152602001600020548152602001908152602001600020805480602002602001604051908101604052809291908181526020016000905b828210156137d757838290600052602060002090600702016040518060e0016040529081600082015481526020016001820180546136c890614b6c565b80601f01602080910402602001604051908101604052809291908181526020018280546136f490614b6c565b80156137415780601f1061371657610100808354040283529160200191613741565b820191906000526020600020905b81548152906001019060200180831161372457829003601f168201915b50505050508152602001600282015481526020016003820154815260200160048201548152602001600582015481526020016006820160009054906101000a900473ffffffffffffffffffffffffffffffffffffffff1673ffffffffffffffffffffffffffffffffffffffff1673ffffffffffffffffffffffffffffffffffffffff16815250508152602001906001019061368b565b505050509050919050565b6060600b60008373ffffffffffffffffffffffffffffffffffffffff1673ffffffffffffffffffffffffffffffffffffffff168152602001908152602001600020805480602002602001604051908101604052809291908181526020016000905b8282101561398f57838290600052602060002090600702016040518060e00160405290816000820154815260200160018201805461388090614b6c565b80601f01602080910402602001604051908101604052809291908181526020018280546138ac90614b6c565b80156138f95780601f106138ce576101008083540402835291602001916138f9565b820191906000526020600020905b8154815290600101906020018083116138dc57829003601f168201915b50505050508152602001600282015481526020016003820154815260200160048201548152602001600582015481526020016006820160009054906101000a900473ffffffffffffffffffffffffffffffffffffffff1673ffffffffffffffffffffffffffffffffffffffff1673ffffffffffffffffffffffffffffffffffffffff168152505081526020019060010190613843565b505050509050919050565b6040518060600160405280600073ffffffffffffffffffffffffffffffffffffffff16815260200160608152602001606081525090565b6040518060600160405280600073ffffffffffffffffffffffffffffffffffffffff16815260200160608152602001606081525090565b6040518060e00160405280600081526020016060815260200160008152602001600081526020016000815260200160008152602001600073ffffffffffffffffffffffffffffffffffffffff1681525090565b828054613a6790614b6c565b90600052602060002090601f016020900481019282613a895760008555613ad0565b82601f10613aa257805160ff1916838001178555613ad0565b82800160010185558215613ad0579182015b82811115613acf578251825591602001919060010190613ab4565b5b509050613add9190613cbf565b5090565b828054613aed90614b6c565b90600052602060002090601f016020900481019282613b0f5760008555613b5d565b82601f10613b205780548555613b5d565b82800160010185558215613b5d57600052602060002091601f016020900482015b82811115613b5c578254825591600101919060010190613b41565b5b509050613b6a9190613cbf565b5090565b508054613b7a90614b6c565b6000825580601f10613b8c5750613bab565b601f016020900490600052602060002090810190613baa9190613cbf565b5b50565b828054828255906000526020600020906007028101928215613cae5760005260206000209160070282015b82811115613cad578282600082015481600001556001820181600101908054613c0190614b6c565b613c0c929190613ae1565b50600282015481600201556003820154816003015560048201548160040155600582015481600501556006820160009054906101000a900473ffffffffffffffffffffffffffffffffffffffff168160060160006101000a81548173ffffffffffffffffffffffffffffffffffffffff021916908373ffffffffffffffffffffffffffffffffffffffff160217905550505091600701919060070190613bd9565b5b509050613cbb9190613cdc565b5090565b5b80821115613cd8576000816000905550600101613cc0565b5090565b5b80821115613d4e57600080820160009055600182016000613cfe9190613b6e565b60028201600090556003820160009055600482016000905560058201600090556006820160006101000a81549073ffffffffffffffffffffffffffffffffffffffff021916905550600701613cdd565b5090565b6000613d65613d60846148ad565b614888565b905082815260208101848484011115613d8157613d80614d08565b5b613d8c848285614b2a565b509392505050565b600081359050613da381614d51565b92915050565b600081359050613db881614d68565b92915050565b600082601f830112613dd357613dd2614d03565b5b8135613de3848260208601613d52565b91505092915050565b600081359050613dfb81614d7f565b92915050565b600060208284031215613e1757613e16614d12565b5b6000613e2584828501613d94565b91505092915050565b600060208284031215613e4457613e43614d12565b5b6000613e5284828501613da9565b91505092915050565b600080600060608486031215613e7457613e73614d12565b5b6000613e8286828701613d94565b935050602084013567ffffffffffffffff811115613ea357613ea2614d0d565b5b613eaf86828701613dbe565b925050604084013567ffffffffffffffff811115613ed057613ecf614d0d565b5b613edc86828701613dbe565b9150509250925092565b60008060408385031215613efd57613efc614d12565b5b6000613f0b85828601613d94565b9250506020613f1c85828601613dec565b9150509250929050565b600080600080600080600060e0888a031215613f4557613f44614d12565b5b6000613f538a828b01613d94565b9750506020613f648a828b01613dec565b965050604088013567ffffffffffffffff811115613f8557613f84614d0d565b5b613f918a828b01613dbe565b9550506060613fa28a828b01613dec565b9450506080613fb38a828b01613dec565b93505060a0613fc48a828b01613dec565b92505060c0613fd58a828b01613da9565b91505092959891949750929550565b600080600060608486031215613ffd57613ffc614d12565b5b600061400b86828701613d94565b935050602061401c86828701613dec565b925050604061402d86828701613dec565b9150509250925092565b60006020828403121561404d5761404c614d12565b5b600082013567ffffffffffffffff81111561406b5761406a614d0d565b5b61407784828501613dbe565b91505092915050565b60008060008060008060c0878903121561409d5761409c614d12565b5b600087013567ffffffffffffffff8111156140bb576140ba614d0d565b5b6140c789828a01613dbe565b96505060206140d889828a01613dec565b95505060406140e989828a01613dec565b94505060606140fa89828a01613dec565b935050608061410b89828a01613da9565b92505060a061411c89828a01613dec565b9150509295509295509295565b60006020828403121561413f5761413e614d12565b5b600061414d84828501613dec565b91505092915050565b60008060006060848603121561416f5761416e614d12565b5b600061417d86828701613dec565b935050602061418e86828701613dec565b925050604061419f86828701613d94565b9150509250925092565b60006141b58383614424565b905092915050565b60006141c9838361455c565b905092915050565b60006141dd838361460a565b905092915050565b6141ee81614af4565b82525050565b6141fd81614aac565b82525050565b61420c81614aac565b82525050565b61421b81614a9a565b82525050565b600061422c8261490e565b6142368185614961565b935083602082028501614248856148de565b8060005b85811015614284578484038952815161426585826141a9565b94506142708361493a565b925060208a0199505060018101905061424c565b50829750879550505050505092915050565b60006142a182614919565b6142ab8185614972565b9350836020820285016142bd856148ee565b8060005b858110156142f957848403895281516142da85826141bd565b94506142e583614947565b925060208a019950506001810190506142c1565b50829750879550505050505092915050565b600061431682614924565b6143208185614983565b935083602082028501614332856148fe565b8060005b8581101561436e578484038952815161434f85826141d1565b945061435a83614954565b925060208a01995050600181019050614336565b50829750879550505050505092915050565b61438981614abe565b82525050565b600061439a8261492f565b6143a48185614994565b93506143b4818560208601614b39565b6143bd81614d17565b840191505092915050565b60006143d38261492f565b6143dd81856149a5565b93506143ed818560208601614b39565b6143f681614d17565b840191505092915050565b600061440e600b836149a5565b915061441982614d28565b602082019050919050565b600060e08301600083015161443c60008601826146b8565b5060208301518482036020860152614454828261438f565b915050604083015161446960408601826146b8565b50606083015161447c60608601826146b8565b50608083015161448f60808601826146b8565b5060a08301516144a260a08601826146b8565b5060c08301516144b560c08601826141f4565b508091505092915050565b600060e0830160008301516144d860008601826146b8565b50602083015184820360208601526144f0828261438f565b915050604083015161450560408601826146b8565b50606083015161451860608601826146b8565b50608083015161452b60808601826146b8565b5060a083015161453e60a08601826146b8565b5060c083015161455160c08601826141f4565b508091505092915050565b60006060830160008301516145746000860182614212565b506020830151848203602086015261458c828261438f565b915050604083015184820360408601526145a6828261438f565b9150508091505092915050565b60006060830160008301516145cb6000860182614212565b50602083015184820360208601526145e3828261438f565b915050604083015184820360408601526145fd828261438f565b9150508091505092915050565b60006060830160008301516146226000860182614212565b506020830151848203602086015261463a828261438f565b91505060408301518482036040860152614654828261438f565b9150508091505092915050565b60006060830160008301516146796000860182614212565b5060208301518482036020860152614691828261438f565b915050604083015184820360408601526146ab828261438f565b9150508091505092915050565b6146c181614aea565b82525050565b6146d081614aea565b82525050565b60006060820190506146eb6000830186614203565b6146f86020830185614203565b61470560408301846146c7565b949350505050565b600060608201905061472260008301866141e5565b61472f60208301856141e5565b61473c60408301846146c7565b949350505050565b6000602082019050818103600083015261475e8184614221565b905092915050565b600060208201905081810360008301526147808184614296565b905092915050565b600060208201905081810360008301526147a2818461430b565b905092915050565b60006020820190506147bf6000830184614380565b92915050565b600060208201905081810360008301526147df81846143c8565b905092915050565b6000602082019050818103600083015261480081614401565b9050919050565b6000602082019050818103600083015261482181846144c0565b905092915050565b6000602082019050818103600083015261484381846145b3565b905092915050565b600060208201905081810360008301526148658184614661565b905092915050565b600060208201905061488260008301846146c7565b92915050565b60006148926148a3565b905061489e8282614b9e565b919050565b6000604051905090565b600067ffffffffffffffff8211156148c8576148c7614cd4565b5b6148d182614d17565b9050602081019050919050565b6000819050602082019050919050565b6000819050602082019050919050565b6000819050602082019050919050565b600081519050919050565b600081519050919050565b600081519050919050565b600081519050919050565b6000602082019050919050565b6000602082019050919050565b6000602082019050919050565b600082825260208201905092915050565b600082825260208201905092915050565b600082825260208201905092915050565b600082825260208201905092915050565b600082825260208201905092915050565b60006149c182614aea565b91506149cc83614aea565b9250827fffffffffffffffffffffffffffffffffffffffffffffffffffffffffffffffff03821115614a0157614a00614c18565b5b828201905092915050565b6000614a1782614aea565b9150614a2283614aea565b9250817fffffffffffffffffffffffffffffffffffffffffffffffffffffffffffffffff0483118215151615614a5b57614a5a614c18565b5b828202905092915050565b6000614a7182614aea565b9150614a7c83614aea565b925082821015614a8f57614a8e614c18565b5b828203905092915050565b6000614aa582614aca565b9050919050565b6000614ab782614aca565b9050919050565b60008115159050919050565b600073ffffffffffffffffffffffffffffffffffffffff82169050919050565b6000819050919050565b6000614aff82614b06565b9050919050565b6000614b1182614b18565b9050919050565b6000614b2382614aca565b9050919050565b82818337600083830152505050565b60005b83811015614b57578082015181840152602081019050614b3c565b83811115614b66576000848401525b50505050565b60006002820490506001821680614b8457607f821691505b60208210811415614b9857614b97614c47565b5b50919050565b614ba782614d17565b810181811067ffffffffffffffff82111715614bc657614bc5614cd4565b5b80604052505050565b6000614bda82614aea565b91507fffffffffffffffffffffffffffffffffffffffffffffffffffffffffffffffff821415614c0d57614c0c614c18565b5b600182019050919050565b7f4e487b7100000000000000000000000000000000000000000000000000000000600052601160045260246000fd5b7f4e487b7100000000000000000000000000000000000000000000000000000000600052602260045260246000fd5b7f4e487b7100000000000000000000000000000000000000000000000000000000600052603160045260246000fd5b7f4e487b7100000000000000000000000000000000000000000000000000000000600052603260045260246000fd5b7f4e487b7100000000000000000000000000000000000000000000000000000000600052604160045260246000fd5b600080fd5b600080fd5b600080fd5b600080fd5b6000601f19601f8301169050919050565b7f5553455220455849535453000000000000000000000000000000000000000000600082015250565b614d5a81614a9a565b8114614d6557600080fd5b50565b614d7181614aac565b8114614d7c57600080fd5b50565b614d8881614aea565b8114614d9357600080fd5b5056fe5472792077697468206974656d20616c7265616479206578697374696e6720696e2063617274a2646970667358221220d994a23d205f8817bb5ff6f03d97cdef9f2250b07ff090004a8fda0b2500c4b164736f6c63430008070033",
  "immutableReferences": {},
  "source": "//SPDX-License-Identifier: Unlicense\r\npragma solidity ^0.8.4;\r\n\r\ncontract Payment {\r\n    // address origenTransferencia;\r\n    address payable destinoTransferencia;\r\n    uint montoTransferencia;\r\n    \r\n    // constructor() {\r\n    //     origenTransferencia = msg.sender;\r\n    // }\r\n\r\n    event TransferirMonto(address payable _destinoTransferencia, address payable _origenTransferencia, uint montoTransferencia);\r\n    \r\n    function nuevaTransaccion(address payable _destinoTransferencia) public payable returns (bool){\r\n        destinoTransferencia = _destinoTransferencia;\r\n        destinoTransferencia.transfer(msg.value);\r\n        emit TransferirMonto(destinoTransferencia, from, msg.value);\r\n        return true;\r\n    }\r\n    function verBalanceCuenta() public pure returns (uint ) {\r\n        return 1000;\r\n    }\r\n\r\n    function getAll() public pure returns (uint) {\r\n        return 1000;\r\n    } \r\n\r\n    \r\n// }\r\n\r\n\r\n// contract Transfer {\r\n    address payable from;\r\n    address payable to;\r\n\r\n    constructor() {\r\n        from = payable(msg.sender);\r\n    }\r\n\r\n    event Pay(address _to, address _from, uint amt);\r\n\r\n    function pay(address payable _to) public payable returns (bool) {\r\n        to = _to;\r\n        to.transfer(msg.value);\r\n        emit Pay(to, from, msg.value);\r\n        return true;\r\n    }\r\n\r\n    // using Counters for Counters.Counter;\r\n\r\n    ///\r\n    /// only owner modifier is inherited from imported dependencies\r\n    ///\r\n\r\n    function isRetailer() public view returns (bool) {\r\n        for (uint256 i = 0; i < retailerIds.length; i++) {\r\n            if (msg.sender == retailerIds[i]) {\r\n                return true;\r\n            }\r\n        }\r\n    }\r\n\r\n    modifier onlyRetailer() {\r\n        require(isRetailer());\r\n        _;\r\n    }\r\n\r\n    modifier onlyUser() {\r\n        require(isUser());\r\n        _;\r\n    }\r\n\r\n    function isUser() public view returns (bool) {\r\n        for (uint256 i = 0; i < userIds.length; i++) {\r\n            if (msg.sender == userIds[i]) {\r\n                return true;\r\n            }\r\n        }\r\n    }\r\n\r\n    // Counters.Counter private _tokenIdCounter;\r\n    // address public scOwner;\r\n\r\n    // constructor() ERC721(\"Test2\", \"IC\") {\r\n    //     scOwner = msg.sender;\r\n    //     // Start token ID at 1. By default is starts at 0.\r\n    //     _tokenIdCounter.increment();\r\n    // }\r\n\r\n    //print\r\n    event LogMessage(string message);\r\n\r\n    function print(string memory message) public {\r\n        emit LogMessage(message);\r\n    }\r\n\r\n    struct ItemStruct {\r\n        uint256 itemId;\r\n        string itemName;\r\n        uint256 categoryId;\r\n        uint256 itemPrice;\r\n        uint256 quantity;\r\n        uint256 pricePerQuantity;\r\n        address payable sellerId;\r\n    }\r\n\r\n    //start of items section\r\n    mapping(uint256 => ItemStruct) private items; // mapping from item id to item details\r\n    uint256[] private itemIds; // array of all item ids\r\n\r\n    function getItemById(\r\n        uint256 itemId\r\n    ) public view returns (ItemStruct memory) {\r\n        ItemStruct memory item = items[itemId];\r\n        return item;\r\n    }\r\n\r\n    function getAllItems() public view returns (ItemStruct[] memory) {\r\n        uint256 itemCount = itemIds.length;\r\n        ItemStruct[] memory itemsArray = new ItemStruct[](itemCount);\r\n        for (uint256 i = 0; i < itemCount; i++) {\r\n            uint256 itemId = itemIds[i];\r\n            itemsArray[i] = items[itemId];\r\n        }\r\n        return itemsArray;\r\n    }\r\n\r\n    struct UserStruct {\r\n        address userId;\r\n        string userName;\r\n        string homeAddress;\r\n    }\r\n\r\n    //end of item section\r\n\r\n    //start of user section\r\n    mapping(address => UserStruct) private idToUser;\r\n    mapping(address => ItemStruct[]) private userIdToCartList;\r\n    address[] private userIds;\r\n\r\n    function addUser(\r\n        address userId,\r\n        string memory name,\r\n        string memory homeAddr\r\n    ) public {\r\n        if (bytes(idToUser[userId].userName).length > 0) {\r\n            revert(\"USER EXISTS\");\r\n        }\r\n        idToUser[userId] = UserStruct(userId, name, homeAddr);\r\n        userIds.push(userId);\r\n    }\r\n\r\n    function getAllUsers() public view returns (UserStruct[] memory) {\r\n        uint256 userCount = userIds.length;\r\n        UserStruct[] memory resUsers = new UserStruct[](userCount);\r\n        for (uint256 i = 0; i < userCount; i++) {\r\n            address tempId = userIds[i];\r\n            resUsers[i] = idToUser[tempId];\r\n        }\r\n        // UserStruct[] memory temp = new UserStruct[](2);\r\n        // temp[0] = UserStruct(0x67B82548B0d34cBc6d993583d6130e2a5f76C8EA, \"name 1\", \"addr 1\");\r\n        // temp[1] = UserStruct(0xb2a9a8f7a803E3Ba1783c0F8226C0cce1CD65650, \"name 2\", \"addr 2s\");\r\n\r\n        return resUsers;\r\n    }\r\n\r\n    function getUserById(\r\n        address userId\r\n    ) public view returns (UserStruct memory) {\r\n        UserStruct memory user = idToUser[userId];\r\n        return user;\r\n    }\r\n\r\n    //cart operations\r\n\r\n    function addItemToCart(\r\n        address userId,\r\n        uint256 itemId,\r\n        string memory name,\r\n        uint256 catId,\r\n        uint256 price,\r\n        uint256 quantity,\r\n        address payable sellerId\r\n    ) public {\r\n        ItemStruct memory temp = ItemStruct(\r\n            itemId,\r\n            name,\r\n            catId,\r\n            price,\r\n            quantity,\r\n            price * quantity,\r\n            sellerId\r\n        );\r\n        userIdToCartList[userId].push(temp);\r\n    }\r\n\r\n    function viewCart(\r\n        address userId\r\n    ) public view returns (ItemStruct[] memory) {\r\n        return userIdToCartList[userId];\r\n    }\r\n\r\n    function updateCart(\r\n        address userId,\r\n        uint256 itemId,\r\n        uint256 newQuant\r\n    ) public {\r\n        bool isExists = false;\r\n        for (uint256 i = 0; i < userIdToCartList[userId].length; i++) {\r\n            if (itemId == userIdToCartList[userId][i].itemId) {\r\n                isExists = true;\r\n                userIdToCartList[userId][i].quantity = newQuant;\r\n                break;\r\n            }\r\n        }\r\n        if (!isExists) {\r\n            print(\"Try with item already existing in cart\");\r\n        }\r\n    }\r\n\r\n    function removeItemFromCart(\r\n        address userId,\r\n        uint256 itemId\r\n    ) public returns (ItemStruct[] memory) {\r\n        uint256 itemIndx = 0;\r\n        bool isExists = false;\r\n        for (uint256 i = 0; i < userIdToCartList[userId].length; i++) {\r\n            if (itemId == userIdToCartList[userId][i].itemId) {\r\n                isExists = true;\r\n                itemIndx = i;\r\n                break;\r\n            }\r\n        }\r\n\r\n        if (isExists) {\r\n            uint256 i = 0;\r\n            for (i = itemIndx; i < userIdToCartList[userId].length - 1; i++) {\r\n                userIdToCartList[userId][i] = userIdToCartList[userId][i + 1];\r\n            }\r\n            userIdToCartList[userId].pop();\r\n            return userIdToCartList[userId];\r\n        }\r\n        return userIdToCartList[userId];\r\n    }\r\n\r\n    //end of user section\r\n\r\n    //start of retailer section\r\n\r\n    struct RetailerStruct {\r\n        address retailerId;\r\n        string retailerName;\r\n        string homeAddress;\r\n    }\r\n\r\n    mapping(address => RetailerStruct) private idToRetailer;\r\n    address[] private retailerIds;\r\n    mapping(address => ItemStruct[]) retailerToInv;\r\n\r\n    function addRetailer(\r\n        address retailerId,\r\n        string memory name,\r\n        string memory homeAddr\r\n    ) public {\r\n        if (bytes(idToRetailer[retailerId].retailerName).length > 0) {\r\n            revert(\"USER EXISTS\");\r\n        }\r\n        idToRetailer[retailerId] = RetailerStruct(retailerId, name, homeAddr);\r\n        retailerIds.push(retailerId);\r\n    }\r\n\r\n    function getRetailerById(\r\n        address retId\r\n    ) public view returns (RetailerStruct memory) {\r\n        RetailerStruct memory retailer = idToRetailer[retId];\r\n        return retailer;\r\n    }\r\n\r\n    function getAllRetailer() public view returns (RetailerStruct[] memory) {\r\n        uint256 userCount = retailerIds.length;\r\n        RetailerStruct[] memory resUsers = new RetailerStruct[](userCount);\r\n        for (uint256 i = 0; i < userCount; i++) {\r\n            address tempId = retailerIds[i];\r\n            resUsers[i] = idToRetailer[tempId];\r\n        }\r\n        return resUsers;\r\n    }\r\n\r\n    //retailer functions\r\n    function addnewItemToInvt(\r\n        string memory name,\r\n        uint256 catId,\r\n        uint256 price,\r\n        uint256 quantity,\r\n        address payable sellerId,\r\n        uint256 itemId\r\n    ) public {\r\n        //check if itemID exists\r\n        for (uint256 i = 0; i < itemIds.length; i++) {\r\n            if (itemIds[i] == itemId) {\r\n                print(\"try different ID\");\r\n                return;\r\n            }\r\n        }\r\n        ItemStruct memory temp = ItemStruct(\r\n            itemId,\r\n            name,\r\n            catId,\r\n            price,\r\n            quantity,\r\n            price * quantity,\r\n            sellerId\r\n        );\r\n        retailerToInv[sellerId].push(temp);\r\n        //update items mapping\r\n        items[itemId] = temp;\r\n        itemIds.push(itemId);\r\n    }\r\n\r\n    function viewInventory(address sellerId) public view returns (ItemStruct[] memory) {\r\n        return retailerToInv[sellerId];\r\n    }\r\n\r\n    // should also handle price change\r\n    function UpdateInventory(\r\n        uint256 itemId,\r\n        uint256 newQuant,\r\n        address sellerId\r\n    ) public {\r\n        bool isExists = false;\r\n        for (uint256 i = 0; i < retailerToInv[sellerId].length; i++) {\r\n            if (itemId == retailerToInv[sellerId][i].itemId) {\r\n                isExists = true;\r\n                retailerToInv[sellerId][i].quantity = newQuant;\r\n                break;\r\n            }\r\n        }\r\n        if (!isExists) {\r\n            print(\"Try with item already existing in cart\");\r\n        }\r\n    }\r\n\r\n    function removeItemInventory(address retailerId, uint256 itemId) public {\r\n        uint256 itemIndx = 0;\r\n        bool isExists = false;\r\n        for (uint256 i = 0; i < retailerToInv[retailerId].length; i++) {\r\n            if (itemId == retailerToInv[retailerId][i].itemId) {\r\n                isExists = true;\r\n                itemIndx = i;\r\n                break;\r\n            }\r\n        }\r\n\r\n        if (isExists) {\r\n            uint256 i = 0;\r\n            for (i = itemIndx; i < retailerToInv[retailerId].length - 1; i++) {\r\n                retailerToInv[retailerId][i] = retailerToInv[retailerId][i + 1];\r\n            }\r\n            retailerToInv[retailerId].pop();\r\n        }\r\n\r\n        for (uint256 i = 0; i < itemIds.length; i++) {\r\n            if (itemIds[i] == itemId) {\r\n                for (uint256 j = i; j < itemIds.length - 1; j++) {\r\n                    itemIds[j] = itemIds[j + 1];\r\n                }\r\n                itemIds.pop();\r\n                break;\r\n            }\r\n        }\r\n    }\r\n\r\n    uint256 orderIdCounter = 0;\r\n    mapping(address => uint256) userToOrderId;\r\n    mapping(uint256 => ItemStruct[]) orderToDetails;\r\n\r\n    function viewOrdersByUserId(\r\n        address userId\r\n    ) public view returns (ItemStruct[] memory) {\r\n        return orderToDetails[userToOrderId[userId]];\r\n    }\r\n\r\n    function placeOrder(address userId) public payable {\r\n        //  Check that totalSupply is less than MAX_SUPPLY\r\n        //require(totalSupply() < MAX_SUPPLY, \"Can't mint anymore tokens.\");\r\n\r\n        //check if payment is more than min amount\r\n        // ItemStruct[] memory temp = userIdToCartList[userId];\r\n        uint256 final_amount = 0;\r\n        for (uint256 i = 0; i < userIdToCartList[userId].length; i++) {\r\n            final_amount += userIdToCartList[userId][i].pricePerQuantity;\r\n        }\r\n\r\n        userIdToCartList[userId][0].sellerId.transfer(final_amount);\r\n        userToOrderId[userId] = orderIdCounter;\r\n        orderToDetails[orderIdCounter] = userIdToCartList[userId];\r\n        orderIdCounter++;\r\n\r\n        // ItemStruct[] memory prevInv = retailerToInv[userIdToCartList[userId][0].sellerId];\r\n        uint256 j = 0;\r\n        // uint256 k =0;\r\n        for (\r\n            uint256 i = 0;\r\n            i < retailerToInv[userIdToCartList[userId][0].sellerId].length;\r\n            i++\r\n        ) {\r\n            while (j < userIdToCartList[userId].length) {\r\n                if (\r\n                    retailerToInv[userIdToCartList[userId][0].sellerId][i]\r\n                        .itemId == userIdToCartList[userId][j].itemId\r\n                ) {\r\n                    retailerToInv[userIdToCartList[userId][0].sellerId][i]\r\n                        .quantity -= userIdToCartList[userId][j].quantity;\r\n                    j++;\r\n                }\r\n            }\r\n        }\r\n\r\n        while (userIdToCartList[userId].length > 0) {\r\n            userIdToCartList[userId].pop();\r\n        }\r\n\r\n        // require(final_amount >= 5, \"Wont get any NFT\");\r\n        // uint256 tokenId = _tokenIdCounter.current();\r\n        // _tokenIdCounter.increment();\r\n        // _safeMint(userId, tokenId);\r\n    }\r\n\r\n    // function viewOrdersByRetailerId(address retailerId) public view returns(ItemStruct[] memory) {\r\n\r\n    // }\r\n\r\n    /*\r\n    //===============================================//\r\n    // ===== 5. Other Functions ===== //\r\n\r\n    function _baseURI() internal pure override returns (string memory) {\r\n        return \"ipfs://happyMonkeyBaseURI/\";\r\n    }\r\n\r\n    function _beforeTokenTransfer(address from, address to, uint256 tokenId) internal\r\n        override(ERC721, ERC721Enumerable)\r\n    {\r\n        super._beforeTokenTransfer(from, to, tokenId);\r\n    }\r\n\r\n    // The following functions are overrides required by Solidity.\r\n\r\n    function supportsInterface(bytes4 interfaceId)\r\n        public\r\n        view\r\n        override(ERC721, ERC721Enumerable)\r\n        returns (bool)\r\n    {\r\n        return super.supportsInterface(interfaceId);\r\n    }\r\n    */\r\n}\r\n",
  "sourcePath": "C:\\Users\\manda\\Desktop\\526 project\\test 2\\AngularTruffle\\Blockchain\\contracts\\Payment.sol",
  "compiler": {
    "name": "solc",
    "version": "0.8.7+commit.e28d00a7.Emscripten.clang"
  },
  "schemaVersion": "3.4.13",
  "updatedAt": "2023-04-30T05:20:52.646Z",
  "devdoc": {
    "kind": "dev",
    "methods": {},
    "version": 1
  },
  "userdoc": {
    "kind": "user",
    "methods": {
      "isRetailer()": {
        "notice": " only owner modifier is inherited from imported dependencies"
      }
    },
    "version": 1
  }
}