{
  "contractName": "Payment",
  "abi": [
    {
      "inputs": [],
      "stateMutability": "nonpayable",
      "type": "constructor"
    },
    {
      "anonymous": false,
      "inputs": [
        {
          "indexed": false,
          "internalType": "string",
          "name": "message",
          "type": "string"
        }
      ],
      "name": "LogMessage",
      "type": "event"
    },
    {
      "anonymous": false,
      "inputs": [
        {
          "indexed": false,
          "internalType": "address",
          "name": "_to",
          "type": "address"
        },
        {
          "indexed": false,
          "internalType": "address",
          "name": "_from",
          "type": "address"
        },
        {
          "indexed": false,
          "internalType": "uint256",
          "name": "amt",
          "type": "uint256"
        }
      ],
      "name": "Pay",
      "type": "event"
    },
    {
      "anonymous": false,
      "inputs": [
        {
          "indexed": false,
          "internalType": "address payable",
          "name": "_destinoTransferencia",
          "type": "address"
        },
        {
          "indexed": false,
          "internalType": "address payable",
          "name": "_origenTransferencia",
          "type": "address"
        },
        {
          "indexed": false,
          "internalType": "uint256",
          "name": "montoTransferencia",
          "type": "uint256"
        }
      ],
      "name": "PlaceOrderEvent",
      "type": "event"
    },
    {
      "anonymous": false,
      "inputs": [
        {
          "indexed": false,
          "internalType": "address payable",
          "name": "_destinoTransferencia",
          "type": "address"
        },
        {
          "indexed": false,
          "internalType": "address payable",
          "name": "_origenTransferencia",
          "type": "address"
        },
        {
          "indexed": false,
          "internalType": "uint256",
          "name": "montoTransferencia",
          "type": "uint256"
        }
      ],
      "name": "TransferirMonto",
      "type": "event"
    },
    {
      "inputs": [
        {
          "internalType": "address payable",
          "name": "_destinoTransferencia",
          "type": "address"
        }
      ],
      "name": "nuevaTransaccion",
      "outputs": [
        {
          "internalType": "bool",
          "name": "",
          "type": "bool"
        }
      ],
      "stateMutability": "payable",
      "type": "function"
    },
    {
      "inputs": [],
      "name": "verBalanceCuenta",
      "outputs": [
        {
          "internalType": "uint256",
          "name": "",
          "type": "uint256"
        }
      ],
      "stateMutability": "pure",
      "type": "function"
    },
    {
      "inputs": [],
      "name": "getAll",
      "outputs": [
        {
          "internalType": "uint256",
          "name": "",
          "type": "uint256"
        }
      ],
      "stateMutability": "pure",
      "type": "function"
    },
    {
      "inputs": [
        {
          "internalType": "address payable",
          "name": "_to",
          "type": "address"
        }
      ],
      "name": "pay",
      "outputs": [
        {
          "internalType": "bool",
          "name": "",
          "type": "bool"
        }
      ],
      "stateMutability": "payable",
      "type": "function"
    },
    {
      "inputs": [],
      "name": "isRetailer",
      "outputs": [
        {
          "internalType": "bool",
          "name": "",
          "type": "bool"
        }
      ],
      "stateMutability": "view",
      "type": "function"
    },
    {
      "inputs": [],
      "name": "isUser",
      "outputs": [
        {
          "internalType": "bool",
          "name": "",
          "type": "bool"
        }
      ],
      "stateMutability": "view",
      "type": "function"
    },
    {
      "inputs": [
        {
          "internalType": "string",
          "name": "message",
          "type": "string"
        }
      ],
      "name": "print",
      "outputs": [],
      "stateMutability": "nonpayable",
      "type": "function"
    },
    {
      "inputs": [
        {
          "internalType": "uint256",
          "name": "itemId",
          "type": "uint256"
        }
      ],
      "name": "getItemById",
      "outputs": [
        {
          "components": [
            {
              "internalType": "uint256",
              "name": "itemId",
              "type": "uint256"
            },
            {
              "internalType": "string",
              "name": "itemName",
              "type": "string"
            },
            {
              "internalType": "uint256",
              "name": "categoryId",
              "type": "uint256"
            },
            {
              "internalType": "uint256",
              "name": "itemPrice",
              "type": "uint256"
            },
            {
              "internalType": "uint256",
              "name": "quantity",
              "type": "uint256"
            },
            {
              "internalType": "uint256",
              "name": "pricePerQuantity",
              "type": "uint256"
            },
            {
              "internalType": "address payable",
              "name": "sellerId",
              "type": "address"
            }
          ],
          "internalType": "struct Payment.ItemStruct",
          "name": "",
          "type": "tuple"
        }
      ],
      "stateMutability": "view",
      "type": "function"
    },
    {
      "inputs": [],
      "name": "getAllItems",
      "outputs": [
        {
          "components": [
            {
              "internalType": "uint256",
              "name": "itemId",
              "type": "uint256"
            },
            {
              "internalType": "string",
              "name": "itemName",
              "type": "string"
            },
            {
              "internalType": "uint256",
              "name": "categoryId",
              "type": "uint256"
            },
            {
              "internalType": "uint256",
              "name": "itemPrice",
              "type": "uint256"
            },
            {
              "internalType": "uint256",
              "name": "quantity",
              "type": "uint256"
            },
            {
              "internalType": "uint256",
              "name": "pricePerQuantity",
              "type": "uint256"
            },
            {
              "internalType": "address payable",
              "name": "sellerId",
              "type": "address"
            }
          ],
          "internalType": "struct Payment.ItemStruct[]",
          "name": "",
          "type": "tuple[]"
        }
      ],
      "stateMutability": "view",
      "type": "function"
    },
    {
      "inputs": [
        {
          "internalType": "address",
          "name": "userId",
          "type": "address"
        },
        {
          "internalType": "string",
          "name": "name",
          "type": "string"
        },
        {
          "internalType": "string",
          "name": "homeAddr",
          "type": "string"
        }
      ],
      "name": "addUser",
      "outputs": [],
      "stateMutability": "nonpayable",
      "type": "function"
    },
    {
      "inputs": [],
      "name": "getAllUsers",
      "outputs": [
        {
          "components": [
            {
              "internalType": "address",
              "name": "userId",
              "type": "address"
            },
            {
              "internalType": "string",
              "name": "userName",
              "type": "string"
            },
            {
              "internalType": "string",
              "name": "homeAddress",
              "type": "string"
            }
          ],
          "internalType": "struct Payment.UserStruct[]",
          "name": "",
          "type": "tuple[]"
        }
      ],
      "stateMutability": "view",
      "type": "function"
    },
    {
      "inputs": [
        {
          "internalType": "address",
          "name": "userId",
          "type": "address"
        }
      ],
      "name": "getUserById",
      "outputs": [
        {
          "components": [
            {
              "internalType": "address",
              "name": "userId",
              "type": "address"
            },
            {
              "internalType": "string",
              "name": "userName",
              "type": "string"
            },
            {
              "internalType": "string",
              "name": "homeAddress",
              "type": "string"
            }
          ],
          "internalType": "struct Payment.UserStruct",
          "name": "",
          "type": "tuple"
        }
      ],
      "stateMutability": "view",
      "type": "function"
    },
    {
      "inputs": [
        {
          "internalType": "address",
          "name": "userId",
          "type": "address"
        },
        {
          "internalType": "uint256",
          "name": "itemId",
          "type": "uint256"
        },
        {
          "internalType": "string",
          "name": "name",
          "type": "string"
        },
        {
          "internalType": "uint256",
          "name": "catId",
          "type": "uint256"
        },
        {
          "internalType": "uint256",
          "name": "price",
          "type": "uint256"
        },
        {
          "internalType": "uint256",
          "name": "quantity",
          "type": "uint256"
        },
        {
          "internalType": "address payable",
          "name": "sellerId",
          "type": "address"
        }
      ],
      "name": "addItemToCart",
      "outputs": [],
      "stateMutability": "nonpayable",
      "type": "function"
    },
    {
      "inputs": [
        {
          "internalType": "address",
          "name": "userId",
          "type": "address"
        }
      ],
      "name": "viewCart",
      "outputs": [
        {
          "components": [
            {
              "internalType": "uint256",
              "name": "itemId",
              "type": "uint256"
            },
            {
              "internalType": "string",
              "name": "itemName",
              "type": "string"
            },
            {
              "internalType": "uint256",
              "name": "categoryId",
              "type": "uint256"
            },
            {
              "internalType": "uint256",
              "name": "itemPrice",
              "type": "uint256"
            },
            {
              "internalType": "uint256",
              "name": "quantity",
              "type": "uint256"
            },
            {
              "internalType": "uint256",
              "name": "pricePerQuantity",
              "type": "uint256"
            },
            {
              "internalType": "address payable",
              "name": "sellerId",
              "type": "address"
            }
          ],
          "internalType": "struct Payment.ItemStruct[]",
          "name": "",
          "type": "tuple[]"
        }
      ],
      "stateMutability": "view",
      "type": "function"
    },
    {
      "inputs": [
        {
          "internalType": "address",
          "name": "userId",
          "type": "address"
        },
        {
          "internalType": "uint256",
          "name": "itemId",
          "type": "uint256"
        },
        {
          "internalType": "uint256",
          "name": "newQuant",
          "type": "uint256"
        }
      ],
      "name": "updateCart",
      "outputs": [],
      "stateMutability": "nonpayable",
      "type": "function"
    },
    {
      "inputs": [
        {
          "internalType": "address",
          "name": "userId",
          "type": "address"
        },
        {
          "internalType": "uint256",
          "name": "itemId",
          "type": "uint256"
        }
      ],
      "name": "removeItemFromCart",
      "outputs": [
        {
          "components": [
            {
              "internalType": "uint256",
              "name": "itemId",
              "type": "uint256"
            },
            {
              "internalType": "string",
              "name": "itemName",
              "type": "string"
            },
            {
              "internalType": "uint256",
              "name": "categoryId",
              "type": "uint256"
            },
            {
              "internalType": "uint256",
              "name": "itemPrice",
              "type": "uint256"
            },
            {
              "internalType": "uint256",
              "name": "quantity",
              "type": "uint256"
            },
            {
              "internalType": "uint256",
              "name": "pricePerQuantity",
              "type": "uint256"
            },
            {
              "internalType": "address payable",
              "name": "sellerId",
              "type": "address"
            }
          ],
          "internalType": "struct Payment.ItemStruct[]",
          "name": "",
          "type": "tuple[]"
        }
      ],
      "stateMutability": "nonpayable",
      "type": "function"
    },
    {
      "inputs": [
        {
          "internalType": "address",
          "name": "retailerId",
          "type": "address"
        },
        {
          "internalType": "string",
          "name": "name",
          "type": "string"
        },
        {
          "internalType": "string",
          "name": "homeAddr",
          "type": "string"
        }
      ],
      "name": "addRetailer",
      "outputs": [],
      "stateMutability": "nonpayable",
      "type": "function"
    },
    {
      "inputs": [
        {
          "internalType": "address",
          "name": "retId",
          "type": "address"
        }
      ],
      "name": "getRetailerById",
      "outputs": [
        {
          "components": [
            {
              "internalType": "address",
              "name": "retailerId",
              "type": "address"
            },
            {
              "internalType": "string",
              "name": "retailerName",
              "type": "string"
            },
            {
              "internalType": "string",
              "name": "homeAddress",
              "type": "string"
            }
          ],
          "internalType": "struct Payment.RetailerStruct",
          "name": "",
          "type": "tuple"
        }
      ],
      "stateMutability": "view",
      "type": "function"
    },
    {
      "inputs": [],
      "name": "getAllRetailer",
      "outputs": [
        {
          "components": [
            {
              "internalType": "address",
              "name": "retailerId",
              "type": "address"
            },
            {
              "internalType": "string",
              "name": "retailerName",
              "type": "string"
            },
            {
              "internalType": "string",
              "name": "homeAddress",
              "type": "string"
            }
          ],
          "internalType": "struct Payment.RetailerStruct[]",
          "name": "",
          "type": "tuple[]"
        }
      ],
      "stateMutability": "view",
      "type": "function"
    },
    {
      "inputs": [
        {
          "internalType": "string",
          "name": "name",
          "type": "string"
        },
        {
          "internalType": "uint256",
          "name": "catId",
          "type": "uint256"
        },
        {
          "internalType": "uint256",
          "name": "price",
          "type": "uint256"
        },
        {
          "internalType": "uint256",
          "name": "quantity",
          "type": "uint256"
        },
        {
          "internalType": "address payable",
          "name": "sellerId",
          "type": "address"
        },
        {
          "internalType": "uint256",
          "name": "itemId",
          "type": "uint256"
        }
      ],
      "name": "addnewItemToInvt",
      "outputs": [],
      "stateMutability": "nonpayable",
      "type": "function"
    },
    {
      "inputs": [
        {
          "internalType": "address",
          "name": "sellerId",
          "type": "address"
        }
      ],
      "name": "viewInventory",
      "outputs": [
        {
          "components": [
            {
              "internalType": "uint256",
              "name": "itemId",
              "type": "uint256"
            },
            {
              "internalType": "string",
              "name": "itemName",
              "type": "string"
            },
            {
              "internalType": "uint256",
              "name": "categoryId",
              "type": "uint256"
            },
            {
              "internalType": "uint256",
              "name": "itemPrice",
              "type": "uint256"
            },
            {
              "internalType": "uint256",
              "name": "quantity",
              "type": "uint256"
            },
            {
              "internalType": "uint256",
              "name": "pricePerQuantity",
              "type": "uint256"
            },
            {
              "internalType": "address payable",
              "name": "sellerId",
              "type": "address"
            }
          ],
          "internalType": "struct Payment.ItemStruct[]",
          "name": "",
          "type": "tuple[]"
        }
      ],
      "stateMutability": "view",
      "type": "function"
    },
    {
      "inputs": [
        {
          "internalType": "uint256",
          "name": "itemId",
          "type": "uint256"
        },
        {
          "internalType": "uint256",
          "name": "newQuant",
          "type": "uint256"
        },
        {
          "internalType": "address",
          "name": "sellerId",
          "type": "address"
        }
      ],
      "name": "UpdateInventory",
      "outputs": [],
      "stateMutability": "nonpayable",
      "type": "function"
    },
    {
      "inputs": [
        {
          "internalType": "address",
          "name": "retailerId",
          "type": "address"
        },
        {
          "internalType": "uint256",
          "name": "itemId",
          "type": "uint256"
        }
      ],
      "name": "removeItemInventory",
      "outputs": [],
      "stateMutability": "nonpayable",
      "type": "function"
    },
    {
      "inputs": [
        {
          "internalType": "address payable",
          "name": "_destinoTransferencia",
          "type": "address"
        }
      ],
      "name": "preOrderTransaction",
      "outputs": [
        {
          "internalType": "bool",
          "name": "",
          "type": "bool"
        }
      ],
      "stateMutability": "payable",
      "type": "function"
    },
    {
      "inputs": [
        {
          "internalType": "address",
          "name": "retId",
          "type": "address"
        },
        {
          "internalType": "uint256",
          "name": "orderId",
          "type": "uint256"
        },
        {
          "internalType": "uint256",
          "name": "orderAmount",
          "type": "uint256"
        }
      ],
      "name": "placeOrderNew",
      "outputs": [
        {
          "internalType": "bool",
          "name": "",
          "type": "bool"
        }
      ],
      "stateMutability": "payable",
      "type": "function"
    },
    {
      "inputs": [
        {
          "internalType": "address",
          "name": "userId",
          "type": "address"
        }
      ],
      "name": "viewOrdersByUserId",
      "outputs": [
        {
          "components": [
            {
              "internalType": "uint256",
              "name": "itemId",
              "type": "uint256"
            },
            {
              "internalType": "string",
              "name": "itemName",
              "type": "string"
            },
            {
              "internalType": "uint256",
              "name": "categoryId",
              "type": "uint256"
            },
            {
              "internalType": "uint256",
              "name": "itemPrice",
              "type": "uint256"
            },
            {
              "internalType": "uint256",
              "name": "quantity",
              "type": "uint256"
            },
            {
              "internalType": "uint256",
              "name": "pricePerQuantity",
              "type": "uint256"
            },
            {
              "internalType": "address payable",
              "name": "sellerId",
              "type": "address"
            }
          ],
          "internalType": "struct Payment.ItemStruct[]",
          "name": "",
          "type": "tuple[]"
        }
      ],
      "stateMutability": "view",
      "type": "function"
    },
    {
      "inputs": [
        {
          "internalType": "address",
          "name": "userId",
          "type": "address"
        }
      ],
      "name": "placeOrder",
      "outputs": [],
      "stateMutability": "payable",
      "type": "function"
    }
  ],
  "bytecode": "0x60806040526000600c5534801561001557600080fd5b5033600260006101000a81548173ffffffffffffffffffffffffffffffffffffffff021916908373ffffffffffffffffffffffffffffffffffffffff160217905550615166806100666000396000f3fe60806040526004361061019c5760003560e01c806382538155116100ec578063d7554a681161008a578063e2842d7911610064578063e2842d79146105bb578063e719afe7146105e6578063ec1c5c3314610623578063ed6e12fa146106605761019c565b8063d7554a6814610539578063dff3e63d14610562578063e005f9201461058b5761019c565b8063857ddb04116100c6578063857ddb041461047a578063a99c7a39146104a3578063b10c784a146104e0578063cd2f0710146104fc5761019c565b806382538155146103f85780638325414b1461042157806384d0eeae1461044a5761019c565b8063477ba6451161015957806353ed51431161013357806353ed5143146103505780635d28dc011461037b57806368835c44146103a457806372e713ac146103cd5761019c565b8063477ba645146102cf5780634ba1d6aa146102fa5780634c22c119146103255761019c565b8063036fa838146101a1578063099e00f3146101d15780630c11dedd1461020e57806311114af11461023e57806313f8befc146102675780632301ab1e14610292575b600080fd5b6101bb60048036038101906101b691906141a2565b61069d565b6040516101c89190614b1e565b60405180910390f35b3480156101dd57600080fd5b506101f860048036038101906101f39190614175565b6107cc565b6040516102059190614b9d565b60405180910390f35b610228600480360381019061022391906141a2565b6109a5565b6040516102359190614b1e565b60405180910390f35b34801561024a57600080fd5b50610265600480360381019061026091906143ab565b610ad9565b005b34801561027357600080fd5b5061027c610b13565b6040516102899190614ada565b60405180910390f35b34801561029e57600080fd5b506102b960048036038101906102b49190614175565b610dc4565b6040516102c69190614bbf565b60405180910390f35b3480156102db57600080fd5b506102e4610f9d565b6040516102f19190614b1e565b60405180910390f35b34801561030657600080fd5b5061030f611046565b60405161031c9190614ab8565b60405180910390f35b34801561033157600080fd5b5061033a61124b565b6040516103479190614b1e565b60405180910390f35b34801561035c57600080fd5b506103656112f4565b6040516103729190614be1565b60405180910390f35b34801561038757600080fd5b506103a2600480360381019061039d919061429a565b6112fe565b005b3480156103b057600080fd5b506103cb60048036038101906103c691906143f4565b611461565b005b3480156103d957600080fd5b506103e2611728565b6040516103ef9190614be1565b60405180910390f35b34801561040457600080fd5b5061041f600480360381019061041a9190614358565b611732565b005b34801561042d57600080fd5b506104486004803603810190610443919061425a565b61189b565b005b610464600480360381019061045f9190614358565b611d36565b6040516104719190614b1e565b60405180910390f35b34801561048657600080fd5b506104a1600480360381019061049c91906141cf565b611ee5565b005b3480156104af57600080fd5b506104ca60048036038101906104c5919061425a565b6120d3565b6040516104d79190614ab8565b60405180910390f35b6104fa60048036038101906104f59190614175565b6127e4565b005b34801561050857600080fd5b50610523600480360381019061051e919061449d565b612f4f565b6040516105309190614b7b565b60405180910390f35b34801561054557600080fd5b50610560600480360381019061055b91906141cf565b61309c565b005b34801561056e57600080fd5b50610589600480360381019061058491906144ca565b61328a565b005b6105a560048036038101906105a091906141a2565b6133f3565b6040516105b29190614b1e565b60405180910390f35b3480156105c757600080fd5b506105d0613522565b6040516105dd9190614afc565b60405180910390f35b3480156105f257600080fd5b5061060d60048036038101906106089190614175565b6137d3565b60405161061a9190614ab8565b60405180910390f35b34801561062f57600080fd5b5061064a60048036038101906106459190614175565b61398b565b6040516106579190614ab8565b60405180910390f35b34801561066c57600080fd5b5061068760048036038101906106829190614175565b613b56565b6040516106949190614ab8565b60405180910390f35b6000816000806101000a81548173ffffffffffffffffffffffffffffffffffffffff021916908373ffffffffffffffffffffffffffffffffffffffff16021790555060008054906101000a900473ffffffffffffffffffffffffffffffffffffffff1673ffffffffffffffffffffffffffffffffffffffff166108fc349081150290604051600060405180830381858888f19350505050158015610745573d6000803e3d6000fd5b507ffc1ff50638c53d8cb428005e102107cffd2da1840abf5289da2981b8e99c642060008054906101000a900473ffffffffffffffffffffffffffffffffffffffff16600260009054906101000a900473ffffffffffffffffffffffffffffffffffffffff16346040516107bb93929190614a4a565b60405180910390a160019050919050565b6107d4613d0e565b6000600960008473ffffffffffffffffffffffffffffffffffffffff1673ffffffffffffffffffffffffffffffffffffffff1681526020019081526020016000206040518060600160405290816000820160009054906101000a900473ffffffffffffffffffffffffffffffffffffffff1673ffffffffffffffffffffffffffffffffffffffff1673ffffffffffffffffffffffffffffffffffffffff16815260200160018201805461088690614ee0565b80601f01602080910402602001604051908101604052809291908181526020018280546108b290614ee0565b80156108ff5780601f106108d4576101008083540402835291602001916108ff565b820191906000526020600020905b8154815290600101906020018083116108e257829003601f168201915b5050505050815260200160028201805461091890614ee0565b80601f016020809104026020016040519081016040528092919081815260200182805461094490614ee0565b80156109915780601f1061096657610100808354040283529160200191610991565b820191906000526020600020905b81548152906001019060200180831161097457829003601f168201915b505050505081525050905080915050919050565b600081600360006101000a81548173ffffffffffffffffffffffffffffffffffffffff021916908373ffffffffffffffffffffffffffffffffffffffff160217905550600360009054906101000a900473ffffffffffffffffffffffffffffffffffffffff1673ffffffffffffffffffffffffffffffffffffffff166108fc349081150290604051600060405180830381858888f19350505050158015610a50573d6000803e3d6000fd5b507f288d9a5737d39d766acb848da277a970d9ee31f9115e17490b9393e282fa7b4d600360009054906101000a900473ffffffffffffffffffffffffffffffffffffffff16600260009054906101000a900473ffffffffffffffffffffffffffffffffffffffff1634604051610ac893929190614a81565b60405180910390a160019050919050565b7f96561394bac381230de4649200e8831afcab1f451881bbade9ef209f6dd3048081604051610b089190614b39565b60405180910390a150565b60606000600a80549050905060008167ffffffffffffffff811115610b3b57610b3a615048565b5b604051908082528060200260200182016040528015610b7457816020015b610b61613d0e565b815260200190600190039081610b595790505b50905060005b82811015610dbb576000600a8281548110610b9857610b97615019565b5b9060005260206000200160009054906101000a900473ffffffffffffffffffffffffffffffffffffffff169050600960008273ffffffffffffffffffffffffffffffffffffffff1673ffffffffffffffffffffffffffffffffffffffff1681526020019081526020016000206040518060600160405290816000820160009054906101000a900473ffffffffffffffffffffffffffffffffffffffff1673ffffffffffffffffffffffffffffffffffffffff1673ffffffffffffffffffffffffffffffffffffffff168152602001600182018054610c7590614ee0565b80601f0160208091040260200160405190810160405280929190818152602001828054610ca190614ee0565b8015610cee5780601f10610cc357610100808354040283529160200191610cee565b820191906000526020600020905b815481529060010190602001808311610cd157829003601f168201915b50505050508152602001600282018054610d0790614ee0565b80601f0160208091040260200160405190810160405280929190818152602001828054610d3390614ee0565b8015610d805780601f10610d5557610100808354040283529160200191610d80565b820191906000526020600020905b815481529060010190602001808311610d6357829003601f168201915b505050505081525050838381518110610d9c57610d9b615019565b5b6020026020010181905250508080610db390614f43565b915050610b7a565b50809250505090565b610dcc613d45565b6000600660008473ffffffffffffffffffffffffffffffffffffffff1673ffffffffffffffffffffffffffffffffffffffff1681526020019081526020016000206040518060600160405290816000820160009054906101000a900473ffffffffffffffffffffffffffffffffffffffff1673ffffffffffffffffffffffffffffffffffffffff1673ffffffffffffffffffffffffffffffffffffffff168152602001600182018054610e7e90614ee0565b80601f0160208091040260200160405190810160405280929190818152602001828054610eaa90614ee0565b8015610ef75780601f10610ecc57610100808354040283529160200191610ef7565b820191906000526020600020905b815481529060010190602001808311610eda57829003601f168201915b50505050508152602001600282018054610f1090614ee0565b80601f0160208091040260200160405190810160405280929190818152602001828054610f3c90614ee0565b8015610f895780601f10610f5e57610100808354040283529160200191610f89565b820191906000526020600020905b815481529060010190602001808311610f6c57829003601f168201915b505050505081525050905080915050919050565b600080600090505b600a8054905081101561104157600a8181548110610fc657610fc5615019565b5b9060005260206000200160009054906101000a900473ffffffffffffffffffffffffffffffffffffffff1673ffffffffffffffffffffffffffffffffffffffff163373ffffffffffffffffffffffffffffffffffffffff16141561102e576001915050611043565b808061103990614f43565b915050610fa5565b505b90565b60606000600580549050905060008167ffffffffffffffff81111561106e5761106d615048565b5b6040519080825280602002602001820160405280156110a757816020015b611094613d7c565b81526020019060019003908161108c5790505b50905060005b82811015611242576000600582815481106110cb576110ca615019565b5b90600052602060002001549050600460008281526020019081526020016000206040518060e00160405290816000820154815260200160018201805461111090614ee0565b80601f016020809104026020016040519081016040528092919081815260200182805461113c90614ee0565b80156111895780601f1061115e57610100808354040283529160200191611189565b820191906000526020600020905b81548152906001019060200180831161116c57829003601f168201915b50505050508152602001600282015481526020016003820154815260200160048201548152602001600582015481526020016006820160009054906101000a900473ffffffffffffffffffffffffffffffffffffffff1673ffffffffffffffffffffffffffffffffffffffff1673ffffffffffffffffffffffffffffffffffffffff168152505083838151811061122357611222615019565b5b602002602001018190525050808061123a90614f43565b9150506110ad565b50809250505090565b600080600090505b6008805490508110156112ef576008818154811061127457611273615019565b5b9060005260206000200160009054906101000a900473ffffffffffffffffffffffffffffffffffffffff1673ffffffffffffffffffffffffffffffffffffffff163373ffffffffffffffffffffffffffffffffffffffff1614156112dc5760019150506112f1565b80806112e790614f43565b915050611253565b505b90565b60006103e8905090565b60006040518060e0016040528088815260200187815260200186815260200185815260200184815260200184866113359190614d80565b81526020018373ffffffffffffffffffffffffffffffffffffffff168152509050600760008973ffffffffffffffffffffffffffffffffffffffff1673ffffffffffffffffffffffffffffffffffffffff1681526020019081526020016000208190806001815401808255809150506001900390600052602060002090600702016000909190919091506000820151816000015560208201518160010190805190602001906113e5929190613dcf565b5060408201518160020155606082015181600301556080820151816004015560a0820151816005015560c08201518160060160006101000a81548173ffffffffffffffffffffffffffffffffffffffff021916908373ffffffffffffffffffffffffffffffffffffffff16021790555050505050505050505050565b60005b6005805490508110156114ee57816005828154811061148657611485615019565b5b906000526020600020015414156114db576114d56040518060400160405280601081526020017f74727920646966666572656e7420494400000000000000000000000000000000815250610ad9565b50611720565b80806114e690614f43565b915050611464565b5060006040518060e0016040528083815260200188815260200187815260200186815260200185815260200185876115269190614d80565b81526020018473ffffffffffffffffffffffffffffffffffffffff168152509050600b60008473ffffffffffffffffffffffffffffffffffffffff1673ffffffffffffffffffffffffffffffffffffffff1681526020019081526020016000208190806001815401808255809150506001900390600052602060002090600702016000909190919091506000820151816000015560208201518160010190805190602001906115d6929190613dcf565b5060408201518160020155606082015181600301556080820151816004015560a0820151816005015560c08201518160060160006101000a81548173ffffffffffffffffffffffffffffffffffffffff021916908373ffffffffffffffffffffffffffffffffffffffff16021790555050508060046000848152602001908152602001600020600082015181600001556020820151816001019080519060200190611682929190613dcf565b5060408201518160020155606082015181600301556080820151816004015560a0820151816005015560c08201518160060160006101000a81548173ffffffffffffffffffffffffffffffffffffffff021916908373ffffffffffffffffffffffffffffffffffffffff1602179055509050506005829080600181540180825580915050600190039060005260206000200160009091909190915055505b505050505050565b60006103e8905090565b6000805b600760008673ffffffffffffffffffffffffffffffffffffffff1673ffffffffffffffffffffffffffffffffffffffff1681526020019081526020016000208054905081101561186d57600760008673ffffffffffffffffffffffffffffffffffffffff1673ffffffffffffffffffffffffffffffffffffffff16815260200190815260200160002081815481106117d1576117d0615019565b5b90600052602060002090600702016000015484141561185a576001915082600760008773ffffffffffffffffffffffffffffffffffffffff1673ffffffffffffffffffffffffffffffffffffffff16815260200190815260200160002082815481106118405761183f615019565b5b90600052602060002090600702016004018190555061186d565b808061186590614f43565b915050611736565b50806118955761189460405180606001604052806026815260200161510b60269139610ad9565b5b50505050565b60008060005b600b60008673ffffffffffffffffffffffffffffffffffffffff1673ffffffffffffffffffffffffffffffffffffffff1681526020019081526020016000208054905081101561197457600b60008673ffffffffffffffffffffffffffffffffffffffff1673ffffffffffffffffffffffffffffffffffffffff168152602001908152602001600020818154811061193c5761193b615019565b5b9060005260206000209060070201600001548414156119615760019150809250611974565b808061196c90614f43565b9150506118a1565b508015611c395760008290505b6001600b60008773ffffffffffffffffffffffffffffffffffffffff1673ffffffffffffffffffffffffffffffffffffffff168152602001908152602001600020805490506119d09190614dda565b811015611b7057600b60008673ffffffffffffffffffffffffffffffffffffffff1673ffffffffffffffffffffffffffffffffffffffff168152602001908152602001600020600182611a239190614d2a565b81548110611a3457611a33615019565b5b9060005260206000209060070201600b60008773ffffffffffffffffffffffffffffffffffffffff1673ffffffffffffffffffffffffffffffffffffffff1681526020019081526020016000208281548110611a9357611a92615019565b5b9060005260206000209060070201600082015481600001556001820181600101908054611abf90614ee0565b611aca929190613e55565b50600282015481600201556003820154816003015560048201548160040155600582015481600501556006820160009054906101000a900473ffffffffffffffffffffffffffffffffffffffff168160060160006101000a81548173ffffffffffffffffffffffffffffffffffffffff021916908373ffffffffffffffffffffffffffffffffffffffff1602179055509050508080611b6890614f43565b915050611981565b600b60008673ffffffffffffffffffffffffffffffffffffffff1673ffffffffffffffffffffffffffffffffffffffff168152602001908152602001600020805480611bbf57611bbe614fea565b5b6001900381819060005260206000209060070201600080820160009055600182016000611bec9190613ee2565b60028201600090556003820160009055600482016000905560058201600090556006820160006101000a81549073ffffffffffffffffffffffffffffffffffffffff021916905550509055505b60005b600580549050811015611d2f578360058281548110611c5e57611c5d615019565b5b90600052602060002001541415611d1c5760008190505b6001600580549050611c879190614dda565b811015611cee576005600182611c9d9190614d2a565b81548110611cae57611cad615019565b5b906000526020600020015460058281548110611ccd57611ccc615019565b5b90600052602060002001819055508080611ce690614f43565b915050611c75565b506005805480611d0157611d00614fea565b5b60019003818190600052602060002001600090559055611d2f565b8080611d2790614f43565b915050611c3c565b5050505050565b60008373ffffffffffffffffffffffffffffffffffffffff166108fc349081150290604051600060405180830381858888f19350505050158015611d7e573d6000803e3d6000fd5b5082600d6000600260009054906101000a900473ffffffffffffffffffffffffffffffffffffffff1673ffffffffffffffffffffffffffffffffffffffff1673ffffffffffffffffffffffffffffffffffffffff16815260200190815260200160002081905550600060405180604001604052808673ffffffffffffffffffffffffffffffffffffffff16815260200184815250905080600f600086815260200190815260200160002060008201518160000160006101000a81548173ffffffffffffffffffffffffffffffffffffffff021916908373ffffffffffffffffffffffffffffffffffffffff160217905550602082015181600101559050507f1676231781faea5b3b0d22575a6316d9ba347bb9f4a47a56f1ca620470cc14e985600260009054906101000a900473ffffffffffffffffffffffffffffffffffffffff1634604051611ed193929190614a4a565b60405180910390a160019150509392505050565b6000600960008573ffffffffffffffffffffffffffffffffffffffff1673ffffffffffffffffffffffffffffffffffffffff1681526020019081526020016000206001018054611f3490614ee0565b90501115611f77576040517f08c379a0000000000000000000000000000000000000000000000000000000008152600401611f6e90614b5b565b60405180910390fd5b60405180606001604052808473ffffffffffffffffffffffffffffffffffffffff16815260200183815260200182815250600960008573ffffffffffffffffffffffffffffffffffffffff1673ffffffffffffffffffffffffffffffffffffffff16815260200190815260200160002060008201518160000160006101000a81548173ffffffffffffffffffffffffffffffffffffffff021916908373ffffffffffffffffffffffffffffffffffffffff160217905550602082015181600101908051906020019061204a929190613dcf565b506040820151816002019080519060200190612067929190613dcf565b50905050600a839080600181540180825580915050600190039060005260206000200160009091909190916101000a81548173ffffffffffffffffffffffffffffffffffffffff021916908373ffffffffffffffffffffffffffffffffffffffff160217905550505050565b606060008060005b600760008773ffffffffffffffffffffffffffffffffffffffff1673ffffffffffffffffffffffffffffffffffffffff168152602001908152602001600020805490508110156121ae57600760008773ffffffffffffffffffffffffffffffffffffffff1673ffffffffffffffffffffffffffffffffffffffff168152602001908152602001600020818154811061217657612175615019565b5b90600052602060002090600702016000015485141561219b57600191508092506121ae565b80806121a690614f43565b9150506120db565b50801561262a5760008290505b6001600760008873ffffffffffffffffffffffffffffffffffffffff1673ffffffffffffffffffffffffffffffffffffffff1681526020019081526020016000208054905061220a9190614dda565b8110156123aa57600760008773ffffffffffffffffffffffffffffffffffffffff1673ffffffffffffffffffffffffffffffffffffffff16815260200190815260200160002060018261225d9190614d2a565b8154811061226e5761226d615019565b5b9060005260206000209060070201600760008873ffffffffffffffffffffffffffffffffffffffff1673ffffffffffffffffffffffffffffffffffffffff16815260200190815260200160002082815481106122cd576122cc615019565b5b90600052602060002090600702016000820154816000015560018201816001019080546122f990614ee0565b612304929190613e55565b50600282015481600201556003820154816003015560048201548160040155600582015481600501556006820160009054906101000a900473ffffffffffffffffffffffffffffffffffffffff168160060160006101000a81548173ffffffffffffffffffffffffffffffffffffffff021916908373ffffffffffffffffffffffffffffffffffffffff16021790555090505080806123a290614f43565b9150506121bb565b600760008773ffffffffffffffffffffffffffffffffffffffff1673ffffffffffffffffffffffffffffffffffffffff1681526020019081526020016000208054806123f9576123f8614fea565b5b60019003818190600052602060002090600702016000808201600090556001820160006124269190613ee2565b60028201600090556003820160009055600482016000905560058201600090556006820160006101000a81549073ffffffffffffffffffffffffffffffffffffffff021916905550509055600760008773ffffffffffffffffffffffffffffffffffffffff1673ffffffffffffffffffffffffffffffffffffffff168152602001908152602001600020805480602002602001604051908101604052809291908181526020016000905b8282101561261c57838290600052602060002090600702016040518060e00160405290816000820154815260200160018201805461250d90614ee0565b80601f016020809104026020016040519081016040528092919081815260200182805461253990614ee0565b80156125865780601f1061255b57610100808354040283529160200191612586565b820191906000526020600020905b81548152906001019060200180831161256957829003601f168201915b50505050508152602001600282015481526020016003820154815260200160048201548152602001600582015481526020016006820160009054906101000a900473ffffffffffffffffffffffffffffffffffffffff1673ffffffffffffffffffffffffffffffffffffffff1673ffffffffffffffffffffffffffffffffffffffff1681525050815260200190600101906124d0565b5050505093505050506127de565b600760008673ffffffffffffffffffffffffffffffffffffffff1673ffffffffffffffffffffffffffffffffffffffff168152602001908152602001600020805480602002602001604051908101604052809291908181526020016000905b828210156127d557838290600052602060002090600702016040518060e0016040529081600082015481526020016001820180546126c690614ee0565b80601f01602080910402602001604051908101604052809291908181526020018280546126f290614ee0565b801561273f5780601f106127145761010080835404028352916020019161273f565b820191906000526020600020905b81548152906001019060200180831161272257829003601f168201915b50505050508152602001600282015481526020016003820154815260200160048201548152602001600582015481526020016006820160009054906101000a900473ffffffffffffffffffffffffffffffffffffffff1673ffffffffffffffffffffffffffffffffffffffff1673ffffffffffffffffffffffffffffffffffffffff168152505081526020019060010190612689565b50505050925050505b92915050565b6000805b600760008473ffffffffffffffffffffffffffffffffffffffff1673ffffffffffffffffffffffffffffffffffffffff168152602001908152602001600020805490508110156128b557600760008473ffffffffffffffffffffffffffffffffffffffff1673ffffffffffffffffffffffffffffffffffffffff168152602001908152602001600020818154811061288357612882615019565b5b906000526020600020906007020160050154826128a09190614d2a565b915080806128ad90614f43565b9150506127e8565b50600760008373ffffffffffffffffffffffffffffffffffffffff1673ffffffffffffffffffffffffffffffffffffffff16815260200190815260200160002060008154811061290857612907615019565b5b906000526020600020906007020160060160009054906101000a900473ffffffffffffffffffffffffffffffffffffffff1673ffffffffffffffffffffffffffffffffffffffff166108fc829081150290604051600060405180830381858888f1935050505015801561297f573d6000803e3d6000fd5b50600c54600d60008473ffffffffffffffffffffffffffffffffffffffff1673ffffffffffffffffffffffffffffffffffffffff16815260200190815260200160002081905550600760008373ffffffffffffffffffffffffffffffffffffffff1673ffffffffffffffffffffffffffffffffffffffff168152602001908152602001600020600e6000600c548152602001908152602001600020908054612a28929190613f22565b50600c6000815480929190612a3c90614f43565b91905055506000805b600b6000600760008773ffffffffffffffffffffffffffffffffffffffff1673ffffffffffffffffffffffffffffffffffffffff168152602001908152602001600020600081548110612a9b57612a9a615019565b5b906000526020600020906007020160060160009054906101000a900473ffffffffffffffffffffffffffffffffffffffff1673ffffffffffffffffffffffffffffffffffffffff1673ffffffffffffffffffffffffffffffffffffffff16815260200190815260200160002080549050811015612e31575b600760008573ffffffffffffffffffffffffffffffffffffffff1673ffffffffffffffffffffffffffffffffffffffff16815260200190815260200160002080549050821015612e1e57600760008573ffffffffffffffffffffffffffffffffffffffff1673ffffffffffffffffffffffffffffffffffffffff1681526020019081526020016000208281548110612bae57612bad615019565b5b906000526020600020906007020160000154600b6000600760008873ffffffffffffffffffffffffffffffffffffffff1673ffffffffffffffffffffffffffffffffffffffff168152602001908152602001600020600081548110612c1657612c15615019565b5b906000526020600020906007020160060160009054906101000a900473ffffffffffffffffffffffffffffffffffffffff1673ffffffffffffffffffffffffffffffffffffffff1673ffffffffffffffffffffffffffffffffffffffff1681526020019081526020016000208281548110612c9457612c93615019565b5b9060005260206000209060070201600001541415612e1957600760008573ffffffffffffffffffffffffffffffffffffffff1673ffffffffffffffffffffffffffffffffffffffff1681526020019081526020016000208281548110612cfd57612cfc615019565b5b906000526020600020906007020160040154600b6000600760008873ffffffffffffffffffffffffffffffffffffffff1673ffffffffffffffffffffffffffffffffffffffff168152602001908152602001600020600081548110612d6557612d64615019565b5b906000526020600020906007020160060160009054906101000a900473ffffffffffffffffffffffffffffffffffffffff1673ffffffffffffffffffffffffffffffffffffffff1673ffffffffffffffffffffffffffffffffffffffff1681526020019081526020016000208281548110612de357612de2615019565b5b90600052602060002090600702016004016000828254612e039190614dda565b925050819055508180612e1590614f43565b9250505b612b13565b8080612e2990614f43565b915050612a45565b505b6000600760008573ffffffffffffffffffffffffffffffffffffffff1673ffffffffffffffffffffffffffffffffffffffff168152602001908152602001600020805490501115612f4a57600760008473ffffffffffffffffffffffffffffffffffffffff1673ffffffffffffffffffffffffffffffffffffffff168152602001908152602001600020805480612ecd57612ecc614fea565b5b6001900381819060005260206000209060070201600080820160009055600182016000612efa9190613ee2565b60028201600090556003820160009055600482016000905560058201600090556006820160006101000a81549073ffffffffffffffffffffffffffffffffffffffff021916905550509055612e33565b505050565b612f57613d7c565b6000600460008481526020019081526020016000206040518060e001604052908160008201548152602001600182018054612f9190614ee0565b80601f0160208091040260200160405190810160405280929190818152602001828054612fbd90614ee0565b801561300a5780601f10612fdf5761010080835404028352916020019161300a565b820191906000526020600020905b815481529060010190602001808311612fed57829003601f168201915b50505050508152602001600282015481526020016003820154815260200160048201548152602001600582015481526020016006820160009054906101000a900473ffffffffffffffffffffffffffffffffffffffff1673ffffffffffffffffffffffffffffffffffffffff1673ffffffffffffffffffffffffffffffffffffffff1681525050905080915050919050565b6000600660008573ffffffffffffffffffffffffffffffffffffffff1673ffffffffffffffffffffffffffffffffffffffff16815260200190815260200160002060010180546130eb90614ee0565b9050111561312e576040517f08c379a000000000000000000000000000000000000000000000000000000000815260040161312590614b5b565b60405180910390fd5b60405180606001604052808473ffffffffffffffffffffffffffffffffffffffff16815260200183815260200182815250600660008573ffffffffffffffffffffffffffffffffffffffff1673ffffffffffffffffffffffffffffffffffffffff16815260200190815260200160002060008201518160000160006101000a81548173ffffffffffffffffffffffffffffffffffffffff021916908373ffffffffffffffffffffffffffffffffffffffff1602179055506020820151816001019080519060200190613201929190613dcf565b50604082015181600201908051906020019061321e929190613dcf565b509050506008839080600181540180825580915050600190039060005260206000200160009091909190916101000a81548173ffffffffffffffffffffffffffffffffffffffff021916908373ffffffffffffffffffffffffffffffffffffffff160217905550505050565b6000805b600b60008473ffffffffffffffffffffffffffffffffffffffff1673ffffffffffffffffffffffffffffffffffffffff168152602001908152602001600020805490508110156133c557600b60008473ffffffffffffffffffffffffffffffffffffffff1673ffffffffffffffffffffffffffffffffffffffff168152602001908152602001600020818154811061332957613328615019565b5b9060005260206000209060070201600001548514156133b2576001915083600b60008573ffffffffffffffffffffffffffffffffffffffff1673ffffffffffffffffffffffffffffffffffffffff168152602001908152602001600020828154811061339857613397615019565b5b9060005260206000209060070201600401819055506133c5565b80806133bd90614f43565b91505061328e565b50806133ed576133ec60405180606001604052806026815260200161510b60269139610ad9565b5b50505050565b6000816000806101000a81548173ffffffffffffffffffffffffffffffffffffffff021916908373ffffffffffffffffffffffffffffffffffffffff16021790555060008054906101000a900473ffffffffffffffffffffffffffffffffffffffff1673ffffffffffffffffffffffffffffffffffffffff166108fc349081150290604051600060405180830381858888f1935050505015801561349b573d6000803e3d6000fd5b507ffc1ff50638c53d8cb428005e102107cffd2da1840abf5289da2981b8e99c642060008054906101000a900473ffffffffffffffffffffffffffffffffffffffff16600260009054906101000a900473ffffffffffffffffffffffffffffffffffffffff163460405161351193929190614a4a565b60405180910390a160019050919050565b60606000600880549050905060008167ffffffffffffffff81111561354a57613549615048565b5b60405190808252806020026020018201604052801561358357816020015b613570613d45565b8152602001906001900390816135685790505b50905060005b828110156137ca576000600882815481106135a7576135a6615019565b5b9060005260206000200160009054906101000a900473ffffffffffffffffffffffffffffffffffffffff169050600660008273ffffffffffffffffffffffffffffffffffffffff1673ffffffffffffffffffffffffffffffffffffffff1681526020019081526020016000206040518060600160405290816000820160009054906101000a900473ffffffffffffffffffffffffffffffffffffffff1673ffffffffffffffffffffffffffffffffffffffff1673ffffffffffffffffffffffffffffffffffffffff16815260200160018201805461368490614ee0565b80601f01602080910402602001604051908101604052809291908181526020018280546136b090614ee0565b80156136fd5780601f106136d2576101008083540402835291602001916136fd565b820191906000526020600020905b8154815290600101906020018083116136e057829003601f168201915b5050505050815260200160028201805461371690614ee0565b80601f016020809104026020016040519081016040528092919081815260200182805461374290614ee0565b801561378f5780601f106137645761010080835404028352916020019161378f565b820191906000526020600020905b81548152906001019060200180831161377257829003601f168201915b5050505050815250508383815181106137ab576137aa615019565b5b60200260200101819052505080806137c290614f43565b915050613589565b50809250505090565b6060600760008373ffffffffffffffffffffffffffffffffffffffff1673ffffffffffffffffffffffffffffffffffffffff168152602001908152602001600020805480602002602001604051908101604052809291908181526020016000905b8282101561398057838290600052602060002090600702016040518060e00160405290816000820154815260200160018201805461387190614ee0565b80601f016020809104026020016040519081016040528092919081815260200182805461389d90614ee0565b80156138ea5780601f106138bf576101008083540402835291602001916138ea565b820191906000526020600020905b8154815290600101906020018083116138cd57829003601f168201915b50505050508152602001600282015481526020016003820154815260200160048201548152602001600582015481526020016006820160009054906101000a900473ffffffffffffffffffffffffffffffffffffffff1673ffffffffffffffffffffffffffffffffffffffff1673ffffffffffffffffffffffffffffffffffffffff168152505081526020019060010190613834565b505050509050919050565b6060600e6000600d60008573ffffffffffffffffffffffffffffffffffffffff1673ffffffffffffffffffffffffffffffffffffffff168152602001908152602001600020548152602001908152602001600020805480602002602001604051908101604052809291908181526020016000905b82821015613b4b57838290600052602060002090600702016040518060e001604052908160008201548152602001600182018054613a3c90614ee0565b80601f0160208091040260200160405190810160405280929190818152602001828054613a6890614ee0565b8015613ab55780601f10613a8a57610100808354040283529160200191613ab5565b820191906000526020600020905b815481529060010190602001808311613a9857829003601f168201915b50505050508152602001600282015481526020016003820154815260200160048201548152602001600582015481526020016006820160009054906101000a900473ffffffffffffffffffffffffffffffffffffffff1673ffffffffffffffffffffffffffffffffffffffff1673ffffffffffffffffffffffffffffffffffffffff1681525050815260200190600101906139ff565b505050509050919050565b6060600b60008373ffffffffffffffffffffffffffffffffffffffff1673ffffffffffffffffffffffffffffffffffffffff168152602001908152602001600020805480602002602001604051908101604052809291908181526020016000905b82821015613d0357838290600052602060002090600702016040518060e001604052908160008201548152602001600182018054613bf490614ee0565b80601f0160208091040260200160405190810160405280929190818152602001828054613c2090614ee0565b8015613c6d5780601f10613c4257610100808354040283529160200191613c6d565b820191906000526020600020905b815481529060010190602001808311613c5057829003601f168201915b50505050508152602001600282015481526020016003820154815260200160048201548152602001600582015481526020016006820160009054906101000a900473ffffffffffffffffffffffffffffffffffffffff1673ffffffffffffffffffffffffffffffffffffffff1673ffffffffffffffffffffffffffffffffffffffff168152505081526020019060010190613bb7565b505050509050919050565b6040518060600160405280600073ffffffffffffffffffffffffffffffffffffffff16815260200160608152602001606081525090565b6040518060600160405280600073ffffffffffffffffffffffffffffffffffffffff16815260200160608152602001606081525090565b6040518060e00160405280600081526020016060815260200160008152602001600081526020016000815260200160008152602001600073ffffffffffffffffffffffffffffffffffffffff1681525090565b828054613ddb90614ee0565b90600052602060002090601f016020900481019282613dfd5760008555613e44565b82601f10613e1657805160ff1916838001178555613e44565b82800160010185558215613e44579182015b82811115613e43578251825591602001919060010190613e28565b5b509050613e519190614033565b5090565b828054613e6190614ee0565b90600052602060002090601f016020900481019282613e835760008555613ed1565b82601f10613e945780548555613ed1565b82800160010185558215613ed157600052602060002091601f016020900482015b82811115613ed0578254825591600101919060010190613eb5565b5b509050613ede9190614033565b5090565b508054613eee90614ee0565b6000825580601f10613f005750613f1f565b601f016020900490600052602060002090810190613f1e9190614033565b5b50565b8280548282559060005260206000209060070281019282156140225760005260206000209160070282015b82811115614021578282600082015481600001556001820181600101908054613f7590614ee0565b613f80929190613e55565b50600282015481600201556003820154816003015560048201548160040155600582015481600501556006820160009054906101000a900473ffffffffffffffffffffffffffffffffffffffff168160060160006101000a81548173ffffffffffffffffffffffffffffffffffffffff021916908373ffffffffffffffffffffffffffffffffffffffff160217905550505091600701919060070190613f4d565b5b50905061402f9190614050565b5090565b5b8082111561404c576000816000905550600101614034565b5090565b5b808211156140c2576000808201600090556001820160006140729190613ee2565b60028201600090556003820160009055600482016000905560058201600090556006820160006101000a81549073ffffffffffffffffffffffffffffffffffffffff021916905550600701614051565b5090565b60006140d96140d484614c21565b614bfc565b9050828152602081018484840111156140f5576140f461507c565b5b614100848285614e9e565b509392505050565b600081359050614117816150c5565b92915050565b60008135905061412c816150dc565b92915050565b600082601f83011261414757614146615077565b5b81356141578482602086016140c6565b91505092915050565b60008135905061416f816150f3565b92915050565b60006020828403121561418b5761418a615086565b5b600061419984828501614108565b91505092915050565b6000602082840312156141b8576141b7615086565b5b60006141c68482850161411d565b91505092915050565b6000806000606084860312156141e8576141e7615086565b5b60006141f686828701614108565b935050602084013567ffffffffffffffff81111561421757614216615081565b5b61422386828701614132565b925050604084013567ffffffffffffffff81111561424457614243615081565b5b61425086828701614132565b9150509250925092565b6000806040838503121561427157614270615086565b5b600061427f85828601614108565b925050602061429085828601614160565b9150509250929050565b600080600080600080600060e0888a0312156142b9576142b8615086565b5b60006142c78a828b01614108565b97505060206142d88a828b01614160565b965050604088013567ffffffffffffffff8111156142f9576142f8615081565b5b6143058a828b01614132565b95505060606143168a828b01614160565b94505060806143278a828b01614160565b93505060a06143388a828b01614160565b92505060c06143498a828b0161411d565b91505092959891949750929550565b60008060006060848603121561437157614370615086565b5b600061437f86828701614108565b935050602061439086828701614160565b92505060406143a186828701614160565b9150509250925092565b6000602082840312156143c1576143c0615086565b5b600082013567ffffffffffffffff8111156143df576143de615081565b5b6143eb84828501614132565b91505092915050565b60008060008060008060c0878903121561441157614410615086565b5b600087013567ffffffffffffffff81111561442f5761442e615081565b5b61443b89828a01614132565b965050602061444c89828a01614160565b955050604061445d89828a01614160565b945050606061446e89828a01614160565b935050608061447f89828a0161411d565b92505060a061449089828a01614160565b9150509295509295509295565b6000602082840312156144b3576144b2615086565b5b60006144c184828501614160565b91505092915050565b6000806000606084860312156144e3576144e2615086565b5b60006144f186828701614160565b935050602061450286828701614160565b925050604061451386828701614108565b9150509250925092565b60006145298383614798565b905092915050565b600061453d83836148d0565b905092915050565b6000614551838361497e565b905092915050565b61456281614e68565b82525050565b61457181614e20565b82525050565b61458081614e20565b82525050565b61458f81614e0e565b82525050565b60006145a082614c82565b6145aa8185614cd5565b9350836020820285016145bc85614c52565b8060005b858110156145f857848403895281516145d9858261451d565b94506145e483614cae565b925060208a019950506001810190506145c0565b50829750879550505050505092915050565b600061461582614c8d565b61461f8185614ce6565b93508360208202850161463185614c62565b8060005b8581101561466d578484038952815161464e8582614531565b945061465983614cbb565b925060208a01995050600181019050614635565b50829750879550505050505092915050565b600061468a82614c98565b6146948185614cf7565b9350836020820285016146a685614c72565b8060005b858110156146e257848403895281516146c38582614545565b94506146ce83614cc8565b925060208a019950506001810190506146aa565b50829750879550505050505092915050565b6146fd81614e32565b82525050565b600061470e82614ca3565b6147188185614d08565b9350614728818560208601614ead565b6147318161508b565b840191505092915050565b600061474782614ca3565b6147518185614d19565b9350614761818560208601614ead565b61476a8161508b565b840191505092915050565b6000614782600b83614d19565b915061478d8261509c565b602082019050919050565b600060e0830160008301516147b06000860182614a2c565b50602083015184820360208601526147c88282614703565b91505060408301516147dd6040860182614a2c565b5060608301516147f06060860182614a2c565b5060808301516148036080860182614a2c565b5060a083015161481660a0860182614a2c565b5060c083015161482960c0860182614568565b508091505092915050565b600060e08301600083015161484c6000860182614a2c565b50602083015184820360208601526148648282614703565b91505060408301516148796040860182614a2c565b50606083015161488c6060860182614a2c565b50608083015161489f6080860182614a2c565b5060a08301516148b260a0860182614a2c565b5060c08301516148c560c0860182614568565b508091505092915050565b60006060830160008301516148e86000860182614586565b50602083015184820360208601526149008282614703565b9150506040830151848203604086015261491a8282614703565b9150508091505092915050565b600060608301600083015161493f6000860182614586565b50602083015184820360208601526149578282614703565b915050604083015184820360408601526149718282614703565b9150508091505092915050565b60006060830160008301516149966000860182614586565b50602083015184820360208601526149ae8282614703565b915050604083015184820360408601526149c88282614703565b9150508091505092915050565b60006060830160008301516149ed6000860182614586565b5060208301518482036020860152614a058282614703565b91505060408301518482036040860152614a1f8282614703565b9150508091505092915050565b614a3581614e5e565b82525050565b614a4481614e5e565b82525050565b6000606082019050614a5f6000830186614577565b614a6c6020830185614577565b614a796040830184614a3b565b949350505050565b6000606082019050614a966000830186614559565b614aa36020830185614559565b614ab06040830184614a3b565b949350505050565b60006020820190508181036000830152614ad28184614595565b905092915050565b60006020820190508181036000830152614af4818461460a565b905092915050565b60006020820190508181036000830152614b16818461467f565b905092915050565b6000602082019050614b3360008301846146f4565b92915050565b60006020820190508181036000830152614b53818461473c565b905092915050565b60006020820190508181036000830152614b7481614775565b9050919050565b60006020820190508181036000830152614b958184614834565b905092915050565b60006020820190508181036000830152614bb78184614927565b905092915050565b60006020820190508181036000830152614bd981846149d5565b905092915050565b6000602082019050614bf66000830184614a3b565b92915050565b6000614c06614c17565b9050614c128282614f12565b919050565b6000604051905090565b600067ffffffffffffffff821115614c3c57614c3b615048565b5b614c458261508b565b9050602081019050919050565b6000819050602082019050919050565b6000819050602082019050919050565b6000819050602082019050919050565b600081519050919050565b600081519050919050565b600081519050919050565b600081519050919050565b6000602082019050919050565b6000602082019050919050565b6000602082019050919050565b600082825260208201905092915050565b600082825260208201905092915050565b600082825260208201905092915050565b600082825260208201905092915050565b600082825260208201905092915050565b6000614d3582614e5e565b9150614d4083614e5e565b9250827fffffffffffffffffffffffffffffffffffffffffffffffffffffffffffffffff03821115614d7557614d74614f8c565b5b828201905092915050565b6000614d8b82614e5e565b9150614d9683614e5e565b9250817fffffffffffffffffffffffffffffffffffffffffffffffffffffffffffffffff0483118215151615614dcf57614dce614f8c565b5b828202905092915050565b6000614de582614e5e565b9150614df083614e5e565b925082821015614e0357614e02614f8c565b5b828203905092915050565b6000614e1982614e3e565b9050919050565b6000614e2b82614e3e565b9050919050565b60008115159050919050565b600073ffffffffffffffffffffffffffffffffffffffff82169050919050565b6000819050919050565b6000614e7382614e7a565b9050919050565b6000614e8582614e8c565b9050919050565b6000614e9782614e3e565b9050919050565b82818337600083830152505050565b60005b83811015614ecb578082015181840152602081019050614eb0565b83811115614eda576000848401525b50505050565b60006002820490506001821680614ef857607f821691505b60208210811415614f0c57614f0b614fbb565b5b50919050565b614f1b8261508b565b810181811067ffffffffffffffff82111715614f3a57614f39615048565b5b80604052505050565b6000614f4e82614e5e565b91507fffffffffffffffffffffffffffffffffffffffffffffffffffffffffffffffff821415614f8157614f80614f8c565b5b600182019050919050565b7f4e487b7100000000000000000000000000000000000000000000000000000000600052601160045260246000fd5b7f4e487b7100000000000000000000000000000000000000000000000000000000600052602260045260246000fd5b7f4e487b7100000000000000000000000000000000000000000000000000000000600052603160045260246000fd5b7f4e487b7100000000000000000000000000000000000000000000000000000000600052603260045260246000fd5b7f4e487b7100000000000000000000000000000000000000000000000000000000600052604160045260246000fd5b600080fd5b600080fd5b600080fd5b600080fd5b6000601f19601f8301169050919050565b7f5553455220455849535453000000000000000000000000000000000000000000600082015250565b6150ce81614e0e565b81146150d957600080fd5b50565b6150e581614e20565b81146150f057600080fd5b50565b6150fc81614e5e565b811461510757600080fd5b5056fe5472792077697468206974656d20616c7265616479206578697374696e6720696e2063617274a26469706673582212205d5cd87aeb98e016991e2dc6992f4e06909081debc6ba25acddec207e29dc9bf64736f6c63430008070033",
  "immutableReferences": {},
  "source": "//SPDX-License-Identifier: Unlicense\r\npragma solidity ^0.8.4;\r\n\r\ncontract Payment {\r\n    // address origenTransferencia;\r\n    address payable destinoTransferencia;\r\n    uint montoTransferencia;\r\n\r\n    // constructor() {\r\n    //     origenTransferencia = msg.sender;\r\n    // }\r\n\r\n    event TransferirMonto(\r\n        address payable _destinoTransferencia,\r\n        address payable _origenTransferencia,\r\n        uint montoTransferencia\r\n    );\r\n\r\n    function nuevaTransaccion(\r\n        address payable _destinoTransferencia\r\n    ) public payable returns (bool) {\r\n        destinoTransferencia = _destinoTransferencia;\r\n        destinoTransferencia.transfer(msg.value);\r\n        emit TransferirMonto(destinoTransferencia, from, msg.value);\r\n        return true;\r\n    }\r\n\r\n    function verBalanceCuenta() public pure returns (uint) {\r\n        return 1000;\r\n    }\r\n\r\n    function getAll() public pure returns (uint) {\r\n        return 1000;\r\n    }\r\n\r\n    // }\r\n\r\n    // contract Transfer {\r\n    address payable from;\r\n    address payable to;\r\n\r\n    constructor() {\r\n        from = payable(msg.sender);\r\n    }\r\n\r\n    event Pay(address _to, address _from, uint amt);\r\n\r\n    function pay(address payable _to) public payable returns (bool) {\r\n        to = _to;\r\n        to.transfer(msg.value);\r\n        emit Pay(to, from, msg.value);\r\n        return true;\r\n    }\r\n\r\n    // using Counters for Counters.Counter;\r\n\r\n    ///\r\n    /// only owner modifier is inherited from imported dependencies\r\n    ///\r\n\r\n    function isRetailer() public view returns (bool) {\r\n        for (uint256 i = 0; i < retailerIds.length; i++) {\r\n            if (msg.sender == retailerIds[i]) {\r\n                return true;\r\n            }\r\n        }\r\n    }\r\n\r\n    modifier onlyRetailer() {\r\n        require(isRetailer());\r\n        _;\r\n    }\r\n\r\n    modifier onlyUser() {\r\n        require(isUser());\r\n        _;\r\n    }\r\n\r\n    function isUser() public view returns (bool) {\r\n        for (uint256 i = 0; i < userIds.length; i++) {\r\n            if (msg.sender == userIds[i]) {\r\n                return true;\r\n            }\r\n        }\r\n    }\r\n\r\n    // Counters.Counter private _tokenIdCounter;\r\n    // address public scOwner;\r\n\r\n    // constructor() ERC721(\"Test2\", \"IC\") {\r\n    //     scOwner = msg.sender;\r\n    //     // Start token ID at 1. By default is starts at 0.\r\n    //     _tokenIdCounter.increment();\r\n    // }\r\n\r\n    //print\r\n    event LogMessage(string message);\r\n\r\n    function print(string memory message) public {\r\n        emit LogMessage(message);\r\n    }\r\n\r\n    struct ItemStruct {\r\n        uint256 itemId;\r\n        string itemName;\r\n        uint256 categoryId;\r\n        uint256 itemPrice;\r\n        uint256 quantity;\r\n        uint256 pricePerQuantity;\r\n        address payable sellerId;\r\n    }\r\n\r\n    //start of items section\r\n    mapping(uint256 => ItemStruct) private items; // mapping from item id to item details\r\n    uint256[] private itemIds; // array of all item ids\r\n\r\n    function getItemById(\r\n        uint256 itemId\r\n    ) public view returns (ItemStruct memory) {\r\n        ItemStruct memory item = items[itemId];\r\n        return item;\r\n    }\r\n\r\n    function getAllItems() public view returns (ItemStruct[] memory) {\r\n        uint256 itemCount = itemIds.length;\r\n        ItemStruct[] memory itemsArray = new ItemStruct[](itemCount);\r\n        for (uint256 i = 0; i < itemCount; i++) {\r\n            uint256 itemId = itemIds[i];\r\n            itemsArray[i] = items[itemId];\r\n        }\r\n        return itemsArray;\r\n    }\r\n\r\n    struct UserStruct {\r\n        address userId;\r\n        string userName;\r\n        string homeAddress;\r\n    }\r\n\r\n    //end of item section\r\n\r\n    //start of user section\r\n    mapping(address => UserStruct) private idToUser;\r\n    mapping(address => ItemStruct[]) private userIdToCartList;\r\n    address[] private userIds;\r\n\r\n    function addUser(\r\n        address userId,\r\n        string memory name,\r\n        string memory homeAddr\r\n    ) public {\r\n        if (bytes(idToUser[userId].userName).length > 0) {\r\n            revert(\"USER EXISTS\");\r\n        }\r\n        idToUser[userId] = UserStruct(userId, name, homeAddr);\r\n        userIds.push(userId);\r\n    }\r\n\r\n    function getAllUsers() public view returns (UserStruct[] memory) {\r\n        uint256 userCount = userIds.length;\r\n        UserStruct[] memory resUsers = new UserStruct[](userCount);\r\n        for (uint256 i = 0; i < userCount; i++) {\r\n            address tempId = userIds[i];\r\n            resUsers[i] = idToUser[tempId];\r\n        }\r\n        // UserStruct[] memory temp = new UserStruct[](2);\r\n        // temp[0] = UserStruct(0x67B82548B0d34cBc6d993583d6130e2a5f76C8EA, \"name 1\", \"addr 1\");\r\n        // temp[1] = UserStruct(0xb2a9a8f7a803E3Ba1783c0F8226C0cce1CD65650, \"name 2\", \"addr 2s\");\r\n\r\n        return resUsers;\r\n    }\r\n\r\n    function getUserById(\r\n        address userId\r\n    ) public view returns (UserStruct memory) {\r\n        UserStruct memory user = idToUser[userId];\r\n        return user;\r\n    }\r\n\r\n    //cart operations\r\n\r\n    function addItemToCart(\r\n        address userId,\r\n        uint256 itemId,\r\n        string memory name,\r\n        uint256 catId,\r\n        uint256 price,\r\n        uint256 quantity,\r\n        address payable sellerId\r\n    ) public {\r\n        ItemStruct memory temp = ItemStruct(\r\n            itemId,\r\n            name,\r\n            catId,\r\n            price,\r\n            quantity,\r\n            price * quantity,\r\n            sellerId\r\n        );\r\n        userIdToCartList[userId].push(temp);\r\n    }\r\n\r\n    function viewCart(\r\n        address userId\r\n    ) public view returns (ItemStruct[] memory) {\r\n        return userIdToCartList[userId];\r\n    }\r\n\r\n    function updateCart(\r\n        address userId,\r\n        uint256 itemId,\r\n        uint256 newQuant\r\n    ) public {\r\n        bool isExists = false;\r\n        for (uint256 i = 0; i < userIdToCartList[userId].length; i++) {\r\n            if (itemId == userIdToCartList[userId][i].itemId) {\r\n                isExists = true;\r\n                userIdToCartList[userId][i].quantity = newQuant;\r\n                break;\r\n            }\r\n        }\r\n        if (!isExists) {\r\n            print(\"Try with item already existing in cart\");\r\n        }\r\n    }\r\n\r\n    function removeItemFromCart(\r\n        address userId,\r\n        uint256 itemId\r\n    ) public returns (ItemStruct[] memory) {\r\n        uint256 itemIndx = 0;\r\n        bool isExists = false;\r\n        for (uint256 i = 0; i < userIdToCartList[userId].length; i++) {\r\n            if (itemId == userIdToCartList[userId][i].itemId) {\r\n                isExists = true;\r\n                itemIndx = i;\r\n                break;\r\n            }\r\n        }\r\n\r\n        if (isExists) {\r\n            uint256 i = 0;\r\n            for (i = itemIndx; i < userIdToCartList[userId].length - 1; i++) {\r\n                userIdToCartList[userId][i] = userIdToCartList[userId][i + 1];\r\n            }\r\n            userIdToCartList[userId].pop();\r\n            return userIdToCartList[userId];\r\n        }\r\n        return userIdToCartList[userId];\r\n    }\r\n\r\n    //end of user section\r\n\r\n    //start of retailer section\r\n\r\n    struct RetailerStruct {\r\n        address retailerId;\r\n        string retailerName;\r\n        string homeAddress;\r\n    }\r\n\r\n    mapping(address => RetailerStruct) private idToRetailer;\r\n    address[] private retailerIds;\r\n    mapping(address => ItemStruct[]) retailerToInv;\r\n\r\n    function addRetailer(\r\n        address retailerId,\r\n        string memory name,\r\n        string memory homeAddr\r\n    ) public {\r\n        if (bytes(idToRetailer[retailerId].retailerName).length > 0) {\r\n            revert(\"USER EXISTS\");\r\n        }\r\n        idToRetailer[retailerId] = RetailerStruct(retailerId, name, homeAddr);\r\n        retailerIds.push(retailerId);\r\n    }\r\n\r\n    function getRetailerById(\r\n        address retId\r\n    ) public view returns (RetailerStruct memory) {\r\n        RetailerStruct memory retailer = idToRetailer[retId];\r\n        return retailer;\r\n    }\r\n\r\n    function getAllRetailer() public view returns (RetailerStruct[] memory) {\r\n        uint256 userCount = retailerIds.length;\r\n        RetailerStruct[] memory resUsers = new RetailerStruct[](userCount);\r\n        for (uint256 i = 0; i < userCount; i++) {\r\n            address tempId = retailerIds[i];\r\n            resUsers[i] = idToRetailer[tempId];\r\n        }\r\n        return resUsers;\r\n    }\r\n\r\n    //retailer functions\r\n    function addnewItemToInvt(\r\n        string memory name,\r\n        uint256 catId,\r\n        uint256 price,\r\n        uint256 quantity,\r\n        address payable sellerId,\r\n        uint256 itemId\r\n    ) public {\r\n        //check if itemID exists\r\n        for (uint256 i = 0; i < itemIds.length; i++) {\r\n            if (itemIds[i] == itemId) {\r\n                print(\"try different ID\");\r\n                return;\r\n            }\r\n        }\r\n        ItemStruct memory temp = ItemStruct(\r\n            itemId,\r\n            name,\r\n            catId,\r\n            price,\r\n            quantity,\r\n            price * quantity,\r\n            sellerId\r\n        );\r\n        retailerToInv[sellerId].push(temp);\r\n        //update items mapping\r\n        items[itemId] = temp;\r\n        itemIds.push(itemId);\r\n    }\r\n\r\n    function viewInventory(\r\n        address sellerId\r\n    ) public view returns (ItemStruct[] memory) {\r\n        return retailerToInv[sellerId];\r\n    }\r\n\r\n    // should also handle price change\r\n    function UpdateInventory(\r\n        uint256 itemId,\r\n        uint256 newQuant,\r\n        address sellerId\r\n    ) public {\r\n        bool isExists = false;\r\n        for (uint256 i = 0; i < retailerToInv[sellerId].length; i++) {\r\n            if (itemId == retailerToInv[sellerId][i].itemId) {\r\n                isExists = true;\r\n                retailerToInv[sellerId][i].quantity = newQuant;\r\n                break;\r\n            }\r\n        }\r\n        if (!isExists) {\r\n            print(\"Try with item already existing in cart\");\r\n        }\r\n    }\r\n\r\n    function removeItemInventory(address retailerId, uint256 itemId) public {\r\n        uint256 itemIndx = 0;\r\n        bool isExists = false;\r\n        for (uint256 i = 0; i < retailerToInv[retailerId].length; i++) {\r\n            if (itemId == retailerToInv[retailerId][i].itemId) {\r\n                isExists = true;\r\n                itemIndx = i;\r\n                break;\r\n            }\r\n        }\r\n\r\n        if (isExists) {\r\n            uint256 i = 0;\r\n            for (i = itemIndx; i < retailerToInv[retailerId].length - 1; i++) {\r\n                retailerToInv[retailerId][i] = retailerToInv[retailerId][i + 1];\r\n            }\r\n            retailerToInv[retailerId].pop();\r\n        }\r\n\r\n        for (uint256 i = 0; i < itemIds.length; i++) {\r\n            if (itemIds[i] == itemId) {\r\n                for (uint256 j = i; j < itemIds.length - 1; j++) {\r\n                    itemIds[j] = itemIds[j + 1];\r\n                }\r\n                itemIds.pop();\r\n                break;\r\n            }\r\n        }\r\n    }\r\n\r\n    uint256 orderIdCounter = 0;\r\n    mapping(address => uint256) userToOrderId;\r\n    mapping(uint256 => ItemStruct[]) orderToDetails;\r\n\r\n    struct OrderDetailsStruct {\r\n        address retailerId;\r\n        uint256 orderAmount;\r\n    }\r\n\r\n    mapping(uint256 => OrderDetailsStruct) orderIdToDetails;\r\n\r\n    event PlaceOrderEvent(\r\n        address payable _destinoTransferencia,\r\n        address payable _origenTransferencia,\r\n        uint montoTransferencia\r\n    );\r\n\r\n\r\n    function preOrderTransaction(\r\n        address payable _destinoTransferencia\r\n    ) public payable returns (bool) {\r\n        destinoTransferencia = _destinoTransferencia;\r\n        destinoTransferencia.transfer(msg.value);\r\n        emit TransferirMonto(destinoTransferencia, from, msg.value);\r\n        return true;\r\n    }\r\n\r\n    function placeOrderNew(\r\n        address retId,\r\n        uint256 orderId,\r\n        uint256 orderAmount\r\n    ) public payable returns (bool) {\r\n        payable(retId).transfer(msg.value);\r\n        userToOrderId[from] = orderId;\r\n        \r\n        OrderDetailsStruct memory temp = OrderDetailsStruct(retId, orderAmount);\r\n        orderIdToDetails[orderId] = (temp);\r\n\r\n        emit PlaceOrderEvent(payable(retId), from, msg.value);\r\n        return true;\r\n    }\r\n\r\n    function viewOrdersByUserId(\r\n        address userId\r\n    ) public view returns (ItemStruct[] memory) {\r\n        return orderToDetails[userToOrderId[userId]];\r\n    }\r\n\r\n    function placeOrder(address userId) public payable {\r\n        //require(totalSupply() < MAX_SUPPLY, \"Can't mint anymore tokens.\");\r\n\r\n        //check if payment is more than min amount\r\n        // ItemStruct[] memory temp = userIdToCartList[userId];\r\n        uint256 final_amount = 0;\r\n        for (uint256 i = 0; i < userIdToCartList[userId].length; i++) {\r\n            final_amount += userIdToCartList[userId][i].pricePerQuantity;\r\n        }\r\n\r\n        userIdToCartList[userId][0].sellerId.transfer(final_amount);\r\n        userToOrderId[userId] = orderIdCounter;\r\n        orderToDetails[orderIdCounter] = userIdToCartList[userId];\r\n        orderIdCounter++;\r\n\r\n        // ItemStruct[] memory prevInv = retailerToInv[userIdToCartList[userId][0].sellerId];\r\n        uint256 j = 0;\r\n        // uint256 k =0;\r\n        for (\r\n            uint256 i = 0;\r\n            i < retailerToInv[userIdToCartList[userId][0].sellerId].length;\r\n            i++\r\n        ) {\r\n            while (j < userIdToCartList[userId].length) {\r\n                if (\r\n                    retailerToInv[userIdToCartList[userId][0].sellerId][i]\r\n                        .itemId == userIdToCartList[userId][j].itemId\r\n                ) {\r\n                    retailerToInv[userIdToCartList[userId][0].sellerId][i]\r\n                        .quantity -= userIdToCartList[userId][j].quantity;\r\n                    j++;\r\n                }\r\n            }\r\n        }\r\n\r\n        while (userIdToCartList[userId].length > 0) {\r\n            userIdToCartList[userId].pop();\r\n        }\r\n\r\n        // require(final_amount >= 5, \"Wont get any NFT\");\r\n        // uint256 tokenId = _tokenIdCounter.current();\r\n        // _tokenIdCounter.increment();\r\n        // _safeMint(userId, tokenId);\r\n    }\r\n\r\n    // function viewOrdersByRetailerId(address retailerId) public view returns(ItemStruct[] memory) {\r\n\r\n    // }\r\n\r\n    /*\r\n    //===============================================//\r\n    // ===== 5. Other Functions ===== //\r\n\r\n    function _baseURI() internal pure override returns (string memory) {\r\n        return \"ipfs://happyMonkeyBaseURI/\";\r\n    }\r\n\r\n    function _beforeTokenTransfer(address from, address to, uint256 tokenId) internal\r\n        override(ERC721, ERC721Enumerable)\r\n    {\r\n        super._beforeTokenTransfer(from, to, tokenId);\r\n    }\r\n\r\n    // The following functions are overrides required by Solidity.\r\n\r\n    function supportsInterface(bytes4 interfaceId)\r\n        public\r\n        view\r\n        override(ERC721, ERC721Enumerable)\r\n        returns (bool)\r\n    {\r\n        return super.supportsInterface(interfaceId);\r\n    }\r\n    */\r\n}\r\n",
  "sourcePath": "C:\\Users\\manda\\Desktop\\526 project\\test 2\\AngularTruffle\\Blockchain\\contracts\\Payment.sol",
  "compiler": {
    "name": "solc",
    "version": "0.8.7+commit.e28d00a7.Emscripten.clang"
  },
  "schemaVersion": "3.4.13",
  "updatedAt": "2023-04-30T23:17:12.774Z",
  "devdoc": {
    "kind": "dev",
    "methods": {},
    "version": 1
  },
  "userdoc": {
    "kind": "user",
    "methods": {
      "isRetailer()": {
        "notice": " only owner modifier is inherited from imported dependencies"
      }
    },
    "version": 1
  }
}