{
  "contractName": "Payment",
  "abi": [
    {
      "inputs": [],
      "stateMutability": "nonpayable",
      "type": "constructor"
    },
    {
      "anonymous": false,
      "inputs": [
        {
          "indexed": true,
          "internalType": "address",
          "name": "owner",
          "type": "address"
        },
        {
          "indexed": true,
          "internalType": "address",
          "name": "approved",
          "type": "address"
        },
        {
          "indexed": true,
          "internalType": "uint256",
          "name": "tokenId",
          "type": "uint256"
        }
      ],
      "name": "Approval",
      "type": "event"
    },
    {
      "anonymous": false,
      "inputs": [
        {
          "indexed": true,
          "internalType": "address",
          "name": "owner",
          "type": "address"
        },
        {
          "indexed": true,
          "internalType": "address",
          "name": "operator",
          "type": "address"
        },
        {
          "indexed": false,
          "internalType": "bool",
          "name": "approved",
          "type": "bool"
        }
      ],
      "name": "ApprovalForAll",
      "type": "event"
    },
    {
      "anonymous": false,
      "inputs": [
        {
          "indexed": false,
          "internalType": "string",
          "name": "message",
          "type": "string"
        }
      ],
      "name": "LogMessage",
      "type": "event"
    },
    {
      "anonymous": false,
      "inputs": [
        {
          "indexed": true,
          "internalType": "address",
          "name": "previousOwner",
          "type": "address"
        },
        {
          "indexed": true,
          "internalType": "address",
          "name": "newOwner",
          "type": "address"
        }
      ],
      "name": "OwnershipTransferred",
      "type": "event"
    },
    {
      "anonymous": false,
      "inputs": [
        {
          "indexed": false,
          "internalType": "address payable",
          "name": "_to",
          "type": "address"
        },
        {
          "indexed": false,
          "internalType": "address payable",
          "name": "_from",
          "type": "address"
        },
        {
          "indexed": false,
          "internalType": "uint256",
          "name": "amt",
          "type": "uint256"
        }
      ],
      "name": "PayOrder",
      "type": "event"
    },
    {
      "anonymous": false,
      "inputs": [
        {
          "indexed": true,
          "internalType": "address",
          "name": "from",
          "type": "address"
        },
        {
          "indexed": true,
          "internalType": "address",
          "name": "to",
          "type": "address"
        },
        {
          "indexed": true,
          "internalType": "uint256",
          "name": "tokenId",
          "type": "uint256"
        }
      ],
      "name": "Transfer",
      "type": "event"
    },
    {
      "anonymous": false,
      "inputs": [
        {
          "indexed": false,
          "internalType": "address payable",
          "name": "_destinoTransferencia",
          "type": "address"
        },
        {
          "indexed": false,
          "internalType": "address payable",
          "name": "_origenTransferencia",
          "type": "address"
        },
        {
          "indexed": false,
          "internalType": "uint256",
          "name": "montoTransferencia",
          "type": "uint256"
        }
      ],
      "name": "TransferirMonto",
      "type": "event"
    },
    {
      "inputs": [],
      "name": "MAX_SUPPLY",
      "outputs": [
        {
          "internalType": "uint256",
          "name": "",
          "type": "uint256"
        }
      ],
      "stateMutability": "view",
      "type": "function"
    },
    {
      "inputs": [],
      "name": "MINT_PRICE",
      "outputs": [
        {
          "internalType": "uint256",
          "name": "",
          "type": "uint256"
        }
      ],
      "stateMutability": "view",
      "type": "function"
    },
    {
      "inputs": [
        {
          "internalType": "address",
          "name": "to",
          "type": "address"
        },
        {
          "internalType": "uint256",
          "name": "tokenId",
          "type": "uint256"
        }
      ],
      "name": "approve",
      "outputs": [],
      "stateMutability": "nonpayable",
      "type": "function"
    },
    {
      "inputs": [
        {
          "internalType": "address",
          "name": "owner",
          "type": "address"
        }
      ],
      "name": "balanceOf",
      "outputs": [
        {
          "internalType": "uint256",
          "name": "",
          "type": "uint256"
        }
      ],
      "stateMutability": "view",
      "type": "function"
    },
    {
      "inputs": [
        {
          "internalType": "uint256",
          "name": "tokenId",
          "type": "uint256"
        }
      ],
      "name": "getApproved",
      "outputs": [
        {
          "internalType": "address",
          "name": "",
          "type": "address"
        }
      ],
      "stateMutability": "view",
      "type": "function"
    },
    {
      "inputs": [
        {
          "internalType": "address",
          "name": "owner",
          "type": "address"
        },
        {
          "internalType": "address",
          "name": "operator",
          "type": "address"
        }
      ],
      "name": "isApprovedForAll",
      "outputs": [
        {
          "internalType": "bool",
          "name": "",
          "type": "bool"
        }
      ],
      "stateMutability": "view",
      "type": "function"
    },
    {
      "inputs": [],
      "name": "name",
      "outputs": [
        {
          "internalType": "string",
          "name": "",
          "type": "string"
        }
      ],
      "stateMutability": "view",
      "type": "function"
    },
    {
      "inputs": [],
      "name": "owner",
      "outputs": [
        {
          "internalType": "address",
          "name": "",
          "type": "address"
        }
      ],
      "stateMutability": "view",
      "type": "function"
    },
    {
      "inputs": [
        {
          "internalType": "uint256",
          "name": "tokenId",
          "type": "uint256"
        }
      ],
      "name": "ownerOf",
      "outputs": [
        {
          "internalType": "address",
          "name": "",
          "type": "address"
        }
      ],
      "stateMutability": "view",
      "type": "function"
    },
    {
      "inputs": [],
      "name": "renounceOwnership",
      "outputs": [],
      "stateMutability": "nonpayable",
      "type": "function"
    },
    {
      "inputs": [
        {
          "internalType": "address",
          "name": "from",
          "type": "address"
        },
        {
          "internalType": "address",
          "name": "to",
          "type": "address"
        },
        {
          "internalType": "uint256",
          "name": "tokenId",
          "type": "uint256"
        }
      ],
      "name": "safeTransferFrom",
      "outputs": [],
      "stateMutability": "nonpayable",
      "type": "function"
    },
    {
      "inputs": [
        {
          "internalType": "address",
          "name": "from",
          "type": "address"
        },
        {
          "internalType": "address",
          "name": "to",
          "type": "address"
        },
        {
          "internalType": "uint256",
          "name": "tokenId",
          "type": "uint256"
        },
        {
          "internalType": "bytes",
          "name": "data",
          "type": "bytes"
        }
      ],
      "name": "safeTransferFrom",
      "outputs": [],
      "stateMutability": "nonpayable",
      "type": "function"
    },
    {
      "inputs": [
        {
          "internalType": "address",
          "name": "operator",
          "type": "address"
        },
        {
          "internalType": "bool",
          "name": "approved",
          "type": "bool"
        }
      ],
      "name": "setApprovalForAll",
      "outputs": [],
      "stateMutability": "nonpayable",
      "type": "function"
    },
    {
      "inputs": [],
      "name": "symbol",
      "outputs": [
        {
          "internalType": "string",
          "name": "",
          "type": "string"
        }
      ],
      "stateMutability": "view",
      "type": "function"
    },
    {
      "inputs": [
        {
          "internalType": "uint256",
          "name": "index",
          "type": "uint256"
        }
      ],
      "name": "tokenByIndex",
      "outputs": [
        {
          "internalType": "uint256",
          "name": "",
          "type": "uint256"
        }
      ],
      "stateMutability": "view",
      "type": "function"
    },
    {
      "inputs": [
        {
          "internalType": "address",
          "name": "owner",
          "type": "address"
        },
        {
          "internalType": "uint256",
          "name": "index",
          "type": "uint256"
        }
      ],
      "name": "tokenOfOwnerByIndex",
      "outputs": [
        {
          "internalType": "uint256",
          "name": "",
          "type": "uint256"
        }
      ],
      "stateMutability": "view",
      "type": "function"
    },
    {
      "inputs": [
        {
          "internalType": "uint256",
          "name": "tokenId",
          "type": "uint256"
        }
      ],
      "name": "tokenURI",
      "outputs": [
        {
          "internalType": "string",
          "name": "",
          "type": "string"
        }
      ],
      "stateMutability": "view",
      "type": "function"
    },
    {
      "inputs": [],
      "name": "totalSupply",
      "outputs": [
        {
          "internalType": "uint256",
          "name": "",
          "type": "uint256"
        }
      ],
      "stateMutability": "view",
      "type": "function"
    },
    {
      "inputs": [
        {
          "internalType": "address",
          "name": "from",
          "type": "address"
        },
        {
          "internalType": "address",
          "name": "to",
          "type": "address"
        },
        {
          "internalType": "uint256",
          "name": "tokenId",
          "type": "uint256"
        }
      ],
      "name": "transferFrom",
      "outputs": [],
      "stateMutability": "nonpayable",
      "type": "function"
    },
    {
      "inputs": [
        {
          "internalType": "address",
          "name": "newOwner",
          "type": "address"
        }
      ],
      "name": "transferOwnership",
      "outputs": [],
      "stateMutability": "nonpayable",
      "type": "function"
    },
    {
      "inputs": [
        {
          "internalType": "address payable",
          "name": "_destinoTransferencia",
          "type": "address"
        }
      ],
      "name": "nuevaTransaccion",
      "outputs": [
        {
          "internalType": "bool",
          "name": "",
          "type": "bool"
        }
      ],
      "stateMutability": "payable",
      "type": "function"
    },
    {
      "inputs": [],
      "name": "verBalanceCuenta",
      "outputs": [
        {
          "internalType": "uint256",
          "name": "",
          "type": "uint256"
        }
      ],
      "stateMutability": "pure",
      "type": "function"
    },
    {
      "inputs": [],
      "name": "getAll",
      "outputs": [
        {
          "internalType": "uint256",
          "name": "",
          "type": "uint256"
        }
      ],
      "stateMutability": "pure",
      "type": "function"
    },
    {
      "inputs": [
        {
          "internalType": "address payable",
          "name": "_to",
          "type": "address"
        }
      ],
      "name": "pay",
      "outputs": [
        {
          "internalType": "bool",
          "name": "",
          "type": "bool"
        }
      ],
      "stateMutability": "payable",
      "type": "function"
    },
    {
      "inputs": [
        {
          "internalType": "string",
          "name": "message",
          "type": "string"
        }
      ],
      "name": "print",
      "outputs": [],
      "stateMutability": "nonpayable",
      "type": "function"
    },
    {
      "inputs": [
        {
          "internalType": "address",
          "name": "retId",
          "type": "address"
        },
        {
          "internalType": "uint256",
          "name": "orderId",
          "type": "uint256"
        },
        {
          "internalType": "uint256",
          "name": "orderAmount",
          "type": "uint256"
        }
      ],
      "name": "placeOrderNew",
      "outputs": [
        {
          "internalType": "bool",
          "name": "",
          "type": "bool"
        }
      ],
      "stateMutability": "nonpayable",
      "type": "function"
    },
    {
      "inputs": [
        {
          "internalType": "bytes4",
          "name": "interfaceId",
          "type": "bytes4"
        }
      ],
      "name": "supportsInterface",
      "outputs": [
        {
          "internalType": "bool",
          "name": "",
          "type": "bool"
        }
      ],
      "stateMutability": "view",
      "type": "function"
    }
  ],
  "bytecode": "0x608060405266b1a2bc2ec50000600b556064600c5560006011553480156200002657600080fd5b506040518060400160405280600581526020017f54657374320000000000000000000000000000000000000000000000000000008152506040518060400160405280600281526020017f49430000000000000000000000000000000000000000000000000000000000008152508160009080519060200190620000ab92919062000229565b508060019080519060200190620000c492919062000229565b505050620000e7620000db6200014560201b60201c565b6200014d60201b60201c565b620000fe60106200021360201b620013611760201c565b33600e60006101000a81548173ffffffffffffffffffffffffffffffffffffffff021916908373ffffffffffffffffffffffffffffffffffffffff1602179055506200033e565b600033905090565b6000600a60009054906101000a900473ffffffffffffffffffffffffffffffffffffffff16905081600a60006101000a81548173ffffffffffffffffffffffffffffffffffffffff021916908373ffffffffffffffffffffffffffffffffffffffff1602179055508173ffffffffffffffffffffffffffffffffffffffff168173ffffffffffffffffffffffffffffffffffffffff167f8be0079c531659141344cd1fd0a4f28419497f9722a3daafe3b4186f6b6457e060405160405180910390a35050565b6001816000016000828254019250508190555050565b8280546200023790620002d9565b90600052602060002090601f0160209004810192826200025b5760008555620002a7565b82601f106200027657805160ff1916838001178555620002a7565b82800160010185558215620002a7579182015b82811115620002a657825182559160200191906001019062000289565b5b509050620002b69190620002ba565b5090565b5b80821115620002d5576000816000905550600101620002bb565b5090565b60006002820490506001821680620002f257607f821691505b602082108114156200030957620003086200030f565b5b50919050565b7f4e487b7100000000000000000000000000000000000000000000000000000000600052602260045260246000fd5b613c7a806200034e6000396000f3fe60806040526004361061019c5760003560e01c80636352211e116100ec578063a22cb4651161008a578063c87b56dd11610064578063c87b56dd146105e1578063e005f9201461061e578063e985e9c51461064e578063f2fde38b1461068b5761019c565b8063a22cb46514610564578063b88d4fde1461058d578063c002d23d146105b65761019c565b806372e713ac116100c657806372e713ac146104a657806384d0eeae146104d15780638da5cb5b1461050e57806395d89b41146105395761019c565b80636352211e1461041557806370a0823114610452578063715018a61461048f5761019c565b806318160ddd1161015957806332cb6b0c1161013357806332cb6b0c1461035957806342842e0e146103845780634f6ccce7146103ad57806353ed5143146103ea5761019c565b806318160ddd146102c857806323b872dd146102f35780632f745c591461031c5761019c565b806301ffc9a7146101a157806306fdde03146101de578063081812fc14610209578063095ea7b3146102465780630c11dedd1461026f57806311114af11461029f575b600080fd5b3480156101ad57600080fd5b506101c860048036038101906101c39190612cf2565b6106b4565b6040516101d59190613193565b60405180910390f35b3480156101ea57600080fd5b506101f36106c6565b60405161020091906131ae565b60405180910390f35b34801561021557600080fd5b50610230600480360381019061022b9190612d95565b610758565b60405161023d91906130f5565b60405180910390f35b34801561025257600080fd5b5061026d60048036038101906102689190612c5f565b61079e565b005b61028960048036038101906102849190612adc565b6108b6565b6040516102969190613193565b60405180910390f35b3480156102ab57600080fd5b506102c660048036038101906102c19190612d4c565b6109ea565b005b3480156102d457600080fd5b506102dd610a24565b6040516102ea91906133d0565b60405180910390f35b3480156102ff57600080fd5b5061031a60048036038101906103159190612b49565b610a31565b005b34801561032857600080fd5b50610343600480360381019061033e9190612c5f565b610a91565b60405161035091906133d0565b60405180910390f35b34801561036557600080fd5b5061036e610b36565b60405161037b91906133d0565b60405180910390f35b34801561039057600080fd5b506103ab60048036038101906103a69190612b49565b610b3c565b005b3480156103b957600080fd5b506103d460048036038101906103cf9190612d95565b610b5c565b6040516103e191906133d0565b60405180910390f35b3480156103f657600080fd5b506103ff610bcd565b60405161040c91906133d0565b60405180910390f35b34801561042157600080fd5b5061043c60048036038101906104379190612d95565b610bd7565b60405161044991906130f5565b60405180910390f35b34801561045e57600080fd5b5061047960048036038101906104749190612aaf565b610c5e565b60405161048691906133d0565b60405180910390f35b34801561049b57600080fd5b506104a4610d16565b005b3480156104b257600080fd5b506104bb610d2a565b6040516104c891906133d0565b60405180910390f35b3480156104dd57600080fd5b506104f860048036038101906104f39190612c9f565b610d34565b6040516105059190613193565b60405180910390f35b34801561051a57600080fd5b50610523610f73565b60405161053091906130f5565b60405180910390f35b34801561054557600080fd5b5061054e610f9d565b60405161055b91906131ae565b60405180910390f35b34801561057057600080fd5b5061058b60048036038101906105869190612c1f565b61102f565b005b34801561059957600080fd5b506105b460048036038101906105af9190612b9c565b611045565b005b3480156105c257600080fd5b506105cb6110a7565b6040516105d891906133d0565b60405180910390f35b3480156105ed57600080fd5b5061060860048036038101906106039190612d95565b6110ad565b60405161061591906131ae565b60405180910390f35b61063860048036038101906106339190612adc565b611115565b6040516106459190613193565b60405180910390f35b34801561065a57600080fd5b5061067560048036038101906106709190612b09565b611249565b6040516106829190613193565b60405180910390f35b34801561069757600080fd5b506106b260048036038101906106ad9190612aaf565b6112dd565b005b60006106bf82611377565b9050919050565b6060600080546106d5906135b1565b80601f0160208091040260200160405190810160405280929190818152602001828054610701906135b1565b801561074e5780601f106107235761010080835404028352916020019161074e565b820191906000526020600020905b81548152906001019060200180831161073157829003601f168201915b5050505050905090565b6000610763826113f1565b6004600083815260200190815260200160002060009054906101000a900473ffffffffffffffffffffffffffffffffffffffff169050919050565b60006107a982610bd7565b90508073ffffffffffffffffffffffffffffffffffffffff168373ffffffffffffffffffffffffffffffffffffffff16141561081a576040517f08c379a000000000000000000000000000000000000000000000000000000000815260040161081190613350565b60405180910390fd5b8073ffffffffffffffffffffffffffffffffffffffff1661083961143c565b73ffffffffffffffffffffffffffffffffffffffff16148061086857506108678161086261143c565b611249565b5b6108a7576040517f08c379a000000000000000000000000000000000000000000000000000000000815260040161089e90613370565b60405180910390fd5b6108b18383611444565b505050565b600081600f60006101000a81548173ffffffffffffffffffffffffffffffffffffffff021916908373ffffffffffffffffffffffffffffffffffffffff160217905550600f60009054906101000a900473ffffffffffffffffffffffffffffffffffffffff1673ffffffffffffffffffffffffffffffffffffffff166108fc349081150290604051600060405180830381858888f19350505050158015610961573d6000803e3d6000fd5b507f1797af7097a35c572d1669c7177ce87811fa1b1db6d7b878d030562bc9b66e28600f60009054906101000a900473ffffffffffffffffffffffffffffffffffffffff16600e60009054906101000a900473ffffffffffffffffffffffffffffffffffffffff16346040516109d993929190613110565b60405180910390a160019050919050565b7f96561394bac381230de4649200e8831afcab1f451881bbade9ef209f6dd3048081604051610a1991906131ae565b60405180910390a150565b6000600880549050905090565b610a42610a3c61143c565b826114fd565b610a81576040517f08c379a0000000000000000000000000000000000000000000000000000000008152600401610a78906131d0565b60405180910390fd5b610a8c838383611592565b505050565b6000610a9c83610c5e565b8210610add576040517f08c379a0000000000000000000000000000000000000000000000000000000008152600401610ad4906131f0565b60405180910390fd5b600660008473ffffffffffffffffffffffffffffffffffffffff1673ffffffffffffffffffffffffffffffffffffffff168152602001908152602001600020600083815260200190815260200160002054905092915050565b600c5481565b610b5783838360405180602001604052806000815250611045565b505050565b6000610b66610a24565b8210610ba7576040517f08c379a0000000000000000000000000000000000000000000000000000000008152600401610b9e90613390565b60405180910390fd5b60088281548110610bbb57610bba6136d0565b5b90600052602060002001549050919050565b60006103e8905090565b600080610be38361188c565b9050600073ffffffffffffffffffffffffffffffffffffffff168173ffffffffffffffffffffffffffffffffffffffff161415610c55576040517f08c379a0000000000000000000000000000000000000000000000000000000008152600401610c4c90613330565b60405180910390fd5b80915050919050565b60008073ffffffffffffffffffffffffffffffffffffffff168273ffffffffffffffffffffffffffffffffffffffff161415610ccf576040517f08c379a0000000000000000000000000000000000000000000000000000000008152600401610cc6906132d0565b60405180910390fd5b600360008373ffffffffffffffffffffffffffffffffffffffff1673ffffffffffffffffffffffffffffffffffffffff168152602001908152602001600020549050919050565b610d1e6118c9565b610d286000611947565b565b60006103e8905090565b60008260126000600e60009054906101000a900473ffffffffffffffffffffffffffffffffffffffff1673ffffffffffffffffffffffffffffffffffffffff1673ffffffffffffffffffffffffffffffffffffffff16815260200190815260200160002081905550600060405180604001604052808673ffffffffffffffffffffffffffffffffffffffff168152602001848152509050806013600086815260200190815260200160002060008201518160000160006101000a81548173ffffffffffffffffffffffffffffffffffffffff021916908373ffffffffffffffffffffffffffffffffffffffff1602179055506020820151816001015590505060058310610f67576000610e476010611a0d565b9050610e536010611361565b610e7f600e60009054906101000a900473ffffffffffffffffffffffffffffffffffffffff1682611a1b565b600060405180604001604052808381526020016040518060800160405280604c8152602001613bf9604c9139815250905060146000600e60009054906101000a900473ffffffffffffffffffffffffffffffffffffffff1673ffffffffffffffffffffffffffffffffffffffff1673ffffffffffffffffffffffffffffffffffffffff168152602001908152602001600020819080600181540180825580915050600190039060005260206000209060020201600090919091909150600082015181600001556020820151816001019080519060200190610f619291906128ae565b50505050505b60019150509392505050565b6000600a60009054906101000a900473ffffffffffffffffffffffffffffffffffffffff16905090565b606060018054610fac906135b1565b80601f0160208091040260200160405190810160405280929190818152602001828054610fd8906135b1565b80156110255780601f10610ffa57610100808354040283529160200191611025565b820191906000526020600020905b81548152906001019060200180831161100857829003601f168201915b5050505050905090565b61104161103a61143c565b8383611a39565b5050565b61105661105061143c565b836114fd565b611095576040517f08c379a000000000000000000000000000000000000000000000000000000000815260040161108c906131d0565b60405180910390fd5b6110a184848484611ba6565b50505050565b600b5481565b60606110b8826113f1565b60006110c2611c02565b905060008151116110e2576040518060200160405280600081525061110d565b806110ec84611c3f565b6040516020016110fd9291906130d1565b6040516020818303038152906040525b915050919050565b600081600d60006101000a81548173ffffffffffffffffffffffffffffffffffffffff021916908373ffffffffffffffffffffffffffffffffffffffff160217905550600d60009054906101000a900473ffffffffffffffffffffffffffffffffffffffff1673ffffffffffffffffffffffffffffffffffffffff166108fc349081150290604051600060405180830381858888f193505050501580156111c0573d6000803e3d6000fd5b507ffc1ff50638c53d8cb428005e102107cffd2da1840abf5289da2981b8e99c6420600d60009054906101000a900473ffffffffffffffffffffffffffffffffffffffff16600e60009054906101000a900473ffffffffffffffffffffffffffffffffffffffff163460405161123893929190613110565b60405180910390a160019050919050565b6000600560008473ffffffffffffffffffffffffffffffffffffffff1673ffffffffffffffffffffffffffffffffffffffff16815260200190815260200160002060008373ffffffffffffffffffffffffffffffffffffffff1673ffffffffffffffffffffffffffffffffffffffff16815260200190815260200160002060009054906101000a900460ff16905092915050565b6112e56118c9565b600073ffffffffffffffffffffffffffffffffffffffff168173ffffffffffffffffffffffffffffffffffffffff161415611355576040517f08c379a000000000000000000000000000000000000000000000000000000000815260040161134c90613230565b60405180910390fd5b61135e81611947565b50565b6001816000016000828254019250508190555050565b60007f780e9d63000000000000000000000000000000000000000000000000000000007bffffffffffffffffffffffffffffffffffffffffffffffffffffffff1916827bffffffffffffffffffffffffffffffffffffffffffffffffffffffff191614806113ea57506113e982611d17565b5b9050919050565b6113fa81611df9565b611439576040517f08c379a000000000000000000000000000000000000000000000000000000000815260040161143090613330565b60405180910390fd5b50565b600033905090565b816004600083815260200190815260200160002060006101000a81548173ffffffffffffffffffffffffffffffffffffffff021916908373ffffffffffffffffffffffffffffffffffffffff160217905550808273ffffffffffffffffffffffffffffffffffffffff166114b783610bd7565b73ffffffffffffffffffffffffffffffffffffffff167f8c5be1e5ebec7d5bd14f71427d1e84f3dd0314c0f7b2291e5b200ac8c7c3b92560405160405180910390a45050565b60008061150983610bd7565b90508073ffffffffffffffffffffffffffffffffffffffff168473ffffffffffffffffffffffffffffffffffffffff16148061154b575061154a8185611249565b5b8061158957508373ffffffffffffffffffffffffffffffffffffffff1661157184610758565b73ffffffffffffffffffffffffffffffffffffffff16145b91505092915050565b8273ffffffffffffffffffffffffffffffffffffffff166115b282610bd7565b73ffffffffffffffffffffffffffffffffffffffff1614611608576040517f08c379a00000000000000000000000000000000000000000000000000000000081526004016115ff90613250565b60405180910390fd5b600073ffffffffffffffffffffffffffffffffffffffff168273ffffffffffffffffffffffffffffffffffffffff161415611678576040517f08c379a000000000000000000000000000000000000000000000000000000000815260040161166f90613290565b60405180910390fd5b6116858383836001611e3a565b8273ffffffffffffffffffffffffffffffffffffffff166116a582610bd7565b73ffffffffffffffffffffffffffffffffffffffff16146116fb576040517f08c379a00000000000000000000000000000000000000000000000000000000081526004016116f290613250565b60405180910390fd5b6004600082815260200190815260200160002060006101000a81549073ffffffffffffffffffffffffffffffffffffffff02191690556001600360008573ffffffffffffffffffffffffffffffffffffffff1673ffffffffffffffffffffffffffffffffffffffff168152602001908152602001600020600082825403925050819055506001600360008473ffffffffffffffffffffffffffffffffffffffff1673ffffffffffffffffffffffffffffffffffffffff16815260200190815260200160002060008282540192505081905550816002600083815260200190815260200160002060006101000a81548173ffffffffffffffffffffffffffffffffffffffff021916908373ffffffffffffffffffffffffffffffffffffffff160217905550808273ffffffffffffffffffffffffffffffffffffffff168473ffffffffffffffffffffffffffffffffffffffff167fddf252ad1be2c89b69c2b068fc378daa952ba7f163c4a11628f55a4df523b3ef60405160405180910390a46118878383836001611e4c565b505050565b60006002600083815260200190815260200160002060009054906101000a900473ffffffffffffffffffffffffffffffffffffffff169050919050565b6118d161143c565b73ffffffffffffffffffffffffffffffffffffffff166118ef610f73565b73ffffffffffffffffffffffffffffffffffffffff1614611945576040517f08c379a000000000000000000000000000000000000000000000000000000000815260040161193c90613310565b60405180910390fd5b565b6000600a60009054906101000a900473ffffffffffffffffffffffffffffffffffffffff16905081600a60006101000a81548173ffffffffffffffffffffffffffffffffffffffff021916908373ffffffffffffffffffffffffffffffffffffffff1602179055508173ffffffffffffffffffffffffffffffffffffffff168173ffffffffffffffffffffffffffffffffffffffff167f8be0079c531659141344cd1fd0a4f28419497f9722a3daafe3b4186f6b6457e060405160405180910390a35050565b600081600001549050919050565b611a35828260405180602001604052806000815250611e52565b5050565b8173ffffffffffffffffffffffffffffffffffffffff168373ffffffffffffffffffffffffffffffffffffffff161415611aa8576040517f08c379a0000000000000000000000000000000000000000000000000000000008152600401611a9f906132b0565b60405180910390fd5b80600560008573ffffffffffffffffffffffffffffffffffffffff1673ffffffffffffffffffffffffffffffffffffffff16815260200190815260200160002060008473ffffffffffffffffffffffffffffffffffffffff1673ffffffffffffffffffffffffffffffffffffffff16815260200190815260200160002060006101000a81548160ff0219169083151502179055508173ffffffffffffffffffffffffffffffffffffffff168373ffffffffffffffffffffffffffffffffffffffff167f17307eab39ab6107e8899845ad3d59bd9653f200f220920489ca2b5937696c3183604051611b999190613193565b60405180910390a3505050565b611bb1848484611592565b611bbd84848484611ead565b611bfc576040517f08c379a0000000000000000000000000000000000000000000000000000000008152600401611bf390613210565b60405180910390fd5b50505050565b60606040518060400160405280601a81526020017f697066733a2f2f68617070794d6f6e6b6579426173655552492f000000000000815250905090565b606060006001611c4e84612044565b01905060008167ffffffffffffffff811115611c6d57611c6c6136ff565b5b6040519080825280601f01601f191660200182016040528015611c9f5781602001600182028036833780820191505090505b509050600082602001820190505b600115611d0c578080600190039150507f3031323334353637383961626364656600000000000000000000000000000000600a86061a8153600a8581611cf657611cf5613643565b5b0494506000851415611d0757611d0c565b611cad565b819350505050919050565b60007f80ac58cd000000000000000000000000000000000000000000000000000000007bffffffffffffffffffffffffffffffffffffffffffffffffffffffff1916827bffffffffffffffffffffffffffffffffffffffffffffffffffffffff19161480611de257507f5b5e139f000000000000000000000000000000000000000000000000000000007bffffffffffffffffffffffffffffffffffffffffffffffffffffffff1916827bffffffffffffffffffffffffffffffffffffffffffffffffffffffff1916145b80611df25750611df182612197565b5b9050919050565b60008073ffffffffffffffffffffffffffffffffffffffff16611e1b8361188c565b73ffffffffffffffffffffffffffffffffffffffff1614159050919050565b611e4684848484612201565b50505050565b50505050565b611e5c8383612361565b611e696000848484611ead565b611ea8576040517f08c379a0000000000000000000000000000000000000000000000000000000008152600401611e9f90613210565b60405180910390fd5b505050565b6000611ece8473ffffffffffffffffffffffffffffffffffffffff1661257f565b15612037578373ffffffffffffffffffffffffffffffffffffffff1663150b7a02611ef761143c565b8786866040518563ffffffff1660e01b8152600401611f199493929190613147565b602060405180830381600087803b158015611f3357600080fd5b505af1925050508015611f6457506040513d601f19601f82011682018060405250810190611f619190612d1f565b60015b611fe7573d8060008114611f94576040519150601f19603f3d011682016040523d82523d6000602084013e611f99565b606091505b50600081511415611fdf576040517f08c379a0000000000000000000000000000000000000000000000000000000008152600401611fd690613210565b60405180910390fd5b805181602001fd5b63150b7a0260e01b7bffffffffffffffffffffffffffffffffffffffffffffffffffffffff1916817bffffffffffffffffffffffffffffffffffffffffffffffffffffffff19161491505061203c565b600190505b949350505050565b600080600090507a184f03e93ff9f4daa797ed6e38ed64bf6a1f01000000000000000083106120a2577a184f03e93ff9f4daa797ed6e38ed64bf6a1f010000000000000000838161209857612097613643565b5b0492506040810190505b6d04ee2d6d415b85acef810000000083106120df576d04ee2d6d415b85acef810000000083816120d5576120d4613643565b5b0492506020810190505b662386f26fc10000831061210e57662386f26fc10000838161210457612103613643565b5b0492506010810190505b6305f5e1008310612137576305f5e100838161212d5761212c613643565b5b0492506008810190505b612710831061215c57612710838161215257612151613643565b5b0492506004810190505b6064831061217f576064838161217557612174613643565b5b0492506002810190505b600a831061218e576001810190505b80915050919050565b60007f01ffc9a7000000000000000000000000000000000000000000000000000000007bffffffffffffffffffffffffffffffffffffffffffffffffffffffff1916827bffffffffffffffffffffffffffffffffffffffffffffffffffffffff1916149050919050565b61220d848484846125a2565b6001811115612251576040517f08c379a0000000000000000000000000000000000000000000000000000000008152600401612248906133b0565b60405180910390fd5b6000829050600073ffffffffffffffffffffffffffffffffffffffff168573ffffffffffffffffffffffffffffffffffffffff16141561229957612294816125a8565b6122d8565b8373ffffffffffffffffffffffffffffffffffffffff168573ffffffffffffffffffffffffffffffffffffffff16146122d7576122d685826125f1565b5b5b600073ffffffffffffffffffffffffffffffffffffffff168473ffffffffffffffffffffffffffffffffffffffff16141561231b576123168161275e565b61235a565b8473ffffffffffffffffffffffffffffffffffffffff168473ffffffffffffffffffffffffffffffffffffffff161461235957612358848261282f565b5b5b5050505050565b600073ffffffffffffffffffffffffffffffffffffffff168273ffffffffffffffffffffffffffffffffffffffff1614156123d1576040517f08c379a00000000000000000000000000000000000000000000000000000000081526004016123c8906132f0565b60405180910390fd5b6123da81611df9565b1561241a576040517f08c379a000000000000000000000000000000000000000000000000000000000815260040161241190613270565b60405180910390fd5b612428600083836001611e3a565b61243181611df9565b15612471576040517f08c379a000000000000000000000000000000000000000000000000000000000815260040161246890613270565b60405180910390fd5b6001600360008473ffffffffffffffffffffffffffffffffffffffff1673ffffffffffffffffffffffffffffffffffffffff16815260200190815260200160002060008282540192505081905550816002600083815260200190815260200160002060006101000a81548173ffffffffffffffffffffffffffffffffffffffff021916908373ffffffffffffffffffffffffffffffffffffffff160217905550808273ffffffffffffffffffffffffffffffffffffffff16600073ffffffffffffffffffffffffffffffffffffffff167fddf252ad1be2c89b69c2b068fc378daa952ba7f163c4a11628f55a4df523b3ef60405160405180910390a461257b600083836001611e4c565b5050565b6000808273ffffffffffffffffffffffffffffffffffffffff163b119050919050565b50505050565b6008805490506009600083815260200190815260200160002081905550600881908060018154018082558091505060019003906000526020600020016000909190919091505550565b600060016125fe84610c5e565b61260891906134b5565b90506000600760008481526020019081526020016000205490508181146126ed576000600660008673ffffffffffffffffffffffffffffffffffffffff1673ffffffffffffffffffffffffffffffffffffffff168152602001908152602001600020600084815260200190815260200160002054905080600660008773ffffffffffffffffffffffffffffffffffffffff1673ffffffffffffffffffffffffffffffffffffffff168152602001908152602001600020600084815260200190815260200160002081905550816007600083815260200190815260200160002081905550505b6007600084815260200190815260200160002060009055600660008573ffffffffffffffffffffffffffffffffffffffff1673ffffffffffffffffffffffffffffffffffffffff16815260200190815260200160002060008381526020019081526020016000206000905550505050565b6000600160088054905061277291906134b5565b90506000600960008481526020019081526020016000205490506000600883815481106127a2576127a16136d0565b5b9060005260206000200154905080600883815481106127c4576127c36136d0565b5b906000526020600020018190555081600960008381526020019081526020016000208190555060096000858152602001908152602001600020600090556008805480612813576128126136a1565b5b6001900381819060005260206000200160009055905550505050565b600061283a83610c5e565b905081600660008573ffffffffffffffffffffffffffffffffffffffff1673ffffffffffffffffffffffffffffffffffffffff168152602001908152602001600020600083815260200190815260200160002081905550806007600084815260200190815260200160002081905550505050565b8280546128ba906135b1565b90600052602060002090601f0160209004810192826128dc5760008555612923565b82601f106128f557805160ff1916838001178555612923565b82800160010185558215612923579182015b82811115612922578251825591602001919060010190612907565b5b5090506129309190612934565b5090565b5b8082111561294d576000816000905550600101612935565b5090565b600061296461295f84613410565b6133eb565b9050828152602081018484840111156129805761297f613733565b5b61298b84828561356f565b509392505050565b60006129a66129a184613441565b6133eb565b9050828152602081018484840111156129c2576129c1613733565b5b6129cd84828561356f565b509392505050565b6000813590506129e481613b85565b92915050565b6000813590506129f981613b9c565b92915050565b600081359050612a0e81613bb3565b92915050565b600081359050612a2381613bca565b92915050565b600081519050612a3881613bca565b92915050565b600082601f830112612a5357612a5261372e565b5b8135612a63848260208601612951565b91505092915050565b600082601f830112612a8157612a8061372e565b5b8135612a91848260208601612993565b91505092915050565b600081359050612aa981613be1565b92915050565b600060208284031215612ac557612ac461373d565b5b6000612ad3848285016129d5565b91505092915050565b600060208284031215612af257612af161373d565b5b6000612b00848285016129ea565b91505092915050565b60008060408385031215612b2057612b1f61373d565b5b6000612b2e858286016129d5565b9250506020612b3f858286016129d5565b9150509250929050565b600080600060608486031215612b6257612b6161373d565b5b6000612b70868287016129d5565b9350506020612b81868287016129d5565b9250506040612b9286828701612a9a565b9150509250925092565b60008060008060808587031215612bb657612bb561373d565b5b6000612bc4878288016129d5565b9450506020612bd5878288016129d5565b9350506040612be687828801612a9a565b925050606085013567ffffffffffffffff811115612c0757612c06613738565b5b612c1387828801612a3e565b91505092959194509250565b60008060408385031215612c3657612c3561373d565b5b6000612c44858286016129d5565b9250506020612c55858286016129ff565b9150509250929050565b60008060408385031215612c7657612c7561373d565b5b6000612c84858286016129d5565b9250506020612c9585828601612a9a565b9150509250929050565b600080600060608486031215612cb857612cb761373d565b5b6000612cc6868287016129d5565b9350506020612cd786828701612a9a565b9250506040612ce886828701612a9a565b9150509250925092565b600060208284031215612d0857612d0761373d565b5b6000612d1684828501612a14565b91505092915050565b600060208284031215612d3557612d3461373d565b5b6000612d4384828501612a29565b91505092915050565b600060208284031215612d6257612d6161373d565b5b600082013567ffffffffffffffff811115612d8057612d7f613738565b5b612d8c84828501612a6c565b91505092915050565b600060208284031215612dab57612daa61373d565b5b6000612db984828501612a9a565b91505092915050565b612dcb816134fb565b82525050565b612dda816134e9565b82525050565b612de98161350d565b82525050565b6000612dfa82613472565b612e048185613488565b9350612e1481856020860161357e565b612e1d81613742565b840191505092915050565b6000612e338261347d565b612e3d8185613499565b9350612e4d81856020860161357e565b612e5681613742565b840191505092915050565b6000612e6c8261347d565b612e7681856134aa565b9350612e8681856020860161357e565b80840191505092915050565b6000612e9f602d83613499565b9150612eaa82613753565b604082019050919050565b6000612ec2602b83613499565b9150612ecd826137a2565b604082019050919050565b6000612ee5603283613499565b9150612ef0826137f1565b604082019050919050565b6000612f08602683613499565b9150612f1382613840565b604082019050919050565b6000612f2b602583613499565b9150612f368261388f565b604082019050919050565b6000612f4e601c83613499565b9150612f59826138de565b602082019050919050565b6000612f71602483613499565b9150612f7c82613907565b604082019050919050565b6000612f94601983613499565b9150612f9f82613956565b602082019050919050565b6000612fb7602983613499565b9150612fc28261397f565b604082019050919050565b6000612fda602083613499565b9150612fe5826139ce565b602082019050919050565b6000612ffd602083613499565b9150613008826139f7565b602082019050919050565b6000613020601883613499565b915061302b82613a20565b602082019050919050565b6000613043602183613499565b915061304e82613a49565b604082019050919050565b6000613066603d83613499565b915061307182613a98565b604082019050919050565b6000613089602c83613499565b915061309482613ae7565b604082019050919050565b60006130ac603583613499565b91506130b782613b36565b604082019050919050565b6130cb81613565565b82525050565b60006130dd8285612e61565b91506130e98284612e61565b91508190509392505050565b600060208201905061310a6000830184612dd1565b92915050565b60006060820190506131256000830186612dc2565b6131326020830185612dc2565b61313f60408301846130c2565b949350505050565b600060808201905061315c6000830187612dd1565b6131696020830186612dd1565b61317660408301856130c2565b81810360608301526131888184612def565b905095945050505050565b60006020820190506131a86000830184612de0565b92915050565b600060208201905081810360008301526131c88184612e28565b905092915050565b600060208201905081810360008301526131e981612e92565b9050919050565b6000602082019050818103600083015261320981612eb5565b9050919050565b6000602082019050818103600083015261322981612ed8565b9050919050565b6000602082019050818103600083015261324981612efb565b9050919050565b6000602082019050818103600083015261326981612f1e565b9050919050565b6000602082019050818103600083015261328981612f41565b9050919050565b600060208201905081810360008301526132a981612f64565b9050919050565b600060208201905081810360008301526132c981612f87565b9050919050565b600060208201905081810360008301526132e981612faa565b9050919050565b6000602082019050818103600083015261330981612fcd565b9050919050565b6000602082019050818103600083015261332981612ff0565b9050919050565b6000602082019050818103600083015261334981613013565b9050919050565b6000602082019050818103600083015261336981613036565b9050919050565b6000602082019050818103600083015261338981613059565b9050919050565b600060208201905081810360008301526133a98161307c565b9050919050565b600060208201905081810360008301526133c98161309f565b9050919050565b60006020820190506133e560008301846130c2565b92915050565b60006133f5613406565b905061340182826135e3565b919050565b6000604051905090565b600067ffffffffffffffff82111561342b5761342a6136ff565b5b61343482613742565b9050602081019050919050565b600067ffffffffffffffff82111561345c5761345b6136ff565b5b61346582613742565b9050602081019050919050565b600081519050919050565b600081519050919050565b600082825260208201905092915050565b600082825260208201905092915050565b600081905092915050565b60006134c082613565565b91506134cb83613565565b9250828210156134de576134dd613614565b5b828203905092915050565b60006134f482613545565b9050919050565b600061350682613545565b9050919050565b60008115159050919050565b60007fffffffff0000000000000000000000000000000000000000000000000000000082169050919050565b600073ffffffffffffffffffffffffffffffffffffffff82169050919050565b6000819050919050565b82818337600083830152505050565b60005b8381101561359c578082015181840152602081019050613581565b838111156135ab576000848401525b50505050565b600060028204905060018216806135c957607f821691505b602082108114156135dd576135dc613672565b5b50919050565b6135ec82613742565b810181811067ffffffffffffffff8211171561360b5761360a6136ff565b5b80604052505050565b7f4e487b7100000000000000000000000000000000000000000000000000000000600052601160045260246000fd5b7f4e487b7100000000000000000000000000000000000000000000000000000000600052601260045260246000fd5b7f4e487b7100000000000000000000000000000000000000000000000000000000600052602260045260246000fd5b7f4e487b7100000000000000000000000000000000000000000000000000000000600052603160045260246000fd5b7f4e487b7100000000000000000000000000000000000000000000000000000000600052603260045260246000fd5b7f4e487b7100000000000000000000000000000000000000000000000000000000600052604160045260246000fd5b600080fd5b600080fd5b600080fd5b600080fd5b6000601f19601f8301169050919050565b7f4552433732313a2063616c6c6572206973206e6f7420746f6b656e206f776e6560008201527f72206f7220617070726f76656400000000000000000000000000000000000000602082015250565b7f455243373231456e756d657261626c653a206f776e657220696e646578206f7560008201527f74206f6620626f756e6473000000000000000000000000000000000000000000602082015250565b7f4552433732313a207472616e7366657220746f206e6f6e20455243373231526560008201527f63656976657220696d706c656d656e7465720000000000000000000000000000602082015250565b7f4f776e61626c653a206e6577206f776e657220697320746865207a65726f206160008201527f6464726573730000000000000000000000000000000000000000000000000000602082015250565b7f4552433732313a207472616e736665722066726f6d20696e636f72726563742060008201527f6f776e6572000000000000000000000000000000000000000000000000000000602082015250565b7f4552433732313a20746f6b656e20616c7265616479206d696e74656400000000600082015250565b7f4552433732313a207472616e7366657220746f20746865207a65726f2061646460008201527f7265737300000000000000000000000000000000000000000000000000000000602082015250565b7f4552433732313a20617070726f766520746f2063616c6c657200000000000000600082015250565b7f4552433732313a2061646472657373207a65726f206973206e6f74206120766160008201527f6c6964206f776e65720000000000000000000000000000000000000000000000602082015250565b7f4552433732313a206d696e7420746f20746865207a65726f2061646472657373600082015250565b7f4f776e61626c653a2063616c6c6572206973206e6f7420746865206f776e6572600082015250565b7f4552433732313a20696e76616c696420746f6b656e2049440000000000000000600082015250565b7f4552433732313a20617070726f76616c20746f2063757272656e74206f776e6560008201527f7200000000000000000000000000000000000000000000000000000000000000602082015250565b7f4552433732313a20617070726f76652063616c6c6572206973206e6f7420746f60008201527f6b656e206f776e6572206f7220617070726f76656420666f7220616c6c000000602082015250565b7f455243373231456e756d657261626c653a20676c6f62616c20696e646578206f60008201527f7574206f6620626f756e64730000000000000000000000000000000000000000602082015250565b7f455243373231456e756d657261626c653a20636f6e736563757469766520747260008201527f616e7366657273206e6f7420737570706f727465640000000000000000000000602082015250565b613b8e816134e9565b8114613b9957600080fd5b50565b613ba5816134fb565b8114613bb057600080fd5b50565b613bbc8161350d565b8114613bc757600080fd5b50565b613bd381613519565b8114613bde57600080fd5b50565b613bea81613565565b8114613bf557600080fd5b5056fe68747470733a2f2f692e70696e696d672e636f6d2f6f726967696e616c732f36362f66372f37322f36366637373239363238326235616237633237383037323438303236313463302e706e67a26469706673582212204f771f9b4b763d7571c10b15850fd2018ef31e4d943722769e390db9473fed4064736f6c63430008070033",
  "immutableReferences": {},
  "source": "//SPDX-License-Identifier: Unlicense\r\npragma solidity ^0.8.4;\r\n\r\nimport \"../node_modules/@openzeppelin/contracts/token/ERC721/ERC721.sol\";\r\nimport \"../node_modules/@openzeppelin/contracts/token/ERC721/extensions/ERC721Enumerable.sol\";\r\n// import \"@openzeppelin/contracts@4.5.0/security/Pausable.sol\";\r\nimport \"../node_modules/@openzeppelin/contracts/access/Ownable.sol\";\r\nimport \"../node_modules/@openzeppelin/contracts/utils/Counters.sol\";\r\n\r\ncontract Payment is ERC721, ERC721Enumerable, Ownable {\r\n    // ===== 1. Property Variables ===== //\r\n\r\n    using Counters for Counters.Counter;\r\n\r\n    uint256 public MINT_PRICE = 0.05 ether;\r\n    uint256 public MAX_SUPPLY = 100;\r\n\r\n    address payable destinoTransferencia;\r\n    address payable from;\r\n    address payable to;\r\n\r\n    // uint montoTransferencia;\r\n\r\n    event TransferirMonto(\r\n        address payable _destinoTransferencia,\r\n        address payable _origenTransferencia,\r\n        uint montoTransferencia\r\n    );\r\n\r\n    function nuevaTransaccion(\r\n        address payable _destinoTransferencia\r\n    ) public payable returns (bool) {\r\n        destinoTransferencia = _destinoTransferencia;\r\n        destinoTransferencia.transfer(msg.value);\r\n        emit TransferirMonto(destinoTransferencia, from, msg.value);\r\n        return true;\r\n    }\r\n\r\n    function verBalanceCuenta() public pure returns (uint) {\r\n        return 1000;\r\n    }\r\n\r\n    function getAll() public pure returns (uint) {\r\n        return 1000;\r\n    }\r\n\r\n    event PayOrder(address payable _to, address payable _from, uint amt);\r\n\r\n    function pay(address payable _to) public payable returns (bool) {\r\n        to = _to;\r\n        to.transfer(msg.value);\r\n        emit PayOrder(to, from, msg.value);\r\n        return true;\r\n    }\r\n\r\n    ///\r\n    /// only owner modifier is inherited from imported dependencies\r\n    ///\r\n\r\n    // function isRetailer() public view returns (bool) {\r\n    //     for (uint256 i = 0; i < retailerIds.length; i++) {\r\n    //         if (msg.sender == retailerIds[i]) {\r\n    //             return true;\r\n    //         }\r\n    //     }\r\n    // }\r\n\r\n    // modifier onlyRetailer() {\r\n    //     require(isRetailer());\r\n    //     _;\r\n    // }\r\n\r\n    // modifier onlyUser() {\r\n    //     require(isUser());\r\n    //     _;\r\n    // }\r\n\r\n    // function isUser() public view returns (bool) {\r\n    //     for (uint256 i = 0; i < userIds.length; i++) {\r\n    //         if (msg.sender == userIds[i]) {\r\n    //             return true;\r\n    //         }\r\n    //     }\r\n    // }\r\n\r\n    Counters.Counter private _tokenIdCounter;\r\n\r\n    constructor() ERC721(\"Test2\", \"IC\") {\r\n        // Start token ID at 1. By default is starts at 0.\r\n        _tokenIdCounter.increment();\r\n        from = payable(msg.sender);\r\n    }\r\n\r\n    //print\r\n    event LogMessage(string message);\r\n\r\n    function print(string memory message) public {\r\n        emit LogMessage(message);\r\n    }\r\n\r\n    // struct ItemStruct {\r\n    //     uint256 itemId;\r\n    //     string itemName;\r\n    //     uint256 categoryId;\r\n    //     uint256 itemPrice;\r\n    //     uint256 quantity;\r\n    //     uint256 pricePerQuantity;\r\n    //     address payable sellerId;\r\n    // }\r\n\r\n    // //start of items section\r\n    // mapping(uint256 => ItemStruct) private items; // mapping from item id to item details\r\n    // uint256[] private itemIds; // array of all item ids\r\n\r\n    // function getItemById(\r\n    //     uint256 itemId\r\n    // ) public view returns (ItemStruct memory) {\r\n    //     ItemStruct memory item = items[itemId];\r\n    //     return item;\r\n    // }\r\n\r\n    // function getAllItems() public view returns (ItemStruct[] memory) {\r\n    //     uint256 itemCount = itemIds.length;\r\n    //     ItemStruct[] memory itemsArray = new ItemStruct[](itemCount);\r\n    //     for (uint256 i = 0; i < itemCount; i++) {\r\n    //         uint256 itemId = itemIds[i];\r\n    //         itemsArray[i] = items[itemId];\r\n    //     }\r\n    //     return itemsArray;\r\n    // }\r\n\r\n    // struct UserStruct {\r\n    //     address userId;\r\n    //     string userName;\r\n    //     string homeAddress;\r\n    // }\r\n\r\n    //end of item section\r\n\r\n    //start of user section\r\n    // mapping(address => UserStruct) private idToUser;\r\n    // mapping(address => ItemStruct[]) private userIdToCartList;\r\n    // address[] private userIds;\r\n\r\n    // function addUser(\r\n    //     address userId,\r\n    //     string memory name,\r\n    //     string memory homeAddr\r\n    // ) public {\r\n    //     if (bytes(idToUser[userId].userName).length > 0) {\r\n    //         revert(\"USER EXISTS\");\r\n    //     }\r\n    //     idToUser[userId] = UserStruct(userId, name, homeAddr);\r\n    //     userIds.push(userId);\r\n    // }\r\n\r\n    // function getAllUsers() public view returns (UserStruct[] memory) {\r\n    //     uint256 userCount = userIds.length;\r\n    //     UserStruct[] memory resUsers = new UserStruct[](userCount);\r\n    //     for (uint256 i = 0; i < userCount; i++) {\r\n    //         address tempId = userIds[i];\r\n    //         resUsers[i] = idToUser[tempId];\r\n    //     }\r\n    //     // UserStruct[] memory temp = new UserStruct[](2);\r\n    //     // temp[0] = UserStruct(0x67B82548B0d34cBc6d993583d6130e2a5f76C8EA, \"name 1\", \"addr 1\");\r\n    //     // temp[1] = UserStruct(0xb2a9a8f7a803E3Ba1783c0F8226C0cce1CD65650, \"name 2\", \"addr 2s\");\r\n\r\n    //     return resUsers;\r\n    // }\r\n\r\n    // function getUserById(\r\n    //     address userId\r\n    // ) public view returns (UserStruct memory) {\r\n    //     UserStruct memory user = idToUser[userId];\r\n    //     return user;\r\n    // }\r\n\r\n    // //cart operations\r\n\r\n    // function addItemToCart(\r\n    //     address userId,\r\n    //     uint256 itemId,\r\n    //     string memory name,\r\n    //     uint256 catId,\r\n    //     uint256 price,\r\n    //     uint256 quantity,\r\n    //     address payable sellerId\r\n    // ) public {\r\n    //     ItemStruct memory temp = ItemStruct(\r\n    //         itemId,\r\n    //         name,\r\n    //         catId,\r\n    //         price,\r\n    //         quantity,\r\n    //         price * quantity,\r\n    //         sellerId\r\n    //     );\r\n    //     userIdToCartList[userId].push(temp);\r\n    // }\r\n\r\n    // function viewCart(\r\n    //     address userId\r\n    // ) public view returns (ItemStruct[] memory) {\r\n    //     return userIdToCartList[userId];\r\n    // }\r\n\r\n    // function updateCart(\r\n    //     address userId,\r\n    //     uint256 itemId,\r\n    //     uint256 newQuant\r\n    // ) public {\r\n    //     bool isExists = false;\r\n    //     for (uint256 i = 0; i < userIdToCartList[userId].length; i++) {\r\n    //         if (itemId == userIdToCartList[userId][i].itemId) {\r\n    //             isExists = true;\r\n    //             userIdToCartList[userId][i].quantity = newQuant;\r\n    //             break;\r\n    //         }\r\n    //     }\r\n    //     if (!isExists) {\r\n    //         print(\"Try with item already existing in cart\");\r\n    //     }\r\n    // }\r\n\r\n    // function removeItemFromCart(\r\n    //     address userId,\r\n    //     uint256 itemId\r\n    // ) public returns (ItemStruct[] memory) {\r\n    //     uint256 itemIndx = 0;\r\n    //     bool isExists = false;\r\n    //     for (uint256 i = 0; i < userIdToCartList[userId].length; i++) {\r\n    //         if (itemId == userIdToCartList[userId][i].itemId) {\r\n    //             isExists = true;\r\n    //             itemIndx = i;\r\n    //             break;\r\n    //         }\r\n    //     }\r\n\r\n    //     if (isExists) {\r\n    //         uint256 i = 0;\r\n    //         for (i = itemIndx; i < userIdToCartList[userId].length - 1; i++) {\r\n    //             userIdToCartList[userId][i] = userIdToCartList[userId][i + 1];\r\n    //         }\r\n    //         userIdToCartList[userId].pop();\r\n    //         return userIdToCartList[userId];\r\n    //     }\r\n    //     return userIdToCartList[userId];\r\n    // }\r\n\r\n    //end of user section\r\n\r\n    //start of retailer section\r\n\r\n    // struct RetailerStruct {\r\n    //     address retailerId;\r\n    //     string retailerName;\r\n    //     string homeAddress;\r\n    // }\r\n\r\n    // mapping(address => RetailerStruct) private idToRetailer;\r\n    // address[] private retailerIds;\r\n    // mapping(address => ItemStruct[]) retailerToInv;\r\n\r\n    // function addRetailer(\r\n    //     address retailerId,\r\n    //     string memory name,\r\n    //     string memory homeAddr\r\n    // ) public {\r\n    //     if (bytes(idToRetailer[retailerId].retailerName).length > 0) {\r\n    //         revert(\"USER EXISTS\");\r\n    //     }\r\n    //     idToRetailer[retailerId] = RetailerStruct(retailerId, name, homeAddr);\r\n    //     retailerIds.push(retailerId);\r\n    // }\r\n\r\n    // function getRetailerById(\r\n    //     address retId\r\n    // ) public view returns (RetailerStruct memory) {\r\n    //     RetailerStruct memory retailer = idToRetailer[retId];\r\n    //     return retailer;\r\n    // }\r\n\r\n    // function getAllRetailer() public view returns (RetailerStruct[] memory) {\r\n    //     uint256 userCount = retailerIds.length;\r\n    //     RetailerStruct[] memory resUsers = new RetailerStruct[](userCount);\r\n    //     for (uint256 i = 0; i < userCount; i++) {\r\n    //         address tempId = retailerIds[i];\r\n    //         resUsers[i] = idToRetailer[tempId];\r\n    //     }\r\n    //     return resUsers;\r\n    // }\r\n\r\n    // //retailer functions\r\n    // function addnewItemToInvt(\r\n    //     string memory name,\r\n    //     uint256 catId,\r\n    //     uint256 price,\r\n    //     uint256 quantity,\r\n    //     address payable sellerId,\r\n    //     uint256 itemId\r\n    // ) public {\r\n    //     //check if itemID exists\r\n    //     for (uint256 i = 0; i < itemIds.length; i++) {\r\n    //         if (itemIds[i] == itemId) {\r\n    //             print(\"try different ID\");\r\n    //             return;\r\n    //         }\r\n    //     }\r\n    //     ItemStruct memory temp = ItemStruct(\r\n    //         itemId,\r\n    //         name,\r\n    //         catId,\r\n    //         price,\r\n    //         quantity,\r\n    //         price * quantity,\r\n    //         sellerId\r\n    //     );\r\n    //     retailerToInv[sellerId].push(temp);\r\n    //     //update items mapping\r\n    //     items[itemId] = temp;\r\n    //     itemIds.push(itemId);\r\n    // }\r\n\r\n    // function viewInventory(\r\n    //     address sellerId\r\n    // ) public view returns (ItemStruct[] memory) {\r\n    //     return retailerToInv[sellerId];\r\n    // }\r\n\r\n    // // should also handle price change\r\n    // function UpdateInventory(\r\n    //     uint256 itemId,\r\n    //     uint256 newQuant,\r\n    //     address sellerId\r\n    // ) public {\r\n    //     bool isExists = false;\r\n    //     for (uint256 i = 0; i < retailerToInv[sellerId].length; i++) {\r\n    //         if (itemId == retailerToInv[sellerId][i].itemId) {\r\n    //             isExists = true;\r\n    //             retailerToInv[sellerId][i].quantity = newQuant;\r\n    //             break;\r\n    //         }\r\n    //     }\r\n    //     if (!isExists) {\r\n    //         print(\"Try with item already existing in cart\");\r\n    //     }\r\n    // }\r\n\r\n    // function removeItemInventory(address retailerId, uint256 itemId) public {\r\n    //     uint256 itemIndx = 0;\r\n    //     bool isExists = false;\r\n    //     for (uint256 i = 0; i < retailerToInv[retailerId].length; i++) {\r\n    //         if (itemId == retailerToInv[retailerId][i].itemId) {\r\n    //             isExists = true;\r\n    //             itemIndx = i;\r\n    //             break;\r\n    //         }\r\n    //     }\r\n\r\n    //     if (isExists) {\r\n    //         uint256 i = 0;\r\n    //         for (i = itemIndx; i < retailerToInv[retailerId].length - 1; i++) {\r\n    //             retailerToInv[retailerId][i] = retailerToInv[retailerId][i + 1];\r\n    //         }\r\n    //         retailerToInv[retailerId].pop();\r\n    //     }\r\n\r\n    //     for (uint256 i = 0; i < itemIds.length; i++) {\r\n    //         if (itemIds[i] == itemId) {\r\n    //             for (uint256 j = i; j < itemIds.length - 1; j++) {\r\n    //                 itemIds[j] = itemIds[j + 1];\r\n    //             }\r\n    //             itemIds.pop();\r\n    //             break;\r\n    //         }\r\n    //     }\r\n    // }\r\n\r\n    uint256 orderIdCounter = 0;\r\n    mapping(address => uint256) userToOrderId;\r\n    // mapping(uint256 => ItemStruct[]) orderToDetails;\r\n\r\n    struct OrderDetailsStruct {\r\n        address retailerId;\r\n        uint256 orderAmount;\r\n    }\r\n\r\n    struct Nft {\r\n        uint256 tokenId;\r\n        string image_link;\r\n    }\r\n\r\n    mapping(uint256 => OrderDetailsStruct) orderIdToDetails;\r\n\r\n    mapping(address => Nft[]) userToNft;\r\n\r\n    function placeOrderNew(\r\n        address retId,\r\n        uint256 orderId,\r\n        uint256 orderAmount\r\n    ) public returns (bool) {\r\n        userToOrderId[from] = orderId;\r\n        OrderDetailsStruct memory temp = OrderDetailsStruct(retId, orderAmount);\r\n        orderIdToDetails[orderId] = (temp);\r\n\r\n        //NFT minting\r\n        if (orderAmount >= 5) {\r\n            uint256 tokenId = _tokenIdCounter.current();\r\n            _tokenIdCounter.increment();\r\n            _safeMint(from, tokenId);\r\n            Nft memory newNft = Nft(\r\n                tokenId,\r\n                \"https://i.pinimg.com/originals/66/f7/72/66f77296282b5ab7c2780724802614c0.png\"\r\n            );\r\n            userToNft[from].push(newNft);\r\n        }\r\n        return true;\r\n    }\r\n\r\n    // function viewOrdersByUserId(\r\n    //     address userId\r\n    // ) public view returns (ItemStruct[] memory) {\r\n    //     return orderToDetails[userToOrderId[userId]];\r\n    // }\r\n\r\n    // function placeOrder(address userId) public payable {\r\n    //     //require(totalSupply() < MAX_SUPPLY, \"Can't mint anymore tokens.\");\r\n\r\n    //     //check if payment is more than min amount\r\n    //     // ItemStruct[] memory temp = userIdToCartList[userId];\r\n    //     uint256 final_amount = 0;\r\n    //     for (uint256 i = 0; i < userIdToCartList[userId].length; i++) {\r\n    //         final_amount += userIdToCartList[userId][i].pricePerQuantity;\r\n    //     }\r\n\r\n    //     userIdToCartList[userId][0].sellerId.transfer(final_amount);\r\n    //     userToOrderId[userId] = orderIdCounter;\r\n    //     orderToDetails[orderIdCounter] = userIdToCartList[userId];\r\n    //     orderIdCounter++;\r\n\r\n    //     // ItemStruct[] memory prevInv = retailerToInv[userIdToCartList[userId][0].sellerId];\r\n    //     uint256 j = 0;\r\n    //     // uint256 k =0;\r\n    //     for (\r\n    //         uint256 i = 0;\r\n    //         i < retailerToInv[userIdToCartList[userId][0].sellerId].length;\r\n    //         i++\r\n    //     ) {\r\n    //         while (j < userIdToCartList[userId].length) {\r\n    //             if (\r\n    //                 retailerToInv[userIdToCartList[userId][0].sellerId][i]\r\n    //                     .itemId == userIdToCartList[userId][j].itemId\r\n    //             ) {\r\n    //                 retailerToInv[userIdToCartList[userId][0].sellerId][i]\r\n    //                     .quantity -= userIdToCartList[userId][j].quantity;\r\n    //                 j++;\r\n    //             }\r\n    //         }\r\n    //     }\r\n\r\n    //     while (userIdToCartList[userId].length > 0) {\r\n    //         userIdToCartList[userId].pop();\r\n    //     }\r\n\r\n    // }\r\n\r\n    //===============================================//\r\n    // ===== 5. Other Functions ===== //\r\n\r\n    function _baseURI() internal pure override returns (string memory) {\r\n        return \"ipfs://happyMonkeyBaseURI/\";\r\n    }\r\n\r\n    function _beforeTokenTransfer(\r\n        address _from,\r\n        address _to,\r\n        uint256 _tokenId,\r\n        uint256 batchSize\r\n    ) internal virtual override(ERC721, ERC721Enumerable) {\r\n        super._beforeTokenTransfer(_from, _to, _tokenId, batchSize);\r\n    }\r\n\r\n    // The following functions are overrides required by Solidity.\r\n\r\n    function supportsInterface(\r\n        bytes4 interfaceId\r\n    ) public view override(ERC721, ERC721Enumerable) returns (bool) {\r\n        return super.supportsInterface(interfaceId);\r\n    }\r\n}\r\n",
  "sourcePath": "C:\\Users\\manda\\Desktop\\526 project\\phase 2 final\\New folder\\AngularTruffle\\Blockchain\\contracts\\Payment.sol",
  "compiler": {
    "name": "solc",
    "version": "0.8.7+commit.e28d00a7.Emscripten.clang"
  },
  "schemaVersion": "3.4.13",
  "updatedAt": "2023-05-09T18:56:57.422Z",
  "devdoc": {
    "kind": "dev",
    "methods": {
      "approve(address,uint256)": {
        "details": "See {IERC721-approve}."
      },
      "balanceOf(address)": {
        "details": "See {IERC721-balanceOf}."
      },
      "getApproved(uint256)": {
        "details": "See {IERC721-getApproved}."
      },
      "isApprovedForAll(address,address)": {
        "details": "See {IERC721-isApprovedForAll}."
      },
      "name()": {
        "details": "See {IERC721Metadata-name}."
      },
      "owner()": {
        "details": "Returns the address of the current owner."
      },
      "ownerOf(uint256)": {
        "details": "See {IERC721-ownerOf}."
      },
      "renounceOwnership()": {
        "details": "Leaves the contract without owner. It will not be possible to call `onlyOwner` functions anymore. Can only be called by the current owner. NOTE: Renouncing ownership will leave the contract without an owner, thereby removing any functionality that is only available to the owner."
      },
      "safeTransferFrom(address,address,uint256)": {
        "details": "See {IERC721-safeTransferFrom}."
      },
      "safeTransferFrom(address,address,uint256,bytes)": {
        "details": "See {IERC721-safeTransferFrom}."
      },
      "setApprovalForAll(address,bool)": {
        "details": "See {IERC721-setApprovalForAll}."
      },
      "symbol()": {
        "details": "See {IERC721Metadata-symbol}."
      },
      "tokenByIndex(uint256)": {
        "details": "See {IERC721Enumerable-tokenByIndex}."
      },
      "tokenOfOwnerByIndex(address,uint256)": {
        "details": "See {IERC721Enumerable-tokenOfOwnerByIndex}."
      },
      "tokenURI(uint256)": {
        "details": "See {IERC721Metadata-tokenURI}."
      },
      "totalSupply()": {
        "details": "See {IERC721Enumerable-totalSupply}."
      },
      "transferFrom(address,address,uint256)": {
        "details": "See {IERC721-transferFrom}."
      },
      "transferOwnership(address)": {
        "details": "Transfers ownership of the contract to a new account (`newOwner`). Can only be called by the current owner."
      }
    },
    "version": 1
  },
  "userdoc": {
    "kind": "user",
    "methods": {},
    "version": 1
  }
}