{
  "contractName": "Payment",
  "abi": [
    {
      "inputs": [],
      "stateMutability": "nonpayable",
      "type": "constructor"
    },
    {
      "anonymous": false,
      "inputs": [
        {
          "indexed": true,
          "internalType": "address",
          "name": "owner",
          "type": "address"
        },
        {
          "indexed": true,
          "internalType": "address",
          "name": "approved",
          "type": "address"
        },
        {
          "indexed": true,
          "internalType": "uint256",
          "name": "tokenId",
          "type": "uint256"
        }
      ],
      "name": "Approval",
      "type": "event"
    },
    {
      "anonymous": false,
      "inputs": [
        {
          "indexed": true,
          "internalType": "address",
          "name": "owner",
          "type": "address"
        },
        {
          "indexed": true,
          "internalType": "address",
          "name": "operator",
          "type": "address"
        },
        {
          "indexed": false,
          "internalType": "bool",
          "name": "approved",
          "type": "bool"
        }
      ],
      "name": "ApprovalForAll",
      "type": "event"
    },
    {
      "anonymous": false,
      "inputs": [
        {
          "indexed": false,
          "internalType": "string",
          "name": "message",
          "type": "string"
        }
      ],
      "name": "LogMessage",
      "type": "event"
    },
    {
      "anonymous": false,
      "inputs": [
        {
          "indexed": true,
          "internalType": "address",
          "name": "previousOwner",
          "type": "address"
        },
        {
          "indexed": true,
          "internalType": "address",
          "name": "newOwner",
          "type": "address"
        }
      ],
      "name": "OwnershipTransferred",
      "type": "event"
    },
    {
      "anonymous": false,
      "inputs": [
        {
          "indexed": false,
          "internalType": "address payable",
          "name": "_to",
          "type": "address"
        },
        {
          "indexed": false,
          "internalType": "address payable",
          "name": "_from",
          "type": "address"
        },
        {
          "indexed": false,
          "internalType": "uint256",
          "name": "amt",
          "type": "uint256"
        }
      ],
      "name": "PayOrder",
      "type": "event"
    },
    {
      "anonymous": false,
      "inputs": [
        {
          "indexed": true,
          "internalType": "address",
          "name": "from",
          "type": "address"
        },
        {
          "indexed": true,
          "internalType": "address",
          "name": "to",
          "type": "address"
        },
        {
          "indexed": true,
          "internalType": "uint256",
          "name": "tokenId",
          "type": "uint256"
        }
      ],
      "name": "Transfer",
      "type": "event"
    },
    {
      "anonymous": false,
      "inputs": [
        {
          "indexed": false,
          "internalType": "address payable",
          "name": "_destinoTransferencia",
          "type": "address"
        },
        {
          "indexed": false,
          "internalType": "address payable",
          "name": "_origenTransferencia",
          "type": "address"
        },
        {
          "indexed": false,
          "internalType": "uint256",
          "name": "montoTransferencia",
          "type": "uint256"
        }
      ],
      "name": "TransferirMonto",
      "type": "event"
    },
    {
      "inputs": [],
      "name": "MAX_SUPPLY",
      "outputs": [
        {
          "internalType": "uint256",
          "name": "",
          "type": "uint256"
        }
      ],
      "stateMutability": "view",
      "type": "function"
    },
    {
      "inputs": [],
      "name": "MINT_PRICE",
      "outputs": [
        {
          "internalType": "uint256",
          "name": "",
          "type": "uint256"
        }
      ],
      "stateMutability": "view",
      "type": "function"
    },
    {
      "inputs": [
        {
          "internalType": "address",
          "name": "to",
          "type": "address"
        },
        {
          "internalType": "uint256",
          "name": "tokenId",
          "type": "uint256"
        }
      ],
      "name": "approve",
      "outputs": [],
      "stateMutability": "nonpayable",
      "type": "function"
    },
    {
      "inputs": [
        {
          "internalType": "address",
          "name": "owner",
          "type": "address"
        }
      ],
      "name": "balanceOf",
      "outputs": [
        {
          "internalType": "uint256",
          "name": "",
          "type": "uint256"
        }
      ],
      "stateMutability": "view",
      "type": "function"
    },
    {
      "inputs": [
        {
          "internalType": "uint256",
          "name": "tokenId",
          "type": "uint256"
        }
      ],
      "name": "getApproved",
      "outputs": [
        {
          "internalType": "address",
          "name": "",
          "type": "address"
        }
      ],
      "stateMutability": "view",
      "type": "function"
    },
    {
      "inputs": [
        {
          "internalType": "address",
          "name": "owner",
          "type": "address"
        },
        {
          "internalType": "address",
          "name": "operator",
          "type": "address"
        }
      ],
      "name": "isApprovedForAll",
      "outputs": [
        {
          "internalType": "bool",
          "name": "",
          "type": "bool"
        }
      ],
      "stateMutability": "view",
      "type": "function"
    },
    {
      "inputs": [],
      "name": "name",
      "outputs": [
        {
          "internalType": "string",
          "name": "",
          "type": "string"
        }
      ],
      "stateMutability": "view",
      "type": "function"
    },
    {
      "inputs": [],
      "name": "owner",
      "outputs": [
        {
          "internalType": "address",
          "name": "",
          "type": "address"
        }
      ],
      "stateMutability": "view",
      "type": "function"
    },
    {
      "inputs": [
        {
          "internalType": "uint256",
          "name": "tokenId",
          "type": "uint256"
        }
      ],
      "name": "ownerOf",
      "outputs": [
        {
          "internalType": "address",
          "name": "",
          "type": "address"
        }
      ],
      "stateMutability": "view",
      "type": "function"
    },
    {
      "inputs": [],
      "name": "renounceOwnership",
      "outputs": [],
      "stateMutability": "nonpayable",
      "type": "function"
    },
    {
      "inputs": [
        {
          "internalType": "address",
          "name": "from",
          "type": "address"
        },
        {
          "internalType": "address",
          "name": "to",
          "type": "address"
        },
        {
          "internalType": "uint256",
          "name": "tokenId",
          "type": "uint256"
        }
      ],
      "name": "safeTransferFrom",
      "outputs": [],
      "stateMutability": "nonpayable",
      "type": "function"
    },
    {
      "inputs": [
        {
          "internalType": "address",
          "name": "from",
          "type": "address"
        },
        {
          "internalType": "address",
          "name": "to",
          "type": "address"
        },
        {
          "internalType": "uint256",
          "name": "tokenId",
          "type": "uint256"
        },
        {
          "internalType": "bytes",
          "name": "data",
          "type": "bytes"
        }
      ],
      "name": "safeTransferFrom",
      "outputs": [],
      "stateMutability": "nonpayable",
      "type": "function"
    },
    {
      "inputs": [
        {
          "internalType": "address",
          "name": "operator",
          "type": "address"
        },
        {
          "internalType": "bool",
          "name": "approved",
          "type": "bool"
        }
      ],
      "name": "setApprovalForAll",
      "outputs": [],
      "stateMutability": "nonpayable",
      "type": "function"
    },
    {
      "inputs": [],
      "name": "symbol",
      "outputs": [
        {
          "internalType": "string",
          "name": "",
          "type": "string"
        }
      ],
      "stateMutability": "view",
      "type": "function"
    },
    {
      "inputs": [
        {
          "internalType": "uint256",
          "name": "index",
          "type": "uint256"
        }
      ],
      "name": "tokenByIndex",
      "outputs": [
        {
          "internalType": "uint256",
          "name": "",
          "type": "uint256"
        }
      ],
      "stateMutability": "view",
      "type": "function"
    },
    {
      "inputs": [
        {
          "internalType": "address",
          "name": "owner",
          "type": "address"
        },
        {
          "internalType": "uint256",
          "name": "index",
          "type": "uint256"
        }
      ],
      "name": "tokenOfOwnerByIndex",
      "outputs": [
        {
          "internalType": "uint256",
          "name": "",
          "type": "uint256"
        }
      ],
      "stateMutability": "view",
      "type": "function"
    },
    {
      "inputs": [
        {
          "internalType": "uint256",
          "name": "tokenId",
          "type": "uint256"
        }
      ],
      "name": "tokenURI",
      "outputs": [
        {
          "internalType": "string",
          "name": "",
          "type": "string"
        }
      ],
      "stateMutability": "view",
      "type": "function"
    },
    {
      "inputs": [],
      "name": "totalSupply",
      "outputs": [
        {
          "internalType": "uint256",
          "name": "",
          "type": "uint256"
        }
      ],
      "stateMutability": "view",
      "type": "function"
    },
    {
      "inputs": [
        {
          "internalType": "address",
          "name": "from",
          "type": "address"
        },
        {
          "internalType": "address",
          "name": "to",
          "type": "address"
        },
        {
          "internalType": "uint256",
          "name": "tokenId",
          "type": "uint256"
        }
      ],
      "name": "transferFrom",
      "outputs": [],
      "stateMutability": "nonpayable",
      "type": "function"
    },
    {
      "inputs": [
        {
          "internalType": "address",
          "name": "newOwner",
          "type": "address"
        }
      ],
      "name": "transferOwnership",
      "outputs": [],
      "stateMutability": "nonpayable",
      "type": "function"
    },
    {
      "inputs": [
        {
          "internalType": "address payable",
          "name": "_destinoTransferencia",
          "type": "address"
        }
      ],
      "name": "nuevaTransaccion",
      "outputs": [
        {
          "internalType": "bool",
          "name": "",
          "type": "bool"
        }
      ],
      "stateMutability": "payable",
      "type": "function"
    },
    {
      "inputs": [],
      "name": "verBalanceCuenta",
      "outputs": [
        {
          "internalType": "uint256",
          "name": "",
          "type": "uint256"
        }
      ],
      "stateMutability": "pure",
      "type": "function"
    },
    {
      "inputs": [],
      "name": "getAll",
      "outputs": [
        {
          "internalType": "uint256",
          "name": "",
          "type": "uint256"
        }
      ],
      "stateMutability": "pure",
      "type": "function"
    },
    {
      "inputs": [
        {
          "internalType": "address payable",
          "name": "_to",
          "type": "address"
        }
      ],
      "name": "pay",
      "outputs": [
        {
          "internalType": "bool",
          "name": "",
          "type": "bool"
        }
      ],
      "stateMutability": "payable",
      "type": "function"
    },
    {
      "inputs": [
        {
          "internalType": "string",
          "name": "message",
          "type": "string"
        }
      ],
      "name": "print",
      "outputs": [],
      "stateMutability": "nonpayable",
      "type": "function"
    },
    {
      "inputs": [
        {
          "internalType": "address",
          "name": "_userId",
          "type": "address"
        }
      ],
      "name": "getUserNfts",
      "outputs": [
        {
          "components": [
            {
              "internalType": "uint256",
              "name": "tokenId",
              "type": "uint256"
            },
            {
              "internalType": "string",
              "name": "image_link",
              "type": "string"
            }
          ],
          "internalType": "struct Payment.Nft[]",
          "name": "",
          "type": "tuple[]"
        }
      ],
      "stateMutability": "view",
      "type": "function"
    },
    {
      "inputs": [
        {
          "internalType": "address",
          "name": "retId",
          "type": "address"
        },
        {
          "internalType": "uint256",
          "name": "orderId",
          "type": "uint256"
        },
        {
          "internalType": "uint256",
          "name": "orderAmount",
          "type": "uint256"
        }
      ],
      "name": "placeOrderNew",
      "outputs": [
        {
          "internalType": "bool",
          "name": "",
          "type": "bool"
        }
      ],
      "stateMutability": "nonpayable",
      "type": "function"
    },
    {
      "inputs": [
        {
          "internalType": "bytes4",
          "name": "interfaceId",
          "type": "bytes4"
        }
      ],
      "name": "supportsInterface",
      "outputs": [
        {
          "internalType": "bool",
          "name": "",
          "type": "bool"
        }
      ],
      "stateMutability": "view",
      "type": "function"
    }
  ],
  "bytecode": "0x608060405266b1a2bc2ec50000600b556064600c5560006011553480156200002657600080fd5b506040518060400160405280600581526020017f54657374320000000000000000000000000000000000000000000000000000008152506040518060400160405280600281526020017f49430000000000000000000000000000000000000000000000000000000000008152508160009080519060200190620000ab92919062000229565b508060019080519060200190620000c492919062000229565b505050620000e7620000db6200014560201b60201c565b6200014d60201b60201c565b620000fe60106200021360201b620014f91760201c565b33600e60006101000a81548173ffffffffffffffffffffffffffffffffffffffff021916908373ffffffffffffffffffffffffffffffffffffffff1602179055506200033e565b600033905090565b6000600a60009054906101000a900473ffffffffffffffffffffffffffffffffffffffff16905081600a60006101000a81548173ffffffffffffffffffffffffffffffffffffffff021916908373ffffffffffffffffffffffffffffffffffffffff1602179055508173ffffffffffffffffffffffffffffffffffffffff168173ffffffffffffffffffffffffffffffffffffffff167f8be0079c531659141344cd1fd0a4f28419497f9722a3daafe3b4186f6b6457e060405160405180910390a35050565b6001816000016000828254019250508190555050565b8280546200023790620002d9565b90600052602060002090601f0160209004810192826200025b5760008555620002a7565b82601f106200027657805160ff1916838001178555620002a7565b82800160010185558215620002a7579182015b82811115620002a657825182559160200191906001019062000289565b5b509050620002b69190620002ba565b5090565b5b80821115620002d5576000816000905550600101620002bb565b5090565b60006002820490506001821680620002f257607f821691505b602082108114156200030957620003086200030f565b5b50919050565b7f4e487b7100000000000000000000000000000000000000000000000000000000600052602260045260246000fd5b613f8c806200034e6000396000f3fe6080604052600436106101b75760003560e01c806370a08231116100ec578063a22cb4651161008a578063c87b56dd11610064578063c87b56dd14610639578063e005f92014610676578063e985e9c5146106a6578063f2fde38b146106e3576101b7565b8063a22cb465146105bc578063b88d4fde146105e5578063c002d23d1461060e576101b7565b80637908d009116100c65780637908d009146104ec57806384d0eeae146105295780638da5cb5b1461056657806395d89b4114610591576101b7565b806370a082311461046d578063715018a6146104aa57806372e713ac146104c1576101b7565b806323b872dd1161015957806342842e0e1161013357806342842e0e1461039f5780634f6ccce7146103c857806353ed5143146104055780636352211e14610430576101b7565b806323b872dd1461030e5780632f745c591461033757806332cb6b0c14610374576101b7565b8063095ea7b311610195578063095ea7b3146102615780630c11dedd1461028a57806311114af1146102ba57806318160ddd146102e3576101b7565b806301ffc9a7146101bc57806306fdde03146101f9578063081812fc14610224575b600080fd5b3480156101c857600080fd5b506101e360048036038101906101de9190612e8a565b61070c565b6040516101f0919061345b565b60405180910390f35b34801561020557600080fd5b5061020e61071e565b60405161021b9190613476565b60405180910390f35b34801561023057600080fd5b5061024b60048036038101906102469190612f2d565b6107b0565b604051610258919061339b565b60405180910390f35b34801561026d57600080fd5b5061028860048036038101906102839190612df7565b6107f6565b005b6102a4600480360381019061029f9190612c74565b61090e565b6040516102b1919061345b565b60405180910390f35b3480156102c657600080fd5b506102e160048036038101906102dc9190612ee4565b610a42565b005b3480156102ef57600080fd5b506102f8610a7c565b6040516103059190613698565b60405180910390f35b34801561031a57600080fd5b5061033560048036038101906103309190612ce1565b610a89565b005b34801561034357600080fd5b5061035e60048036038101906103599190612df7565b610ae9565b60405161036b9190613698565b60405180910390f35b34801561038057600080fd5b50610389610b8e565b6040516103969190613698565b60405180910390f35b3480156103ab57600080fd5b506103c660048036038101906103c19190612ce1565b610b94565b005b3480156103d457600080fd5b506103ef60048036038101906103ea9190612f2d565b610bb4565b6040516103fc9190613698565b60405180910390f35b34801561041157600080fd5b5061041a610c25565b6040516104279190613698565b60405180910390f35b34801561043c57600080fd5b5061045760048036038101906104529190612f2d565b610c2f565b604051610464919061339b565b60405180910390f35b34801561047957600080fd5b50610494600480360381019061048f9190612c47565b610cb6565b6040516104a19190613698565b60405180910390f35b3480156104b657600080fd5b506104bf610d6e565b005b3480156104cd57600080fd5b506104d6610d82565b6040516104e39190613698565b60405180910390f35b3480156104f857600080fd5b50610513600480360381019061050e9190612c47565b610d8c565b6040516105209190613439565b60405180910390f35b34801561053557600080fd5b50610550600480360381019061054b9190612e37565b610ec6565b60405161055d919061345b565b60405180910390f35b34801561057257600080fd5b5061057b61110b565b604051610588919061339b565b60405180910390f35b34801561059d57600080fd5b506105a6611135565b6040516105b39190613476565b60405180910390f35b3480156105c857600080fd5b506105e360048036038101906105de9190612db7565b6111c7565b005b3480156105f157600080fd5b5061060c60048036038101906106079190612d34565b6111dd565b005b34801561061a57600080fd5b5061062361123f565b6040516106309190613698565b60405180910390f35b34801561064557600080fd5b50610660600480360381019061065b9190612f2d565b611245565b60405161066d9190613476565b60405180910390f35b610690600480360381019061068b9190612c74565b6112ad565b60405161069d919061345b565b60405180910390f35b3480156106b257600080fd5b506106cd60048036038101906106c89190612ca1565b6113e1565b6040516106da919061345b565b60405180910390f35b3480156106ef57600080fd5b5061070a60048036038101906107059190612c47565b611475565b005b60006107178261150f565b9050919050565b60606000805461072d906138c3565b80601f0160208091040260200160405190810160405280929190818152602001828054610759906138c3565b80156107a65780601f1061077b576101008083540402835291602001916107a6565b820191906000526020600020905b81548152906001019060200180831161078957829003601f168201915b5050505050905090565b60006107bb82611589565b6004600083815260200190815260200160002060009054906101000a900473ffffffffffffffffffffffffffffffffffffffff169050919050565b600061080182610c2f565b90508073ffffffffffffffffffffffffffffffffffffffff168373ffffffffffffffffffffffffffffffffffffffff161415610872576040517f08c379a000000000000000000000000000000000000000000000000000000000815260040161086990613618565b60405180910390fd5b8073ffffffffffffffffffffffffffffffffffffffff166108916115d4565b73ffffffffffffffffffffffffffffffffffffffff1614806108c057506108bf816108ba6115d4565b6113e1565b5b6108ff576040517f08c379a00000000000000000000000000000000000000000000000000000000081526004016108f690613638565b60405180910390fd5b61090983836115dc565b505050565b600081600f60006101000a81548173ffffffffffffffffffffffffffffffffffffffff021916908373ffffffffffffffffffffffffffffffffffffffff160217905550600f60009054906101000a900473ffffffffffffffffffffffffffffffffffffffff1673ffffffffffffffffffffffffffffffffffffffff166108fc349081150290604051600060405180830381858888f193505050501580156109b9573d6000803e3d6000fd5b507f1797af7097a35c572d1669c7177ce87811fa1b1db6d7b878d030562bc9b66e28600f60009054906101000a900473ffffffffffffffffffffffffffffffffffffffff16600e60009054906101000a900473ffffffffffffffffffffffffffffffffffffffff1634604051610a31939291906133b6565b60405180910390a160019050919050565b7f96561394bac381230de4649200e8831afcab1f451881bbade9ef209f6dd3048081604051610a719190613476565b60405180910390a150565b6000600880549050905090565b610a9a610a946115d4565b82611695565b610ad9576040517f08c379a0000000000000000000000000000000000000000000000000000000008152600401610ad090613498565b60405180910390fd5b610ae483838361172a565b505050565b6000610af483610cb6565b8210610b35576040517f08c379a0000000000000000000000000000000000000000000000000000000008152600401610b2c906134b8565b60405180910390fd5b600660008473ffffffffffffffffffffffffffffffffffffffff1673ffffffffffffffffffffffffffffffffffffffff168152602001908152602001600020600083815260200190815260200160002054905092915050565b600c5481565b610baf838383604051806020016040528060008152506111dd565b505050565b6000610bbe610a7c565b8210610bff576040517f08c379a0000000000000000000000000000000000000000000000000000000008152600401610bf690613658565b60405180910390fd5b60088281548110610c1357610c126139e2565b5b90600052602060002001549050919050565b60006103e8905090565b600080610c3b83611a24565b9050600073ffffffffffffffffffffffffffffffffffffffff168173ffffffffffffffffffffffffffffffffffffffff161415610cad576040517f08c379a0000000000000000000000000000000000000000000000000000000008152600401610ca4906135f8565b60405180910390fd5b80915050919050565b60008073ffffffffffffffffffffffffffffffffffffffff168273ffffffffffffffffffffffffffffffffffffffff161415610d27576040517f08c379a0000000000000000000000000000000000000000000000000000000008152600401610d1e90613598565b60405180910390fd5b600360008373ffffffffffffffffffffffffffffffffffffffff1673ffffffffffffffffffffffffffffffffffffffff168152602001908152602001600020549050919050565b610d76611a61565b610d806000611adf565b565b60006103e8905090565b6060601460008373ffffffffffffffffffffffffffffffffffffffff1673ffffffffffffffffffffffffffffffffffffffff168152602001908152602001600020805480602002602001604051908101604052809291908181526020016000905b82821015610ebb578382906000526020600020906002020160405180604001604052908160008201548152602001600182018054610e2a906138c3565b80601f0160208091040260200160405190810160405280929190818152602001828054610e56906138c3565b8015610ea35780601f10610e7857610100808354040283529160200191610ea3565b820191906000526020600020905b815481529060010190602001808311610e8657829003601f168201915b50505050508152505081526020019060010190610ded565b505050509050919050565b60008260126000600e60009054906101000a900473ffffffffffffffffffffffffffffffffffffffff1673ffffffffffffffffffffffffffffffffffffffff1673ffffffffffffffffffffffffffffffffffffffff16815260200190815260200160002081905550600060405180604001604052808673ffffffffffffffffffffffffffffffffffffffff168152602001848152509050806013600086815260200190815260200160002060008201518160000160006101000a81548173ffffffffffffffffffffffffffffffffffffffff021916908373ffffffffffffffffffffffffffffffffffffffff16021790555060208201518160010155905050666a94d74f43000083106110ff576000610fdf6010611ba5565b9050610feb60106114f9565b611017600e60009054906101000a900473ffffffffffffffffffffffffffffffffffffffff1682611bb3565b600060405180604001604052808381526020016040518060800160405280604c8152602001613f0b604c9139815250905060146000600e60009054906101000a900473ffffffffffffffffffffffffffffffffffffffff1673ffffffffffffffffffffffffffffffffffffffff1673ffffffffffffffffffffffffffffffffffffffff1681526020019081526020016000208190806001815401808255809150506001900390600052602060002090600202016000909190919091506000820151816000015560208201518160010190805190602001906110f9929190612a46565b50505050505b60019150509392505050565b6000600a60009054906101000a900473ffffffffffffffffffffffffffffffffffffffff16905090565b606060018054611144906138c3565b80601f0160208091040260200160405190810160405280929190818152602001828054611170906138c3565b80156111bd5780601f10611192576101008083540402835291602001916111bd565b820191906000526020600020905b8154815290600101906020018083116111a057829003601f168201915b5050505050905090565b6111d96111d26115d4565b8383611bd1565b5050565b6111ee6111e86115d4565b83611695565b61122d576040517f08c379a000000000000000000000000000000000000000000000000000000000815260040161122490613498565b60405180910390fd5b61123984848484611d3e565b50505050565b600b5481565b606061125082611589565b600061125a611d9a565b9050600081511161127a57604051806020016040528060008152506112a5565b8061128484611dd7565b604051602001611295929190613377565b6040516020818303038152906040525b915050919050565b600081600d60006101000a81548173ffffffffffffffffffffffffffffffffffffffff021916908373ffffffffffffffffffffffffffffffffffffffff160217905550600d60009054906101000a900473ffffffffffffffffffffffffffffffffffffffff1673ffffffffffffffffffffffffffffffffffffffff166108fc349081150290604051600060405180830381858888f19350505050158015611358573d6000803e3d6000fd5b507ffc1ff50638c53d8cb428005e102107cffd2da1840abf5289da2981b8e99c6420600d60009054906101000a900473ffffffffffffffffffffffffffffffffffffffff16600e60009054906101000a900473ffffffffffffffffffffffffffffffffffffffff16346040516113d0939291906133b6565b60405180910390a160019050919050565b6000600560008473ffffffffffffffffffffffffffffffffffffffff1673ffffffffffffffffffffffffffffffffffffffff16815260200190815260200160002060008373ffffffffffffffffffffffffffffffffffffffff1673ffffffffffffffffffffffffffffffffffffffff16815260200190815260200160002060009054906101000a900460ff16905092915050565b61147d611a61565b600073ffffffffffffffffffffffffffffffffffffffff168173ffffffffffffffffffffffffffffffffffffffff1614156114ed576040517f08c379a00000000000000000000000000000000000000000000000000000000081526004016114e4906134f8565b60405180910390fd5b6114f681611adf565b50565b6001816000016000828254019250508190555050565b60007f780e9d63000000000000000000000000000000000000000000000000000000007bffffffffffffffffffffffffffffffffffffffffffffffffffffffff1916827bffffffffffffffffffffffffffffffffffffffffffffffffffffffff19161480611582575061158182611eaf565b5b9050919050565b61159281611f91565b6115d1576040517f08c379a00000000000000000000000000000000000000000000000000000000081526004016115c8906135f8565b60405180910390fd5b50565b600033905090565b816004600083815260200190815260200160002060006101000a81548173ffffffffffffffffffffffffffffffffffffffff021916908373ffffffffffffffffffffffffffffffffffffffff160217905550808273ffffffffffffffffffffffffffffffffffffffff1661164f83610c2f565b73ffffffffffffffffffffffffffffffffffffffff167f8c5be1e5ebec7d5bd14f71427d1e84f3dd0314c0f7b2291e5b200ac8c7c3b92560405160405180910390a45050565b6000806116a183610c2f565b90508073ffffffffffffffffffffffffffffffffffffffff168473ffffffffffffffffffffffffffffffffffffffff1614806116e357506116e281856113e1565b5b8061172157508373ffffffffffffffffffffffffffffffffffffffff16611709846107b0565b73ffffffffffffffffffffffffffffffffffffffff16145b91505092915050565b8273ffffffffffffffffffffffffffffffffffffffff1661174a82610c2f565b73ffffffffffffffffffffffffffffffffffffffff16146117a0576040517f08c379a000000000000000000000000000000000000000000000000000000000815260040161179790613518565b60405180910390fd5b600073ffffffffffffffffffffffffffffffffffffffff168273ffffffffffffffffffffffffffffffffffffffff161415611810576040517f08c379a000000000000000000000000000000000000000000000000000000000815260040161180790613558565b60405180910390fd5b61181d8383836001611fd2565b8273ffffffffffffffffffffffffffffffffffffffff1661183d82610c2f565b73ffffffffffffffffffffffffffffffffffffffff1614611893576040517f08c379a000000000000000000000000000000000000000000000000000000000815260040161188a90613518565b60405180910390fd5b6004600082815260200190815260200160002060006101000a81549073ffffffffffffffffffffffffffffffffffffffff02191690556001600360008573ffffffffffffffffffffffffffffffffffffffff1673ffffffffffffffffffffffffffffffffffffffff168152602001908152602001600020600082825403925050819055506001600360008473ffffffffffffffffffffffffffffffffffffffff1673ffffffffffffffffffffffffffffffffffffffff16815260200190815260200160002060008282540192505081905550816002600083815260200190815260200160002060006101000a81548173ffffffffffffffffffffffffffffffffffffffff021916908373ffffffffffffffffffffffffffffffffffffffff160217905550808273ffffffffffffffffffffffffffffffffffffffff168473ffffffffffffffffffffffffffffffffffffffff167fddf252ad1be2c89b69c2b068fc378daa952ba7f163c4a11628f55a4df523b3ef60405160405180910390a4611a1f8383836001611fe4565b505050565b60006002600083815260200190815260200160002060009054906101000a900473ffffffffffffffffffffffffffffffffffffffff169050919050565b611a696115d4565b73ffffffffffffffffffffffffffffffffffffffff16611a8761110b565b73ffffffffffffffffffffffffffffffffffffffff1614611add576040517f08c379a0000000000000000000000000000000000000000000000000000000008152600401611ad4906135d8565b60405180910390fd5b565b6000600a60009054906101000a900473ffffffffffffffffffffffffffffffffffffffff16905081600a60006101000a81548173ffffffffffffffffffffffffffffffffffffffff021916908373ffffffffffffffffffffffffffffffffffffffff1602179055508173ffffffffffffffffffffffffffffffffffffffff168173ffffffffffffffffffffffffffffffffffffffff167f8be0079c531659141344cd1fd0a4f28419497f9722a3daafe3b4186f6b6457e060405160405180910390a35050565b600081600001549050919050565b611bcd828260405180602001604052806000815250611fea565b5050565b8173ffffffffffffffffffffffffffffffffffffffff168373ffffffffffffffffffffffffffffffffffffffff161415611c40576040517f08c379a0000000000000000000000000000000000000000000000000000000008152600401611c3790613578565b60405180910390fd5b80600560008573ffffffffffffffffffffffffffffffffffffffff1673ffffffffffffffffffffffffffffffffffffffff16815260200190815260200160002060008473ffffffffffffffffffffffffffffffffffffffff1673ffffffffffffffffffffffffffffffffffffffff16815260200190815260200160002060006101000a81548160ff0219169083151502179055508173ffffffffffffffffffffffffffffffffffffffff168373ffffffffffffffffffffffffffffffffffffffff167f17307eab39ab6107e8899845ad3d59bd9653f200f220920489ca2b5937696c3183604051611d31919061345b565b60405180910390a3505050565b611d4984848461172a565b611d5584848484612045565b611d94576040517f08c379a0000000000000000000000000000000000000000000000000000000008152600401611d8b906134d8565b60405180910390fd5b50505050565b60606040518060400160405280601a81526020017f697066733a2f2f68617070794d6f6e6b6579426173655552492f000000000000815250905090565b606060006001611de6846121dc565b01905060008167ffffffffffffffff811115611e0557611e04613a11565b5b6040519080825280601f01601f191660200182016040528015611e375781602001600182028036833780820191505090505b509050600082602001820190505b600115611ea4578080600190039150507f3031323334353637383961626364656600000000000000000000000000000000600a86061a8153600a8581611e8e57611e8d613955565b5b0494506000851415611e9f57611ea4565b611e45565b819350505050919050565b60007f80ac58cd000000000000000000000000000000000000000000000000000000007bffffffffffffffffffffffffffffffffffffffffffffffffffffffff1916827bffffffffffffffffffffffffffffffffffffffffffffffffffffffff19161480611f7a57507f5b5e139f000000000000000000000000000000000000000000000000000000007bffffffffffffffffffffffffffffffffffffffffffffffffffffffff1916827bffffffffffffffffffffffffffffffffffffffffffffffffffffffff1916145b80611f8a5750611f898261232f565b5b9050919050565b60008073ffffffffffffffffffffffffffffffffffffffff16611fb383611a24565b73ffffffffffffffffffffffffffffffffffffffff1614159050919050565b611fde84848484612399565b50505050565b50505050565b611ff483836124f9565b6120016000848484612045565b612040576040517f08c379a0000000000000000000000000000000000000000000000000000000008152600401612037906134d8565b60405180910390fd5b505050565b60006120668473ffffffffffffffffffffffffffffffffffffffff16612717565b156121cf578373ffffffffffffffffffffffffffffffffffffffff1663150b7a0261208f6115d4565b8786866040518563ffffffff1660e01b81526004016120b194939291906133ed565b602060405180830381600087803b1580156120cb57600080fd5b505af19250505080156120fc57506040513d601f19601f820116820180604052508101906120f99190612eb7565b60015b61217f573d806000811461212c576040519150601f19603f3d011682016040523d82523d6000602084013e612131565b606091505b50600081511415612177576040517f08c379a000000000000000000000000000000000000000000000000000000000815260040161216e906134d8565b60405180910390fd5b805181602001fd5b63150b7a0260e01b7bffffffffffffffffffffffffffffffffffffffffffffffffffffffff1916817bffffffffffffffffffffffffffffffffffffffffffffffffffffffff1916149150506121d4565b600190505b949350505050565b600080600090507a184f03e93ff9f4daa797ed6e38ed64bf6a1f010000000000000000831061223a577a184f03e93ff9f4daa797ed6e38ed64bf6a1f01000000000000000083816122305761222f613955565b5b0492506040810190505b6d04ee2d6d415b85acef81000000008310612277576d04ee2d6d415b85acef8100000000838161226d5761226c613955565b5b0492506020810190505b662386f26fc1000083106122a657662386f26fc10000838161229c5761229b613955565b5b0492506010810190505b6305f5e10083106122cf576305f5e10083816122c5576122c4613955565b5b0492506008810190505b61271083106122f45761271083816122ea576122e9613955565b5b0492506004810190505b60648310612317576064838161230d5761230c613955565b5b0492506002810190505b600a8310612326576001810190505b80915050919050565b60007f01ffc9a7000000000000000000000000000000000000000000000000000000007bffffffffffffffffffffffffffffffffffffffffffffffffffffffff1916827bffffffffffffffffffffffffffffffffffffffffffffffffffffffff1916149050919050565b6123a58484848461273a565b60018111156123e9576040517f08c379a00000000000000000000000000000000000000000000000000000000081526004016123e090613678565b60405180910390fd5b6000829050600073ffffffffffffffffffffffffffffffffffffffff168573ffffffffffffffffffffffffffffffffffffffff1614156124315761242c81612740565b612470565b8373ffffffffffffffffffffffffffffffffffffffff168573ffffffffffffffffffffffffffffffffffffffff161461246f5761246e8582612789565b5b5b600073ffffffffffffffffffffffffffffffffffffffff168473ffffffffffffffffffffffffffffffffffffffff1614156124b3576124ae816128f6565b6124f2565b8473ffffffffffffffffffffffffffffffffffffffff168473ffffffffffffffffffffffffffffffffffffffff16146124f1576124f084826129c7565b5b5b5050505050565b600073ffffffffffffffffffffffffffffffffffffffff168273ffffffffffffffffffffffffffffffffffffffff161415612569576040517f08c379a0000000000000000000000000000000000000000000000000000000008152600401612560906135b8565b60405180910390fd5b61257281611f91565b156125b2576040517f08c379a00000000000000000000000000000000000000000000000000000000081526004016125a990613538565b60405180910390fd5b6125c0600083836001611fd2565b6125c981611f91565b15612609576040517f08c379a000000000000000000000000000000000000000000000000000000000815260040161260090613538565b60405180910390fd5b6001600360008473ffffffffffffffffffffffffffffffffffffffff1673ffffffffffffffffffffffffffffffffffffffff16815260200190815260200160002060008282540192505081905550816002600083815260200190815260200160002060006101000a81548173ffffffffffffffffffffffffffffffffffffffff021916908373ffffffffffffffffffffffffffffffffffffffff160217905550808273ffffffffffffffffffffffffffffffffffffffff16600073ffffffffffffffffffffffffffffffffffffffff167fddf252ad1be2c89b69c2b068fc378daa952ba7f163c4a11628f55a4df523b3ef60405160405180910390a4612713600083836001611fe4565b5050565b6000808273ffffffffffffffffffffffffffffffffffffffff163b119050919050565b50505050565b6008805490506009600083815260200190815260200160002081905550600881908060018154018082558091505060019003906000526020600020016000909190919091505550565b6000600161279684610cb6565b6127a091906137c7565b9050600060076000848152602001908152602001600020549050818114612885576000600660008673ffffffffffffffffffffffffffffffffffffffff1673ffffffffffffffffffffffffffffffffffffffff168152602001908152602001600020600084815260200190815260200160002054905080600660008773ffffffffffffffffffffffffffffffffffffffff1673ffffffffffffffffffffffffffffffffffffffff168152602001908152602001600020600084815260200190815260200160002081905550816007600083815260200190815260200160002081905550505b6007600084815260200190815260200160002060009055600660008573ffffffffffffffffffffffffffffffffffffffff1673ffffffffffffffffffffffffffffffffffffffff16815260200190815260200160002060008381526020019081526020016000206000905550505050565b6000600160088054905061290a91906137c7565b905060006009600084815260200190815260200160002054905060006008838154811061293a576129396139e2565b5b90600052602060002001549050806008838154811061295c5761295b6139e2565b5b9060005260206000200181905550816009600083815260200190815260200160002081905550600960008581526020019081526020016000206000905560088054806129ab576129aa6139b3565b5b6001900381819060005260206000200160009055905550505050565b60006129d283610cb6565b905081600660008573ffffffffffffffffffffffffffffffffffffffff1673ffffffffffffffffffffffffffffffffffffffff168152602001908152602001600020600083815260200190815260200160002081905550806007600084815260200190815260200160002081905550505050565b828054612a52906138c3565b90600052602060002090601f016020900481019282612a745760008555612abb565b82601f10612a8d57805160ff1916838001178555612abb565b82800160010185558215612abb579182015b82811115612aba578251825591602001919060010190612a9f565b5b509050612ac89190612acc565b5090565b5b80821115612ae5576000816000905550600101612acd565b5090565b6000612afc612af7846136d8565b6136b3565b905082815260208101848484011115612b1857612b17613a45565b5b612b23848285613881565b509392505050565b6000612b3e612b3984613709565b6136b3565b905082815260208101848484011115612b5a57612b59613a45565b5b612b65848285613881565b509392505050565b600081359050612b7c81613e97565b92915050565b600081359050612b9181613eae565b92915050565b600081359050612ba681613ec5565b92915050565b600081359050612bbb81613edc565b92915050565b600081519050612bd081613edc565b92915050565b600082601f830112612beb57612bea613a40565b5b8135612bfb848260208601612ae9565b91505092915050565b600082601f830112612c1957612c18613a40565b5b8135612c29848260208601612b2b565b91505092915050565b600081359050612c4181613ef3565b92915050565b600060208284031215612c5d57612c5c613a4f565b5b6000612c6b84828501612b6d565b91505092915050565b600060208284031215612c8a57612c89613a4f565b5b6000612c9884828501612b82565b91505092915050565b60008060408385031215612cb857612cb7613a4f565b5b6000612cc685828601612b6d565b9250506020612cd785828601612b6d565b9150509250929050565b600080600060608486031215612cfa57612cf9613a4f565b5b6000612d0886828701612b6d565b9350506020612d1986828701612b6d565b9250506040612d2a86828701612c32565b9150509250925092565b60008060008060808587031215612d4e57612d4d613a4f565b5b6000612d5c87828801612b6d565b9450506020612d6d87828801612b6d565b9350506040612d7e87828801612c32565b925050606085013567ffffffffffffffff811115612d9f57612d9e613a4a565b5b612dab87828801612bd6565b91505092959194509250565b60008060408385031215612dce57612dcd613a4f565b5b6000612ddc85828601612b6d565b9250506020612ded85828601612b97565b9150509250929050565b60008060408385031215612e0e57612e0d613a4f565b5b6000612e1c85828601612b6d565b9250506020612e2d85828601612c32565b9150509250929050565b600080600060608486031215612e5057612e4f613a4f565b5b6000612e5e86828701612b6d565b9350506020612e6f86828701612c32565b9250506040612e8086828701612c32565b9150509250925092565b600060208284031215612ea057612e9f613a4f565b5b6000612eae84828501612bac565b91505092915050565b600060208284031215612ecd57612ecc613a4f565b5b6000612edb84828501612bc1565b91505092915050565b600060208284031215612efa57612ef9613a4f565b5b600082013567ffffffffffffffff811115612f1857612f17613a4a565b5b612f2484828501612c04565b91505092915050565b600060208284031215612f4357612f42613a4f565b5b6000612f5184828501612c32565b91505092915050565b6000612f66838361331c565b905092915050565b612f778161380d565b82525050565b612f86816137fb565b82525050565b6000612f978261374a565b612fa18185613778565b935083602082028501612fb38561373a565b8060005b85811015612fef5784840389528151612fd08582612f5a565b9450612fdb8361376b565b925060208a01995050600181019050612fb7565b50829750879550505050505092915050565b61300a8161381f565b82525050565b600061301b82613755565b6130258185613789565b9350613035818560208601613890565b61303e81613a54565b840191505092915050565b600061305482613760565b61305e818561379a565b935061306e818560208601613890565b61307781613a54565b840191505092915050565b600061308d82613760565b61309781856137ab565b93506130a7818560208601613890565b6130b081613a54565b840191505092915050565b60006130c682613760565b6130d081856137bc565b93506130e0818560208601613890565b80840191505092915050565b60006130f9602d836137ab565b915061310482613a65565b604082019050919050565b600061311c602b836137ab565b915061312782613ab4565b604082019050919050565b600061313f6032836137ab565b915061314a82613b03565b604082019050919050565b60006131626026836137ab565b915061316d82613b52565b604082019050919050565b60006131856025836137ab565b915061319082613ba1565b604082019050919050565b60006131a8601c836137ab565b91506131b382613bf0565b602082019050919050565b60006131cb6024836137ab565b91506131d682613c19565b604082019050919050565b60006131ee6019836137ab565b91506131f982613c68565b602082019050919050565b60006132116029836137ab565b915061321c82613c91565b604082019050919050565b60006132346020836137ab565b915061323f82613ce0565b602082019050919050565b60006132576020836137ab565b915061326282613d09565b602082019050919050565b600061327a6018836137ab565b915061328582613d32565b602082019050919050565b600061329d6021836137ab565b91506132a882613d5b565b604082019050919050565b60006132c0603d836137ab565b91506132cb82613daa565b604082019050919050565b60006132e3602c836137ab565b91506132ee82613df9565b604082019050919050565b60006133066035836137ab565b915061331182613e48565b604082019050919050565b60006040830160008301516133346000860182613359565b506020830151848203602086015261334c8282613049565b9150508091505092915050565b61336281613877565b82525050565b61337181613877565b82525050565b600061338382856130bb565b915061338f82846130bb565b91508190509392505050565b60006020820190506133b06000830184612f7d565b92915050565b60006060820190506133cb6000830186612f6e565b6133d86020830185612f6e565b6133e56040830184613368565b949350505050565b60006080820190506134026000830187612f7d565b61340f6020830186612f7d565b61341c6040830185613368565b818103606083015261342e8184613010565b905095945050505050565b600060208201905081810360008301526134538184612f8c565b905092915050565b60006020820190506134706000830184613001565b92915050565b600060208201905081810360008301526134908184613082565b905092915050565b600060208201905081810360008301526134b1816130ec565b9050919050565b600060208201905081810360008301526134d18161310f565b9050919050565b600060208201905081810360008301526134f181613132565b9050919050565b6000602082019050818103600083015261351181613155565b9050919050565b6000602082019050818103600083015261353181613178565b9050919050565b600060208201905081810360008301526135518161319b565b9050919050565b60006020820190508181036000830152613571816131be565b9050919050565b60006020820190508181036000830152613591816131e1565b9050919050565b600060208201905081810360008301526135b181613204565b9050919050565b600060208201905081810360008301526135d181613227565b9050919050565b600060208201905081810360008301526135f18161324a565b9050919050565b600060208201905081810360008301526136118161326d565b9050919050565b6000602082019050818103600083015261363181613290565b9050919050565b60006020820190508181036000830152613651816132b3565b9050919050565b60006020820190508181036000830152613671816132d6565b9050919050565b60006020820190508181036000830152613691816132f9565b9050919050565b60006020820190506136ad6000830184613368565b92915050565b60006136bd6136ce565b90506136c982826138f5565b919050565b6000604051905090565b600067ffffffffffffffff8211156136f3576136f2613a11565b5b6136fc82613a54565b9050602081019050919050565b600067ffffffffffffffff82111561372457613723613a11565b5b61372d82613a54565b9050602081019050919050565b6000819050602082019050919050565b600081519050919050565b600081519050919050565b600081519050919050565b6000602082019050919050565b600082825260208201905092915050565b600082825260208201905092915050565b600082825260208201905092915050565b600082825260208201905092915050565b600081905092915050565b60006137d282613877565b91506137dd83613877565b9250828210156137f0576137ef613926565b5b828203905092915050565b600061380682613857565b9050919050565b600061381882613857565b9050919050565b60008115159050919050565b60007fffffffff0000000000000000000000000000000000000000000000000000000082169050919050565b600073ffffffffffffffffffffffffffffffffffffffff82169050919050565b6000819050919050565b82818337600083830152505050565b60005b838110156138ae578082015181840152602081019050613893565b838111156138bd576000848401525b50505050565b600060028204905060018216806138db57607f821691505b602082108114156138ef576138ee613984565b5b50919050565b6138fe82613a54565b810181811067ffffffffffffffff8211171561391d5761391c613a11565b5b80604052505050565b7f4e487b7100000000000000000000000000000000000000000000000000000000600052601160045260246000fd5b7f4e487b7100000000000000000000000000000000000000000000000000000000600052601260045260246000fd5b7f4e487b7100000000000000000000000000000000000000000000000000000000600052602260045260246000fd5b7f4e487b7100000000000000000000000000000000000000000000000000000000600052603160045260246000fd5b7f4e487b7100000000000000000000000000000000000000000000000000000000600052603260045260246000fd5b7f4e487b7100000000000000000000000000000000000000000000000000000000600052604160045260246000fd5b600080fd5b600080fd5b600080fd5b600080fd5b6000601f19601f8301169050919050565b7f4552433732313a2063616c6c6572206973206e6f7420746f6b656e206f776e6560008201527f72206f7220617070726f76656400000000000000000000000000000000000000602082015250565b7f455243373231456e756d657261626c653a206f776e657220696e646578206f7560008201527f74206f6620626f756e6473000000000000000000000000000000000000000000602082015250565b7f4552433732313a207472616e7366657220746f206e6f6e20455243373231526560008201527f63656976657220696d706c656d656e7465720000000000000000000000000000602082015250565b7f4f776e61626c653a206e6577206f776e657220697320746865207a65726f206160008201527f6464726573730000000000000000000000000000000000000000000000000000602082015250565b7f4552433732313a207472616e736665722066726f6d20696e636f72726563742060008201527f6f776e6572000000000000000000000000000000000000000000000000000000602082015250565b7f4552433732313a20746f6b656e20616c7265616479206d696e74656400000000600082015250565b7f4552433732313a207472616e7366657220746f20746865207a65726f2061646460008201527f7265737300000000000000000000000000000000000000000000000000000000602082015250565b7f4552433732313a20617070726f766520746f2063616c6c657200000000000000600082015250565b7f4552433732313a2061646472657373207a65726f206973206e6f74206120766160008201527f6c6964206f776e65720000000000000000000000000000000000000000000000602082015250565b7f4552433732313a206d696e7420746f20746865207a65726f2061646472657373600082015250565b7f4f776e61626c653a2063616c6c6572206973206e6f7420746865206f776e6572600082015250565b7f4552433732313a20696e76616c696420746f6b656e2049440000000000000000600082015250565b7f4552433732313a20617070726f76616c20746f2063757272656e74206f776e6560008201527f7200000000000000000000000000000000000000000000000000000000000000602082015250565b7f4552433732313a20617070726f76652063616c6c6572206973206e6f7420746f60008201527f6b656e206f776e6572206f7220617070726f76656420666f7220616c6c000000602082015250565b7f455243373231456e756d657261626c653a20676c6f62616c20696e646578206f60008201527f7574206f6620626f756e64730000000000000000000000000000000000000000602082015250565b7f455243373231456e756d657261626c653a20636f6e736563757469766520747260008201527f616e7366657273206e6f7420737570706f727465640000000000000000000000602082015250565b613ea0816137fb565b8114613eab57600080fd5b50565b613eb78161380d565b8114613ec257600080fd5b50565b613ece8161381f565b8114613ed957600080fd5b50565b613ee58161382b565b8114613ef057600080fd5b50565b613efc81613877565b8114613f0757600080fd5b5056fe68747470733a2f2f692e70696e696d672e636f6d2f6f726967696e616c732f36362f66372f37322f36366637373239363238326235616237633237383037323438303236313463302e706e67a2646970667358221220b34a0936d626c0a26435ecd4adca970485f6f418ceee8b7ab184be2271ad75ae64736f6c63430008070033",
  "immutableReferences": {},
  "source": "//SPDX-License-Identifier: Unlicense\r\npragma solidity ^0.8.4;\r\n\r\nimport \"../node_modules/@openzeppelin/contracts/token/ERC721/ERC721.sol\";\r\nimport \"../node_modules/@openzeppelin/contracts/token/ERC721/extensions/ERC721Enumerable.sol\";\r\n// import \"@openzeppelin/contracts@4.5.0/security/Pausable.sol\";\r\nimport \"../node_modules/@openzeppelin/contracts/access/Ownable.sol\";\r\nimport \"../node_modules/@openzeppelin/contracts/utils/Counters.sol\";\r\n\r\ncontract Payment is ERC721, ERC721Enumerable, Ownable {\r\n    // ===== 1. Property Variables ===== //\r\n\r\n    using Counters for Counters.Counter;\r\n\r\n    uint256 public MINT_PRICE = 0.05 ether;\r\n    uint256 public MAX_SUPPLY = 100;\r\n\r\n    address payable destinoTransferencia;\r\n    address payable from;\r\n    address payable to;\r\n\r\n    // uint montoTransferencia;\r\n\r\n    event TransferirMonto(\r\n        address payable _destinoTransferencia,\r\n        address payable _origenTransferencia,\r\n        uint montoTransferencia\r\n    );\r\n\r\n    function nuevaTransaccion(\r\n        address payable _destinoTransferencia\r\n    ) public payable returns (bool) {\r\n        destinoTransferencia = _destinoTransferencia;\r\n        destinoTransferencia.transfer(msg.value);\r\n        emit TransferirMonto(destinoTransferencia, from, msg.value);\r\n        return true;\r\n    }\r\n\r\n    function verBalanceCuenta() public pure returns (uint) {\r\n        return 1000;\r\n    }\r\n\r\n    function getAll() public pure returns (uint) {\r\n        return 1000;\r\n    }\r\n\r\n    event PayOrder(address payable _to, address payable _from, uint amt);\r\n\r\n    function pay(address payable _to) public payable returns (bool) {\r\n        to = _to;\r\n        to.transfer(msg.value);\r\n        emit PayOrder(to, from, msg.value);\r\n        return true;\r\n    }\r\n\r\n    ///\r\n    /// only owner modifier is inherited from imported dependencies\r\n    ///\r\n\r\n    // function isRetailer() public view returns (bool) {\r\n    //     for (uint256 i = 0; i < retailerIds.length; i++) {\r\n    //         if (msg.sender == retailerIds[i]) {\r\n    //             return true;\r\n    //         }\r\n    //     }\r\n    // }\r\n\r\n    // modifier onlyRetailer() {\r\n    //     require(isRetailer());\r\n    //     _;\r\n    // }\r\n\r\n    // modifier onlyUser() {\r\n    //     require(isUser());\r\n    //     _;\r\n    // }\r\n\r\n    // function isUser() public view returns (bool) {\r\n    //     for (uint256 i = 0; i < userIds.length; i++) {\r\n    //         if (msg.sender == userIds[i]) {\r\n    //             return true;\r\n    //         }\r\n    //     }\r\n    // }\r\n\r\n    Counters.Counter private _tokenIdCounter;\r\n\r\n    constructor() ERC721(\"Test2\", \"IC\") {\r\n        // Start token ID at 1. By default is starts at 0.\r\n        _tokenIdCounter.increment();\r\n        from = payable(msg.sender);\r\n    }\r\n\r\n    //print\r\n    event LogMessage(string message);\r\n\r\n    function print(string memory message) public {\r\n        emit LogMessage(message);\r\n    }\r\n\r\n    // struct ItemStruct {\r\n    //     uint256 itemId;\r\n    //     string itemName;\r\n    //     uint256 categoryId;\r\n    //     uint256 itemPrice;\r\n    //     uint256 quantity;\r\n    //     uint256 pricePerQuantity;\r\n    //     address payable sellerId;\r\n    // }\r\n\r\n    // //start of items section\r\n    // mapping(uint256 => ItemStruct) private items; // mapping from item id to item details\r\n    // uint256[] private itemIds; // array of all item ids\r\n\r\n    // function getItemById(\r\n    //     uint256 itemId\r\n    // ) public view returns (ItemStruct memory) {\r\n    //     ItemStruct memory item = items[itemId];\r\n    //     return item;\r\n    // }\r\n\r\n    // function getAllItems() public view returns (ItemStruct[] memory) {\r\n    //     uint256 itemCount = itemIds.length;\r\n    //     ItemStruct[] memory itemsArray = new ItemStruct[](itemCount);\r\n    //     for (uint256 i = 0; i < itemCount; i++) {\r\n    //         uint256 itemId = itemIds[i];\r\n    //         itemsArray[i] = items[itemId];\r\n    //     }\r\n    //     return itemsArray;\r\n    // }\r\n\r\n    // struct UserStruct {\r\n    //     address userId;\r\n    //     string userName;\r\n    //     string homeAddress;\r\n    // }\r\n\r\n    //end of item section\r\n\r\n    //start of user section\r\n    // mapping(address => UserStruct) private idToUser;\r\n    // mapping(address => ItemStruct[]) private userIdToCartList;\r\n    // address[] private userIds;\r\n\r\n    // function addUser(\r\n    //     address userId,\r\n    //     string memory name,\r\n    //     string memory homeAddr\r\n    // ) public {\r\n    //     if (bytes(idToUser[userId].userName).length > 0) {\r\n    //         revert(\"USER EXISTS\");\r\n    //     }\r\n    //     idToUser[userId] = UserStruct(userId, name, homeAddr);\r\n    //     userIds.push(userId);\r\n    // }\r\n\r\n    // function getAllUsers() public view returns (UserStruct[] memory) {\r\n    //     uint256 userCount = userIds.length;\r\n    //     UserStruct[] memory resUsers = new UserStruct[](userCount);\r\n    //     for (uint256 i = 0; i < userCount; i++) {\r\n    //         address tempId = userIds[i];\r\n    //         resUsers[i] = idToUser[tempId];\r\n    //     }\r\n    //     // UserStruct[] memory temp = new UserStruct[](2);\r\n    //     // temp[0] = UserStruct(0x67B82548B0d34cBc6d993583d6130e2a5f76C8EA, \"name 1\", \"addr 1\");\r\n    //     // temp[1] = UserStruct(0xb2a9a8f7a803E3Ba1783c0F8226C0cce1CD65650, \"name 2\", \"addr 2s\");\r\n\r\n    //     return resUsers;\r\n    // }\r\n\r\n    // function getUserById(\r\n    //     address userId\r\n    // ) public view returns (UserStruct memory) {\r\n    //     UserStruct memory user = idToUser[userId];\r\n    //     return user;\r\n    // }\r\n\r\n    // //cart operations\r\n\r\n    // function addItemToCart(\r\n    //     address userId,\r\n    //     uint256 itemId,\r\n    //     string memory name,\r\n    //     uint256 catId,\r\n    //     uint256 price,\r\n    //     uint256 quantity,\r\n    //     address payable sellerId\r\n    // ) public {\r\n    //     ItemStruct memory temp = ItemStruct(\r\n    //         itemId,\r\n    //         name,\r\n    //         catId,\r\n    //         price,\r\n    //         quantity,\r\n    //         price * quantity,\r\n    //         sellerId\r\n    //     );\r\n    //     userIdToCartList[userId].push(temp);\r\n    // }\r\n\r\n    // function viewCart(\r\n    //     address userId\r\n    // ) public view returns (ItemStruct[] memory) {\r\n    //     return userIdToCartList[userId];\r\n    // }\r\n\r\n    // function updateCart(\r\n    //     address userId,\r\n    //     uint256 itemId,\r\n    //     uint256 newQuant\r\n    // ) public {\r\n    //     bool isExists = false;\r\n    //     for (uint256 i = 0; i < userIdToCartList[userId].length; i++) {\r\n    //         if (itemId == userIdToCartList[userId][i].itemId) {\r\n    //             isExists = true;\r\n    //             userIdToCartList[userId][i].quantity = newQuant;\r\n    //             break;\r\n    //         }\r\n    //     }\r\n    //     if (!isExists) {\r\n    //         print(\"Try with item already existing in cart\");\r\n    //     }\r\n    // }\r\n\r\n    // function removeItemFromCart(\r\n    //     address userId,\r\n    //     uint256 itemId\r\n    // ) public returns (ItemStruct[] memory) {\r\n    //     uint256 itemIndx = 0;\r\n    //     bool isExists = false;\r\n    //     for (uint256 i = 0; i < userIdToCartList[userId].length; i++) {\r\n    //         if (itemId == userIdToCartList[userId][i].itemId) {\r\n    //             isExists = true;\r\n    //             itemIndx = i;\r\n    //             break;\r\n    //         }\r\n    //     }\r\n\r\n    //     if (isExists) {\r\n    //         uint256 i = 0;\r\n    //         for (i = itemIndx; i < userIdToCartList[userId].length - 1; i++) {\r\n    //             userIdToCartList[userId][i] = userIdToCartList[userId][i + 1];\r\n    //         }\r\n    //         userIdToCartList[userId].pop();\r\n    //         return userIdToCartList[userId];\r\n    //     }\r\n    //     return userIdToCartList[userId];\r\n    // }\r\n\r\n    //end of user section\r\n\r\n    //start of retailer section\r\n\r\n    // struct RetailerStruct {\r\n    //     address retailerId;\r\n    //     string retailerName;\r\n    //     string homeAddress;\r\n    // }\r\n\r\n    // mapping(address => RetailerStruct) private idToRetailer;\r\n    // address[] private retailerIds;\r\n    // mapping(address => ItemStruct[]) retailerToInv;\r\n\r\n    // function addRetailer(\r\n    //     address retailerId,\r\n    //     string memory name,\r\n    //     string memory homeAddr\r\n    // ) public {\r\n    //     if (bytes(idToRetailer[retailerId].retailerName).length > 0) {\r\n    //         revert(\"USER EXISTS\");\r\n    //     }\r\n    //     idToRetailer[retailerId] = RetailerStruct(retailerId, name, homeAddr);\r\n    //     retailerIds.push(retailerId);\r\n    // }\r\n\r\n    // function getRetailerById(\r\n    //     address retId\r\n    // ) public view returns (RetailerStruct memory) {\r\n    //     RetailerStruct memory retailer = idToRetailer[retId];\r\n    //     return retailer;\r\n    // }\r\n\r\n    // function getAllRetailer() public view returns (RetailerStruct[] memory) {\r\n    //     uint256 userCount = retailerIds.length;\r\n    //     RetailerStruct[] memory resUsers = new RetailerStruct[](userCount);\r\n    //     for (uint256 i = 0; i < userCount; i++) {\r\n    //         address tempId = retailerIds[i];\r\n    //         resUsers[i] = idToRetailer[tempId];\r\n    //     }\r\n    //     return resUsers;\r\n    // }\r\n\r\n    // //retailer functions\r\n    // function addnewItemToInvt(\r\n    //     string memory name,\r\n    //     uint256 catId,\r\n    //     uint256 price,\r\n    //     uint256 quantity,\r\n    //     address payable sellerId,\r\n    //     uint256 itemId\r\n    // ) public {\r\n    //     //check if itemID exists\r\n    //     for (uint256 i = 0; i < itemIds.length; i++) {\r\n    //         if (itemIds[i] == itemId) {\r\n    //             print(\"try different ID\");\r\n    //             return;\r\n    //         }\r\n    //     }\r\n    //     ItemStruct memory temp = ItemStruct(\r\n    //         itemId,\r\n    //         name,\r\n    //         catId,\r\n    //         price,\r\n    //         quantity,\r\n    //         price * quantity,\r\n    //         sellerId\r\n    //     );\r\n    //     retailerToInv[sellerId].push(temp);\r\n    //     //update items mapping\r\n    //     items[itemId] = temp;\r\n    //     itemIds.push(itemId);\r\n    // }\r\n\r\n    // function viewInventory(\r\n    //     address sellerId\r\n    // ) public view returns (ItemStruct[] memory) {\r\n    //     return retailerToInv[sellerId];\r\n    // }\r\n\r\n    // // should also handle price change\r\n    // function UpdateInventory(\r\n    //     uint256 itemId,\r\n    //     uint256 newQuant,\r\n    //     address sellerId\r\n    // ) public {\r\n    //     bool isExists = false;\r\n    //     for (uint256 i = 0; i < retailerToInv[sellerId].length; i++) {\r\n    //         if (itemId == retailerToInv[sellerId][i].itemId) {\r\n    //             isExists = true;\r\n    //             retailerToInv[sellerId][i].quantity = newQuant;\r\n    //             break;\r\n    //         }\r\n    //     }\r\n    //     if (!isExists) {\r\n    //         print(\"Try with item already existing in cart\");\r\n    //     }\r\n    // }\r\n\r\n    // function removeItemInventory(address retailerId, uint256 itemId) public {\r\n    //     uint256 itemIndx = 0;\r\n    //     bool isExists = false;\r\n    //     for (uint256 i = 0; i < retailerToInv[retailerId].length; i++) {\r\n    //         if (itemId == retailerToInv[retailerId][i].itemId) {\r\n    //             isExists = true;\r\n    //             itemIndx = i;\r\n    //             break;\r\n    //         }\r\n    //     }\r\n\r\n    //     if (isExists) {\r\n    //         uint256 i = 0;\r\n    //         for (i = itemIndx; i < retailerToInv[retailerId].length - 1; i++) {\r\n    //             retailerToInv[retailerId][i] = retailerToInv[retailerId][i + 1];\r\n    //         }\r\n    //         retailerToInv[retailerId].pop();\r\n    //     }\r\n\r\n    //     for (uint256 i = 0; i < itemIds.length; i++) {\r\n    //         if (itemIds[i] == itemId) {\r\n    //             for (uint256 j = i; j < itemIds.length - 1; j++) {\r\n    //                 itemIds[j] = itemIds[j + 1];\r\n    //             }\r\n    //             itemIds.pop();\r\n    //             break;\r\n    //         }\r\n    //     }\r\n    // }\r\n\r\n    uint256 orderIdCounter = 0;\r\n    mapping(address => uint256) userToOrderId;\r\n    // mapping(uint256 => ItemStruct[]) orderToDetails;\r\n\r\n    struct OrderDetailsStruct {\r\n        address retailerId;\r\n        uint256 orderAmount;\r\n    }\r\n\r\n    struct Nft {\r\n        uint256 tokenId;\r\n        string image_link;\r\n    }\r\n\r\n    mapping(uint256 => OrderDetailsStruct) orderIdToDetails;\r\n\r\n    mapping(address => Nft[]) userToNft;\r\n\r\n    function getUserNfts(address _userId) public view returns(Nft[] memory){\r\n        return userToNft[_userId];\r\n    }\r\n\r\n    function placeOrderNew(\r\n        address retId,\r\n        uint256 orderId,\r\n        uint256 orderAmount\r\n    ) public returns (bool) {\r\n        userToOrderId[from] = orderId;\r\n        OrderDetailsStruct memory temp = OrderDetailsStruct(retId, orderAmount);\r\n        orderIdToDetails[orderId] = (temp);\r\n\r\n        //NFT minting\r\n        if (orderAmount >= 30000000000000000) {\r\n            uint256 tokenId = _tokenIdCounter.current();\r\n            _tokenIdCounter.increment();\r\n            _safeMint(from, tokenId);\r\n            Nft memory newNft = Nft(\r\n                tokenId,\r\n                \"https://i.pinimg.com/originals/66/f7/72/66f77296282b5ab7c2780724802614c0.png\"\r\n            );\r\n            userToNft[from].push(newNft);\r\n        }\r\n        return true;\r\n    }\r\n\r\n    // function viewOrdersByUserId(\r\n    //     address userId\r\n    // ) public view returns (ItemStruct[] memory) {\r\n    //     return orderToDetails[userToOrderId[userId]];\r\n    // }\r\n\r\n    // function placeOrder(address userId) public payable {\r\n    //     //require(totalSupply() < MAX_SUPPLY, \"Can't mint anymore tokens.\");\r\n\r\n    //     //check if payment is more than min amount\r\n    //     // ItemStruct[] memory temp = userIdToCartList[userId];\r\n    //     uint256 final_amount = 0;\r\n    //     for (uint256 i = 0; i < userIdToCartList[userId].length; i++) {\r\n    //         final_amount += userIdToCartList[userId][i].pricePerQuantity;\r\n    //     }\r\n\r\n    //     userIdToCartList[userId][0].sellerId.transfer(final_amount);\r\n    //     userToOrderId[userId] = orderIdCounter;\r\n    //     orderToDetails[orderIdCounter] = userIdToCartList[userId];\r\n    //     orderIdCounter++;\r\n\r\n    //     // ItemStruct[] memory prevInv = retailerToInv[userIdToCartList[userId][0].sellerId];\r\n    //     uint256 j = 0;\r\n    //     // uint256 k =0;\r\n    //     for (\r\n    //         uint256 i = 0;\r\n    //         i < retailerToInv[userIdToCartList[userId][0].sellerId].length;\r\n    //         i++\r\n    //     ) {\r\n    //         while (j < userIdToCartList[userId].length) {\r\n    //             if (\r\n    //                 retailerToInv[userIdToCartList[userId][0].sellerId][i]\r\n    //                     .itemId == userIdToCartList[userId][j].itemId\r\n    //             ) {\r\n    //                 retailerToInv[userIdToCartList[userId][0].sellerId][i]\r\n    //                     .quantity -= userIdToCartList[userId][j].quantity;\r\n    //                 j++;\r\n    //             }\r\n    //         }\r\n    //     }\r\n\r\n    //     while (userIdToCartList[userId].length > 0) {\r\n    //         userIdToCartList[userId].pop();\r\n    //     }\r\n\r\n    // }\r\n\r\n    //===============================================//\r\n    // ===== 5. Other Functions ===== //\r\n\r\n    function _baseURI() internal pure override returns (string memory) {\r\n        return \"ipfs://happyMonkeyBaseURI/\";\r\n    }\r\n\r\n    function _beforeTokenTransfer(\r\n        address _from,\r\n        address _to,\r\n        uint256 _tokenId,\r\n        uint256 batchSize\r\n    ) internal virtual override(ERC721, ERC721Enumerable) {\r\n        super._beforeTokenTransfer(_from, _to, _tokenId, batchSize);\r\n    }\r\n\r\n    // The following functions are overrides required by Solidity.\r\n\r\n    function supportsInterface(\r\n        bytes4 interfaceId\r\n    ) public view override(ERC721, ERC721Enumerable) returns (bool) {\r\n        return super.supportsInterface(interfaceId);\r\n    }\r\n}\r\n",
  "sourcePath": "C:\\Users\\manda\\Desktop\\526 project\\phase 2 final\\New folder\\AngularTruffle\\Blockchain\\contracts\\Payment.sol",
  "compiler": {
    "name": "solc",
    "version": "0.8.7+commit.e28d00a7.Emscripten.clang"
  },
  "schemaVersion": "3.4.13",
  "updatedAt": "2023-05-10T00:41:33.378Z",
  "devdoc": {
    "kind": "dev",
    "methods": {
      "approve(address,uint256)": {
        "details": "See {IERC721-approve}."
      },
      "balanceOf(address)": {
        "details": "See {IERC721-balanceOf}."
      },
      "getApproved(uint256)": {
        "details": "See {IERC721-getApproved}."
      },
      "isApprovedForAll(address,address)": {
        "details": "See {IERC721-isApprovedForAll}."
      },
      "name()": {
        "details": "See {IERC721Metadata-name}."
      },
      "owner()": {
        "details": "Returns the address of the current owner."
      },
      "ownerOf(uint256)": {
        "details": "See {IERC721-ownerOf}."
      },
      "renounceOwnership()": {
        "details": "Leaves the contract without owner. It will not be possible to call `onlyOwner` functions anymore. Can only be called by the current owner. NOTE: Renouncing ownership will leave the contract without an owner, thereby removing any functionality that is only available to the owner."
      },
      "safeTransferFrom(address,address,uint256)": {
        "details": "See {IERC721-safeTransferFrom}."
      },
      "safeTransferFrom(address,address,uint256,bytes)": {
        "details": "See {IERC721-safeTransferFrom}."
      },
      "setApprovalForAll(address,bool)": {
        "details": "See {IERC721-setApprovalForAll}."
      },
      "symbol()": {
        "details": "See {IERC721Metadata-symbol}."
      },
      "tokenByIndex(uint256)": {
        "details": "See {IERC721Enumerable-tokenByIndex}."
      },
      "tokenOfOwnerByIndex(address,uint256)": {
        "details": "See {IERC721Enumerable-tokenOfOwnerByIndex}."
      },
      "tokenURI(uint256)": {
        "details": "See {IERC721Metadata-tokenURI}."
      },
      "totalSupply()": {
        "details": "See {IERC721Enumerable-totalSupply}."
      },
      "transferFrom(address,address,uint256)": {
        "details": "See {IERC721-transferFrom}."
      },
      "transferOwnership(address)": {
        "details": "Transfers ownership of the contract to a new account (`newOwner`). Can only be called by the current owner."
      }
    },
    "version": 1
  },
  "userdoc": {
    "kind": "user",
    "methods": {},
    "version": 1
  }
}